{
  "contractName": "Activity",
  "abi": [
    {
      "inputs": [
        {
          "internalType": "string",
          "name": "_name",
          "type": "string"
        },
        {
          "internalType": "string",
          "name": "_date",
          "type": "string"
        },
        {
          "internalType": "string",
          "name": "_locate",
          "type": "string"
        },
        {
          "internalType": "string",
          "name": "_message",
          "type": "string"
        }
      ],
      "payable": false,
      "stateMutability": "nonpayable",
      "type": "constructor"
    },
    {
      "anonymous": false,
      "inputs": [],
      "name": "applicantsChangeEvent",
      "type": "event"
    },
    {
      "anonymous": false,
      "inputs": [],
      "name": "infoChangeEvent",
      "type": "event"
    },
    {
      "anonymous": false,
      "inputs": [],
      "name": "membersChangeEvent",
      "type": "event"
    },
    {
      "anonymous": false,
      "inputs": [
        {
          "indexed": false,
          "internalType": "uint256",
          "name": "index",
          "type": "uint256"
        }
      ],
      "name": "newMessageEvent",
      "type": "event"
    },
    {
      "anonymous": false,
      "inputs": [],
      "name": "stateChangeEvent",
      "type": "event"
    },
    {
      "constant": true,
      "inputs": [],
      "name": "date",
      "outputs": [
        {
          "internalType": "string",
          "name": "",
          "type": "string"
        }
      ],
      "payable": false,
      "stateMutability": "view",
      "type": "function"
    },
    {
      "constant": true,
      "inputs": [],
      "name": "locate",
      "outputs": [
        {
          "internalType": "string",
          "name": "",
          "type": "string"
        }
      ],
      "payable": false,
      "stateMutability": "view",
      "type": "function"
    },
    {
      "constant": true,
      "inputs": [],
      "name": "message",
      "outputs": [
        {
          "internalType": "string",
          "name": "",
          "type": "string"
        }
      ],
      "payable": false,
      "stateMutability": "view",
      "type": "function"
    },
    {
      "constant": true,
      "inputs": [],
      "name": "name",
      "outputs": [
        {
          "internalType": "string",
          "name": "",
          "type": "string"
        }
      ],
      "payable": false,
      "stateMutability": "view",
      "type": "function"
    },
    {
      "constant": true,
      "inputs": [],
      "name": "owner",
      "outputs": [
        {
          "internalType": "address",
          "name": "",
          "type": "address"
        }
      ],
      "payable": false,
      "stateMutability": "view",
      "type": "function"
    },
    {
      "constant": true,
      "inputs": [],
      "name": "state",
      "outputs": [
        {
          "internalType": "uint8",
          "name": "",
          "type": "uint8"
        }
      ],
      "payable": false,
      "stateMutability": "view",
      "type": "function"
    },
    {
      "constant": false,
      "inputs": [
        {
          "internalType": "uint8",
          "name": "_state",
          "type": "uint8"
        }
      ],
      "name": "changeState",
      "outputs": [],
      "payable": false,
      "stateMutability": "nonpayable",
      "type": "function"
    },
    {
      "constant": false,
      "inputs": [
        {
          "internalType": "string",
          "name": "_name",
          "type": "string"
        },
        {
          "internalType": "string",
          "name": "_date",
          "type": "string"
        },
        {
          "internalType": "string",
          "name": "_locate",
          "type": "string"
        },
        {
          "internalType": "string",
          "name": "_message",
          "type": "string"
        }
      ],
      "name": "changeInfo",
      "outputs": [],
      "payable": false,
      "stateMutability": "nonpayable",
      "type": "function"
    },
    {
      "constant": true,
      "inputs": [],
      "name": "getMember",
      "outputs": [
        {
          "internalType": "address[]",
          "name": "",
          "type": "address[]"
        }
      ],
      "payable": false,
      "stateMutability": "view",
      "type": "function"
    },
    {
      "constant": false,
      "inputs": [
        {
          "internalType": "address",
          "name": "addr",
          "type": "address"
        }
      ],
      "name": "join",
      "outputs": [],
      "payable": false,
      "stateMutability": "nonpayable",
      "type": "function"
    },
    {
      "constant": true,
      "inputs": [],
      "name": "getApplies",
      "outputs": [
        {
          "internalType": "address[]",
          "name": "",
          "type": "address[]"
        }
      ],
      "payable": false,
      "stateMutability": "view",
      "type": "function"
    },
    {
      "constant": false,
      "inputs": [
        {
          "internalType": "address",
          "name": "addr",
          "type": "address"
        }
      ],
      "name": "pass",
      "outputs": [],
      "payable": false,
      "stateMutability": "nonpayable",
      "type": "function"
    },
    {
      "constant": true,
      "inputs": [
        {
          "internalType": "uint256",
          "name": "index",
          "type": "uint256"
        }
      ],
      "name": "getNotification",
      "outputs": [
        {
          "internalType": "string",
          "name": "title",
          "type": "string"
        },
        {
          "internalType": "string",
          "name": "_date",
          "type": "string"
        },
        {
          "internalType": "string",
          "name": "info",
          "type": "string"
        }
      ],
      "payable": false,
      "stateMutability": "view",
      "type": "function"
    },
    {
      "constant": true,
      "inputs": [],
      "name": "getNotifiAmount",
      "outputs": [
        {
          "internalType": "uint256",
          "name": "amount",
          "type": "uint256"
        }
      ],
      "payable": false,
      "stateMutability": "view",
      "type": "function"
    },
    {
      "constant": false,
      "inputs": [
        {
          "internalType": "string",
          "name": "_title",
          "type": "string"
        },
        {
          "internalType": "string",
          "name": "_date",
          "type": "string"
        },
        {
          "internalType": "string",
          "name": "_info",
          "type": "string"
        }
      ],
      "name": "addMessage",
      "outputs": [],
      "payable": false,
      "stateMutability": "nonpayable",
      "type": "function"
    }
  ],
  "bytecode": "0x60806040523480156200001157600080fd5b506040516200266138038062002661833981810160405260808110156200003757600080fd5b81019080805160405193929190846401000000008211156200005857600080fd5b838201915060208201858111156200006f57600080fd5b82518660018202830111640100000000821117156200008d57600080fd5b8083526020830192505050908051906020019080838360005b83811015620000c3578082015181840152602081019050620000a6565b50505050905090810190601f168015620000f15780820380516001836020036101000a031916815260200191505b50604052602001805160405193929190846401000000008211156200011557600080fd5b838201915060208201858111156200012c57600080fd5b82518660018202830111640100000000821117156200014a57600080fd5b8083526020830192505050908051906020019080838360005b838110156200018057808201518184015260208101905062000163565b50505050905090810190601f168015620001ae5780820380516001836020036101000a031916815260200191505b5060405260200180516040519392919084640100000000821115620001d257600080fd5b83820191506020820185811115620001e957600080fd5b82518660018202830111640100000000821117156200020757600080fd5b8083526020830192505050908051906020019080838360005b838110156200023d57808201518184015260208101905062000220565b50505050905090810190601f1680156200026b5780820380516001836020036101000a031916815260200191505b50604052602001805160405193929190846401000000008211156200028f57600080fd5b83820191506020820185811115620002a657600080fd5b8251866001820283011164010000000082111715620002c457600080fd5b8083526020830192505050908051906020019080838360005b83811015620002fa578082015181840152602081019050620002dd565b50505050905090810190601f168015620003285780820380516001836020036101000a031916815260200191505b50604052505050336000806101000a81548173ffffffffffffffffffffffffffffffffffffffff021916908373ffffffffffffffffffffffffffffffffffffffff160217905550836001908051906020019062000387929190620003dd565b508260029080519060200190620003a0929190620003dd565b508160039080519060200190620003b9929190620003dd565b508060049080519060200190620003d2929190620003dd565b50505050506200048c565b828054600181600116156101000203166002900490600052602060002090601f016020900481019282601f106200042057805160ff191683800117855562000451565b8280016001018555821562000451579182015b828111156200045057825182559160200191906001019062000433565b5b50905062000460919062000464565b5090565b6200048991905b80821115620004855760008160009055506001016200046b565b5090565b90565b6121c5806200049c6000396000f3fe608060405234801561001057600080fd5b50600436106100f55760003560e01c8063b98464b311610097578063c34e5c8111610066578063c34e5c8114610771578063c536bdeb146107d0578063e21f37ce146107ee578063f571356c14610871576100f5565b8063b98464b314610362578063baf53e741461054b578063c153e97f146105ce578063c19d93fb1461074d576100f5565b806328ffe6c8116100d357806328ffe6c81461020d578063323046b11461025157806382c4b3b2146102d45780638da5cb5b14610318576100f5565b80630274c094146100fa57806306fdde0314610159578063268f1153146101dc575b600080fd5b610102610af1565b6040518080602001828103825283818151815260200191508051906020019060200280838360005b8381101561014557808201518184015260208101905061012a565b505050509050019250505060405180910390f35b610161610c6e565b6040518080602001828103825283818151815260200191508051906020019080838360005b838110156101a1578082015181840152602081019050610186565b50505050905090810190601f1680156101ce5780820380516001836020036101000a031916815260200191505b509250505060405180910390f35b61020b600480360360208110156101f257600080fd5b81019080803560ff169060200190929190505050610d0c565b005b61024f6004803603602081101561022357600080fd5b81019080803573ffffffffffffffffffffffffffffffffffffffff169060200190929190505050610e18565b005b610259611155565b6040518080602001828103825283818151815260200191508051906020019080838360005b8381101561029957808201518184015260208101905061027e565b50505050905090810190601f1680156102c65780820380516001836020036101000a031916815260200191505b509250505060405180910390f35b610316600480360360208110156102ea57600080fd5b81019080803573ffffffffffffffffffffffffffffffffffffffff1690602001909291905050506111f3565b005b61032061164a565b604051808273ffffffffffffffffffffffffffffffffffffffff1673ffffffffffffffffffffffffffffffffffffffff16815260200191505060405180910390f35b6105496004803603606081101561037857600080fd5b810190808035906020019064010000000081111561039557600080fd5b8201836020820111156103a757600080fd5b803590602001918460018302840111640100000000831117156103c957600080fd5b91908080601f016020809104026020016040519081016040528093929190818152602001838380828437600081840152601f19601f8201169050808301925050505050505091929192908035906020019064010000000081111561042c57600080fd5b82018360208201111561043e57600080fd5b8035906020019184600183028401116401000000008311171561046057600080fd5b91908080601f016020809104026020016040519081016040528093929190818152602001838380828437600081840152601f19601f820116905080830192505050505050509192919290803590602001906401000000008111156104c357600080fd5b8201836020820111156104d557600080fd5b803590602001918460018302840111640100000000831117156104f757600080fd5b91908080601f016020809104026020016040519081016040528093929190818152602001838380828437600081840152601f19601f82011690508083019250505050505050919291929050505061166f565b005b610553611817565b6040518080602001828103825283818151815260200191508051906020019080838360005b83811015610593578082015181840152602081019050610578565b50505050905090810190601f1680156105c05780820380516001836020036101000a031916815260200191505b509250505060405180910390f35b6105fa600480360360208110156105e457600080fd5b81019080803590602001909291905050506118b5565b60405180806020018060200180602001848103845287818151815260200191508051906020019080838360005b83811015610642578082015181840152602081019050610627565b50505050905090810190601f16801561066f5780820380516001836020036101000a031916815260200191505b50848103835286818151815260200191508051906020019080838360005b838110156106a857808201518184015260208101905061068d565b50505050905090810190601f1680156106d55780820380516001836020036101000a031916815260200191505b50848103825285818151815260200191508051906020019080838360005b8381101561070e5780820151818401526020810190506106f3565b50505050905090810190601f16801561073b5780820380516001836020036101000a031916815260200191505b50965050505050505060405180910390f35b610755611be4565b604051808260ff1660ff16815260200191505060405180910390f35b610779611bf7565b6040518080602001828103825283818151815260200191508051906020019060200280838360005b838110156107bc5780820151818401526020810190506107a1565b505050509050019250505060405180910390f35b6107d8611d2a565b6040518082815260200191505060405180910390f35b6107f6611e26565b6040518080602001828103825283818151815260200191508051906020019080838360005b8381101561083657808201518184015260208101905061081b565b50505050905090810190601f1680156108635780820380516001836020036101000a031916815260200191505b509250505060405180910390f35b610aef6004803603608081101561088757600080fd5b81019080803590602001906401000000008111156108a457600080fd5b8201836020820111156108b657600080fd5b803590602001918460018302840111640100000000831117156108d857600080fd5b91908080601f016020809104026020016040519081016040528093929190818152602001838380828437600081840152601f19601f8201169050808301925050505050505091929192908035906020019064010000000081111561093b57600080fd5b82018360208201111561094d57600080fd5b8035906020019184600183028401116401000000008311171561096f57600080fd5b91908080601f016020809104026020016040519081016040528093929190818152602001838380828437600081840152601f19601f820116905080830192505050505050509192919290803590602001906401000000008111156109d257600080fd5b8201836020820111156109e457600080fd5b80359060200191846001830284011164010000000083111715610a0657600080fd5b91908080601f016020809104026020016040519081016040528093929190818152602001838380828437600081840152601f19601f82011690508083019250505050505050919291929080359060200190640100000000811115610a6957600080fd5b820183602082011115610a7b57600080fd5b80359060200191846001830284011164010000000083111715610a9d57600080fd5b91908080601f016020809104026020016040519081016040528093929190818152602001838380828437600081840152601f19601f820116905080830192505050505050509192919290505050611ec4565b005b606033600080905060008090505b600680549050811015610b89578273ffffffffffffffffffffffffffffffffffffffff1660068281548110610b3057fe5b9060005260206000200160009054906101000a900473ffffffffffffffffffffffffffffffffffffffff1673ffffffffffffffffffffffffffffffffffffffff161415610b7c57600191505b8080600101915050610aff565b5080610be0576040517f08c379a000000000000000000000000000000000000000000000000000000000815260040180806020018281038252603681526020018061215b6036913960400191505060405180910390fd5b6006805480602002602001604051908101604052809291908181526020018280548015610c6257602002820191906000526020600020905b8160009054906101000a900473ffffffffffffffffffffffffffffffffffffffff1673ffffffffffffffffffffffffffffffffffffffff1681526020019060010190808311610c18575b50505050509250505090565b60018054600181600116156101000203166002900480601f016020809104026020016040519081016040528092919081815260200182805460018160011615610100020316600290048015610d045780601f10610cd957610100808354040283529160200191610d04565b820191906000526020600020905b815481529060010190602001808311610ce757829003601f168201915b505050505081565b6000809054906101000a900473ffffffffffffffffffffffffffffffffffffffff1673ffffffffffffffffffffffffffffffffffffffff163373ffffffffffffffffffffffffffffffffffffffff1614610dce576040517f08c379a000000000000000000000000000000000000000000000000000000000815260040180806020018281038252601e8152602001807fe6b2a1e69c89e69d83e99990e4bfaee694b9e6b4bbe58aa8e78ab6e68081000081525060200191505060405180910390fd5b80600560006101000a81548160ff021916908360ff1602179055507f2b5ee22f91457629e41f4592a9a6aafd4e4e2177daa5fb15b60017f0ca2476a960405160405180910390a150565b60008060009054906101000a900473ffffffffffffffffffffffffffffffffffffffff1690508073ffffffffffffffffffffffffffffffffffffffff1663a230c524836040518263ffffffff1660e01b8152600401808273ffffffffffffffffffffffffffffffffffffffff1673ffffffffffffffffffffffffffffffffffffffff16815260200191505060206040518083038186803b158015610ebb57600080fd5b505afa158015610ecf573d6000803e3d6000fd5b505050506040513d6020811015610ee557600080fd5b8101908080519060200190929190505050156110585760068290806001815401808255809150509060018203906000526020600020016000909192909190916101000a81548173ffffffffffffffffffffffffffffffffffffffff021916908373ffffffffffffffffffffffffffffffffffffffff1602179055505060008290508073ffffffffffffffffffffffffffffffffffffffff166333857a016040518163ffffffff1660e01b8152600401600060405180830381600087803b158015610fae57600080fd5b505af1158015610fc2573d6000803e3d6000fd5b505050508073ffffffffffffffffffffffffffffffffffffffff1663caee18cd6040518163ffffffff1660e01b8152600401600060405180830381600087803b15801561100e57600080fd5b505af1158015611022573d6000803e3d6000fd5b505050507f57c67a3af2fbc4eaca529d5e2772f20529ac07398c866f6ca268298ef577106260405160405180910390a150611151565b60078290806001815401808255809150509060018203906000526020600020016000909192909190916101000a81548173ffffffffffffffffffffffffffffffffffffffff021916908373ffffffffffffffffffffffffffffffffffffffff1602179055505060008290508073ffffffffffffffffffffffffffffffffffffffff166333857a016040518163ffffffff1660e01b8152600401600060405180830381600087803b15801561110b57600080fd5b505af115801561111f573d6000803e3d6000fd5b505050507fe52d635450089f4fe7af7689328e30b18b95687fb5fc0657ca1e8e9dd14b040660405160405180910390a1505b5050565b60028054600181600116156101000203166002900480601f0160208091040260200160405190810160405280929190818152602001828054600181600116156101000203166002900480156111eb5780601f106111c0576101008083540402835291602001916111eb565b820191906000526020600020905b8154815290600101906020018083116111ce57829003601f168201915b505050505081565b80600080905060008090505b600780549050811015611289578273ffffffffffffffffffffffffffffffffffffffff166007828154811061123057fe5b9060005260206000200160009054906101000a900473ffffffffffffffffffffffffffffffffffffffff1673ffffffffffffffffffffffffffffffffffffffff16141561127c57600191505b80806001019150506111ff565b50806112fd576040517f08c379a000000000000000000000000000000000000000000000000000000000815260040180806020018281038252601b8152602001807fe8afa5e68890e59198e6b2a1e69c89e68f90e4baa4e794b3e8afb7000000000081525060200191505060405180910390fd5b6000809054906101000a900473ffffffffffffffffffffffffffffffffffffffff1673ffffffffffffffffffffffffffffffffffffffff163373ffffffffffffffffffffffffffffffffffffffff16146113bf576040517f08c379a000000000000000000000000000000000000000000000000000000000815260040180806020018281038252601e8152602001807fe682a8e6b2a1e69c89e69d83e99990e8bf9be8a18ce6ada4e6938de4bd9c000081525060200191505060405180910390fd5b60008090505b600780549050811015611644578373ffffffffffffffffffffffffffffffffffffffff16600782815481106113f657fe5b9060005260206000200160009054906101000a900473ffffffffffffffffffffffffffffffffffffffff1673ffffffffffffffffffffffffffffffffffffffff1614156116375760008490508073ffffffffffffffffffffffffffffffffffffffff1663caee18cd6040518163ffffffff1660e01b8152600401600060405180830381600087803b15801561148a57600080fd5b505af115801561149e573d6000803e3d6000fd5b505050506007600160078054905003815481106114b757fe5b9060005260206000200160009054906101000a900473ffffffffffffffffffffffffffffffffffffffff16600783815481106114ef57fe5b9060005260206000200160006101000a81548173ffffffffffffffffffffffffffffffffffffffff021916908373ffffffffffffffffffffffffffffffffffffffff160217905550600780548061154257fe5b6001900381819060005260206000200160006101000a81549073ffffffffffffffffffffffffffffffffffffffff0219169055905560068590806001815401808255809150509060018203906000526020600020016000909192909190916101000a81548173ffffffffffffffffffffffffffffffffffffffff021916908373ffffffffffffffffffffffffffffffffffffffff160217905550507f57c67a3af2fbc4eaca529d5e2772f20529ac07398c866f6ca268298ef577106260405160405180910390a17fe52d635450089f4fe7af7689328e30b18b95687fb5fc0657ca1e8e9dd14b040660405160405180910390a1505b80806001019150506113c5565b50505050565b6000809054906101000a900473ffffffffffffffffffffffffffffffffffffffff1681565b6000809054906101000a900473ffffffffffffffffffffffffffffffffffffffff1673ffffffffffffffffffffffffffffffffffffffff163373ffffffffffffffffffffffffffffffffffffffff1614611731576040517f08c379a00000000000000000000000000000000000000000000000000000000081526004018080602001828103825260128152602001807fe697a0e69d83e58f91e98081e9809ae79fa5000000000000000000000000000081525060200191505060405180910390fd5b6008604051806060016040528085815260200184815260200183815250908060018154018082558091505090600182039060005260206000209060030201600090919290919091506000820151816000019080519060200190611795929190612014565b5060208201518160010190805190602001906117b2929190612014565b5060408201518160020190805190602001906117cf929190612014565b505050507f44cbc4ee4dcf9a162ffec2b31e2bfc043ba2bfae96f112752804672065535b326001600880549050036040518082815260200191505060405180910390a1505050565b60038054600181600116156101000203166002900480601f0160208091040260200160405190810160405280929190818152602001828054600181600116156101000203166002900480156118ad5780601f10611882576101008083540402835291602001916118ad565b820191906000526020600020905b81548152906001019060200180831161189057829003601f168201915b505050505081565b606080606033600080905060008090505b600680549050811015611950578273ffffffffffffffffffffffffffffffffffffffff16600682815481106118f757fe5b9060005260206000200160009054906101000a900473ffffffffffffffffffffffffffffffffffffffff1673ffffffffffffffffffffffffffffffffffffffff16141561194357600191505b80806001019150506118c6565b50806119a7576040517f08c379a000000000000000000000000000000000000000000000000000000000815260040180806020018281038252603681526020018061215b6036913960400191505060405180910390fd5b600886815481106119b457fe5b9060005260206000209060030201600001600887815481106119d257fe5b9060005260206000209060030201600101600888815481106119f057fe5b9060005260206000209060030201600201828054600181600116156101000203166002900480601f016020809104026020016040519081016040528092919081815260200182805460018160011615610100020316600290048015611a965780601f10611a6b57610100808354040283529160200191611a96565b820191906000526020600020905b815481529060010190602001808311611a7957829003601f168201915b50505050509250818054600181600116156101000203166002900480601f016020809104026020016040519081016040528092919081815260200182805460018160011615610100020316600290048015611b325780601f10611b0757610100808354040283529160200191611b32565b820191906000526020600020905b815481529060010190602001808311611b1557829003601f168201915b50505050509150808054600181600116156101000203166002900480601f016020809104026020016040519081016040528092919081815260200182805460018160011615610100020316600290048015611bce5780601f10611ba357610100808354040283529160200191611bce565b820191906000526020600020905b815481529060010190602001808311611bb157829003601f168201915b5050505050905094509450945050509193909250565b600560009054906101000a900460ff1681565b60606000809054906101000a900473ffffffffffffffffffffffffffffffffffffffff1673ffffffffffffffffffffffffffffffffffffffff163373ffffffffffffffffffffffffffffffffffffffff1614611c9e576040517f08c379a000000000000000000000000000000000000000000000000000000000815260040180806020018281038252602181526020018061213a6021913960400191505060405180910390fd5b6007805480602002602001604051908101604052809291908181526020018280548015611d2057602002820191906000526020600020905b8160009054906101000a900473ffffffffffffffffffffffffffffffffffffffff1673ffffffffffffffffffffffffffffffffffffffff1681526020019060010190808311611cd6575b5050505050905090565b600033600080905060008090505b600680549050811015611dc2578273ffffffffffffffffffffffffffffffffffffffff1660068281548110611d6957fe5b9060005260206000200160009054906101000a900473ffffffffffffffffffffffffffffffffffffffff1673ffffffffffffffffffffffffffffffffffffffff161415611db557600191505b8080600101915050611d38565b5080611e19576040517f08c379a000000000000000000000000000000000000000000000000000000000815260040180806020018281038252603681526020018061215b6036913960400191505060405180910390fd5b6008805490509250505090565b60048054600181600116156101000203166002900480601f016020809104026020016040519081016040528092919081815260200182805460018160011615610100020316600290048015611ebc5780601f10611e9157610100808354040283529160200191611ebc565b820191906000526020600020905b815481529060010190602001808311611e9f57829003601f168201915b505050505081565b6000809054906101000a900473ffffffffffffffffffffffffffffffffffffffff1673ffffffffffffffffffffffffffffffffffffffff163373ffffffffffffffffffffffffffffffffffffffff1614611f86576040517f08c379a00000000000000000000000000000000000000000000000000000000081526004018080602001828103825260188152602001807fe697a0e69d83e4bfaee694b9e6b4bbe58aa8e4bfa1e681af000000000000000081525060200191505060405180910390fd5b8360019080519060200190611f9c929190612094565b508260029080519060200190611fb3929190612094565b508160039080519060200190611fca929190612094565b508060049080519060200190611fe1929190612094565b507fb4580b6746e682457655cce57228aa50a1598359f2e37f064243e60937903b5060405160405180910390a150505050565b828054600181600116156101000203166002900490600052602060002090601f016020900481019282601f1061205557805160ff1916838001178555612083565b82800160010185558215612083579182015b82811115612082578251825591602001919060010190612067565b5b5090506120909190612114565b5090565b828054600181600116156101000203166002900490600052602060002090601f016020900481019282601f106120d557805160ff1916838001178555612103565b82800160010185558215612103579182015b828111156121025782518255916020019190600101906120e7565b5b5090506121109190612114565b5090565b61213691905b8082111561213257600081600090555060010161211a565b5090565b9056fee682a8e6b2a1e69c89e69d83e99990e69fa5e8afa2e794b3e8afb7e58897e8a1a8e4b88de698afe6b4bbe58aa8e68890e59198efbc8ce8afb7e58588e58aa0e585a5e6b4bbe58aa8e5868de8bf9be8a18ce6938de4bd9ca265627a7a7231582000946db97e0b09842b12a37eed38d137d4d1f0cd2e12a837944650773b2702a164736f6c63430005100032",
  "source": "pragma solidity ^0.5.0;\n\nimport \"../roles/Club.sol\";\nimport \"../roles/User.sol\";\n\n\ncontract Activity {\n    address public owner; //\n    string public name; //\n    string public date; //\n    string public locate; //\n    string public message; //\n\n    uint8 public state; //0 1 2 3 \n\n    //////////////////////////////////////////////////\n    ///////////////////////////////////////////////\n    //////////////////////////////////////////////////\n\n    //\n    // modifier onlyMember(address addr) {\n    //     Club club = Club(owner);\n    //     require(club.isMember(addr),\"\");\n    // }\n\n    //\n    modifier onlyMember(address addr) {\n        bool flag = false;\n        for (uint256 i = 0; i < members.length; i++) {\n            if (members[i] == addr) {\n                flag = true;\n            }\n        }\n        require(flag, \"\");\n        _;\n    }\n\n    modifier onlyApplicant(address addr) {\n        bool flag = false;\n        for (uint256 i = 0; i < applicants.length; i++) {\n            if (applicants[i] == addr) {\n                flag = true;\n            }\n        }\n        require(flag, \"\");\n        _;\n    }\n\n    //////////////////////////////////////////////////\n    ///////////////////////////////////////////\n    //////////////////////////////////////////////////\n\n    constructor(\n        string memory _name,\n        string memory _date,\n        string memory _locate,\n        string memory _message\n    ) public {\n        owner = msg.sender;\n        name = _name;\n        date = _date;\n        locate = _locate;\n        message = _message;\n    }\n\n    //////////////////////////////////////////////////\n    ///////////////////////////////////////////\n    //////////////////////////////////////////////////\n\n    //\n    event stateChangeEvent();\n\n    function changeState(uint8 _state) public {\n        require(msg.sender == owner, \"\");\n        state = _state;\n\n        emit stateChangeEvent();\n    }\n\n    //\n    event infoChangeEvent();\n\n    function changeInfo(\n        string memory _name,\n        string memory _date,\n        string memory _locate,\n        string memory _message\n    ) public {\n        //\n        require(msg.sender == owner, \"\");\n        name = _name;\n        date = _date;\n        locate = _locate;\n        message = _message;\n\n        emit infoChangeEvent();\n    }\n\n    //////////////////////////////////////////////////\n    ////////////////////////////////////////\n    //////////////////////////////////////////////////\n    //\n    function getMember()\n        public\n        view\n        onlyMember(msg.sender)\n        returns (address[] memory)\n    {\n        return members;\n    }\n\n    //////////////////////////////////////////////////\n    ////////////////////////////////////////////\n    //////////////////////////////////////////////////\n\n    address[] members; //\n    address[] applicants; //\n\n    ///\n    event membersChangeEvent();\n\n    function join(address addr) public {\n        Club club = Club(owner);\n        if (club.isMember(addr)) {\n            //\n            //\n            members.push(addr);\n            //user\n            User user = User(addr);\n            user.actApply();\n            user.actPass();\n\n            emit membersChangeEvent();\n        } else {\n            //\n            //\n            applicants.push(addr);\n            //user\n            User user = User(addr);\n            user.actApply();\n\n            emit applicantsChangeEvent();\n        }\n    }\n\n    //\n    function getApplies() public view returns (address[] memory) {\n        require(msg.sender == owner, \"\");\n        return applicants;\n    }\n\n    //\n    event applicantsChangeEvent();\n\n    function pass(address addr) public onlyApplicant(addr) {\n        require(msg.sender == owner, \"\");\n        for (uint256 i = 0; i < applicants.length; i++) {\n            if (applicants[i] == addr) {\n                User user = User(addr);\n                user.actPass();\n\n                //\n                applicants[i] = applicants[applicants.length - 1];\n                applicants.pop();\n                //\n                members.push(addr);\n\n                emit membersChangeEvent();\n                emit applicantsChangeEvent();\n            }\n        }\n    }\n\n    //////////////////////////////////////////////////\n    //////////////////////////////////////////////\n    //////////////////////////////////////////////////\n\n    notification[] notifications; //\n    struct notification {\n        string title;\n        string date; //yyyy-MM-dd-hh-mm-ss\n        string info;\n    }\n\n    function getNotification(uint256 index)\n        public\n        view\n        onlyMember(msg.sender)\n        returns (string memory title, string memory _date, string memory info)\n    {\n        return (\n            notifications[index].title,\n            notifications[index].date,\n            notifications[index].info\n        );\n    }\n\n    function getNotifiAmount()\n        public\n        view\n        onlyMember(msg.sender)\n        returns (uint256 amount)\n    {\n        return notifications.length;\n    }\n\n    //\n    event newMessageEvent(uint256 index);\n\n    function addMessage(\n        string memory _title,\n        string memory _date,\n        string memory _info\n    ) public {\n        require(msg.sender == owner, \"\");\n        notifications.push(\n            notification({title: _title, date: _date, info: _info})\n        );\n\n        emit newMessageEvent(notifications.length - 1);\n    }\n}\n",
  "sourcePath": "/home/xuhao/CMS/contracts/entities/Activity.sol",
  "compiler": {
    "name": "solc",
    "version": "0.5.16+commit.9c3226ce.Emscripten.clang"
  },
  "schemaVersion": "3.0.23",
  "updatedAt": "2020-04-07T08:55:18.749Z",
  "devdoc": {
    "methods": {}
  },
  "userdoc": {
    "methods": {
      "constructor": "/////////////////////////////////////////////// //////////////////////////////////////// ///////////////////////////////////////////////",
      "getMember()": {
        "notice": "/////////////////////////////////////////////// ///////////////////////////////////// ///////////////////////////////////////////////"
      }
    }
  }
}