{
  "contractName": "Club",
  "abi": [
    {
      "inputs": [
        {
          "internalType": "bytes32",
          "name": "_name",
          "type": "bytes32"
        },
        {
          "internalType": "address",
          "name": "_presidium",
          "type": "address"
        }
      ],
      "payable": false,
      "stateMutability": "nonpayable",
      "type": "constructor"
    },
    {
      "anonymous": false,
      "inputs": [
        {
          "indexed": false,
          "internalType": "address",
          "name": "_newMember",
          "type": "address"
        }
      ],
      "name": "newMember",
      "type": "event"
    },
    {
      "constant": true,
      "inputs": [
        {
          "internalType": "uint256",
          "name": "",
          "type": "uint256"
        }
      ],
      "name": "ministers",
      "outputs": [
        {
          "internalType": "address",
          "name": "",
          "type": "address"
        }
      ],
      "payable": false,
      "stateMutability": "view",
      "type": "function"
    },
    {
      "constant": true,
      "inputs": [],
      "name": "name",
      "outputs": [
        {
          "internalType": "bytes32",
          "name": "",
          "type": "bytes32"
        }
      ],
      "payable": false,
      "stateMutability": "view",
      "type": "function"
    },
    {
      "constant": true,
      "inputs": [],
      "name": "presidium",
      "outputs": [
        {
          "internalType": "address",
          "name": "",
          "type": "address"
        }
      ],
      "payable": false,
      "stateMutability": "view",
      "type": "function"
    },
    {
      "constant": false,
      "inputs": [
        {
          "internalType": "string",
          "name": "message",
          "type": "string"
        }
      ],
      "name": "applyForJoin",
      "outputs": [],
      "payable": false,
      "stateMutability": "nonpayable",
      "type": "function"
    },
    {
      "constant": true,
      "inputs": [],
      "name": "getApplyAmount",
      "outputs": [
        {
          "internalType": "uint256",
          "name": "",
          "type": "uint256"
        }
      ],
      "payable": false,
      "stateMutability": "view",
      "type": "function"
    },
    {
      "constant": true,
      "inputs": [
        {
          "internalType": "uint256",
          "name": "index",
          "type": "uint256"
        }
      ],
      "name": "getApply",
      "outputs": [
        {
          "internalType": "string",
          "name": "",
          "type": "string"
        }
      ],
      "payable": false,
      "stateMutability": "view",
      "type": "function"
    },
    {
      "constant": false,
      "inputs": [
        {
          "internalType": "uint256",
          "name": "index",
          "type": "uint256"
        },
        {
          "internalType": "bool",
          "name": "pass",
          "type": "bool"
        }
      ],
      "name": "reviewApply",
      "outputs": [],
      "payable": false,
      "stateMutability": "nonpayable",
      "type": "function"
    }
  ],
  "bytecode": "0x608060405234801561001057600080fd5b50604051610ed0380380610ed08339818101604052604081101561003357600080fd5b8101908080519060200190929190805190602001909291905050508160008190555080600160006101000a81548173ffffffffffffffffffffffffffffffffffffffff021916908373ffffffffffffffffffffffffffffffffffffffff1602179055505050610e29806100a76000396000f3fe608060405234801561001057600080fd5b506004361061007d5760003560e01c80636d76325e1161005b5780636d76325e146102025780636f33eed01461023c5780636f971f2a1461025a578063ab779c45146102c85761007d565b806306fdde0314610082578063073b8d8c146100a05780630af2ef1a14610147575b600080fd5b61008a610312565b6040518082815260200191505060405180910390f35b6100cc600480360360208110156100b657600080fd5b8101908080359060200190929190505050610318565b6040518080602001828103825283818151815260200191508051906020019080838360005b8381101561010c5780820151818401526020810190506100f1565b50505050905090810190601f1680156101395780820380516001836020036101000a031916815260200191505b509250505060405180910390f35b6102006004803603602081101561015d57600080fd5b810190808035906020019064010000000081111561017a57600080fd5b82018360208201111561018c57600080fd5b803590602001918460018302840111640100000000831117156101ae57600080fd5b91908080601f016020809104026020016040519081016040528093929190818152602001838380828437600081840152601f19601f8201169050808301925050505050505091929192905050506104f3565b005b61023a6004803603604081101561021857600080fd5b81019080803590602001909291908035151590602001909291905050506108de565b005b610244610c1d565b6040518082815260200191505060405180910390f35b6102866004803603602081101561027057600080fd5b8101908080359060200190929190505050610ced565b604051808273ffffffffffffffffffffffffffffffffffffffff1673ffffffffffffffffffffffffffffffffffffffff16815260200191505060405180910390f35b6102d0610d29565b604051808273ffffffffffffffffffffffffffffffffffffffff1673ffffffffffffffffffffffffffffffffffffffff16815260200191505060405180910390f35b60005481565b6060600160009054906101000a900473ffffffffffffffffffffffffffffffffffffffff1673ffffffffffffffffffffffffffffffffffffffff163373ffffffffffffffffffffffffffffffffffffffff16146103dd576040517f08c379a00000000000000000000000000000000000000000000000000000000081526004018080602001828103825260188152602001807fe58faae69c89e4b8bbe5b8ade69c89e69d83e6938de4bd9c000000000000000081525060200191505060405180910390fd5b60056000600484815481106103ee57fe5b9060005260206000200160009054906101000a900473ffffffffffffffffffffffffffffffffffffffff1673ffffffffffffffffffffffffffffffffffffffff1673ffffffffffffffffffffffffffffffffffffffff1681526020019081526020016000208054600181600116156101000203166002900480601f0160208091040260200160405190810160405280929190818152602001828054600181600116156101000203166002900480156104e75780601f106104bc576101008083540402835291602001916104e7565b820191906000526020600020905b8154815290600101906020018083116104ca57829003601f168201915b50505050509050919050565b60003390508073ffffffffffffffffffffffffffffffffffffffff16635d8d15856040518163ffffffff1660e01b815260040160006040518083038186803b15801561053e57600080fd5b505afa158015610552573d6000803e3d6000fd5b505050506040513d6000823e3d601f19601f8201168201806040525060e081101561057c57600080fd5b81019080805190602001909291908051906020019092919080519060200190929190805160405193929190846401000000008211156105ba57600080fd5b838201915060208201858111156105d057600080fd5b82518660018202830111640100000000821117156105ed57600080fd5b8083526020830192505050908051906020019080838360005b83811015610621578082015181840152602081019050610606565b50505050905090810190601f16801561064e5780820380516001836020036101000a031916815260200191505b50604052602001805190602001909291908051604051939291908464010000000082111561067b57600080fd5b8382019150602082018581111561069157600080fd5b82518660208202830111640100000000821117156106ae57600080fd5b8083526020830192505050908051906020019060200280838360005b838110156106e55780820151818401526020810190506106ca565b505050509050016040526020018051604051939291908464010000000082111561070e57600080fd5b8382019150602082018581111561072457600080fd5b825186602082028301116401000000008211171561074157600080fd5b8083526020830192505050908051906020019060200280838360005b8381101561077857808201518184015260208101905061075d565b505050509050016040525050505050505050505060008090505b60048054905081101561081e573373ffffffffffffffffffffffffffffffffffffffff16600482815481106107c357fe5b9060005260206000200160009054906101000a900473ffffffffffffffffffffffffffffffffffffffff1673ffffffffffffffffffffffffffffffffffffffff1614156108115750506108db565b8080600101915050610792565b5060043390806001815401808255809150509060018203906000526020600020016000909192909190916101000a81548173ffffffffffffffffffffffffffffffffffffffff021916908373ffffffffffffffffffffffffffffffffffffffff1602179055505081600560003373ffffffffffffffffffffffffffffffffffffffff1673ffffffffffffffffffffffffffffffffffffffff16815260200190815260200160002090805190602001906108d8929190610d4f565b50505b50565b600160009054906101000a900473ffffffffffffffffffffffffffffffffffffffff1673ffffffffffffffffffffffffffffffffffffffff163373ffffffffffffffffffffffffffffffffffffffff16146109a1576040517f08c379a00000000000000000000000000000000000000000000000000000000081526004018080602001828103825260188152602001807fe58faae69c89e4b8bbe5b8ade69c89e69d83e6938de4bd9c000000000000000081525060200191505060405180910390fd5b6000600483815481106109b057fe5b9060005260206000200160009054906101000a900473ffffffffffffffffffffffffffffffffffffffff1690508115610ae2578073ffffffffffffffffffffffffffffffffffffffff16638f4bd3266040518163ffffffff1660e01b8152600401600060405180830381600087803b158015610a2b57600080fd5b505af1158015610a3f573d6000803e3d6000fd5b505050507f5cafbafb4f314569b4ebe4c412879f191df200750075cce69035fcaf39d4f19460048481548110610a7157fe5b9060005260206000200160009054906101000a900473ffffffffffffffffffffffffffffffffffffffff16604051808273ffffffffffffffffffffffffffffffffffffffff1673ffffffffffffffffffffffffffffffffffffffff16815260200191505060405180910390a1610b43565b8073ffffffffffffffffffffffffffffffffffffffff1663fb9a07cc6040518163ffffffff1660e01b8152600401600060405180830381600087803b158015610b2a57600080fd5b505af1158015610b3e573d6000803e3d6000fd5b505050505b600460016004805490500381548110610b5857fe5b9060005260206000200160009054906101000a900473ffffffffffffffffffffffffffffffffffffffff1660048481548110610b9057fe5b9060005260206000200160006101000a81548173ffffffffffffffffffffffffffffffffffffffff021916908373ffffffffffffffffffffffffffffffffffffffff1602179055506004805480610be357fe5b6001900381819060005260206000200160006101000a81549073ffffffffffffffffffffffffffffffffffffffff02191690559055505050565b6000600160009054906101000a900473ffffffffffffffffffffffffffffffffffffffff1673ffffffffffffffffffffffffffffffffffffffff163373ffffffffffffffffffffffffffffffffffffffff1614610ce2576040517f08c379a00000000000000000000000000000000000000000000000000000000081526004018080602001828103825260188152602001807fe58faae69c89e4b8bbe5b8ade69c89e69d83e6938de4bd9c000000000000000081525060200191505060405180910390fd5b600480549050905090565b60028181548110610cfa57fe5b906000526020600020016000915054906101000a900473ffffffffffffffffffffffffffffffffffffffff1681565b600160009054906101000a900473ffffffffffffffffffffffffffffffffffffffff1681565b828054600181600116156101000203166002900490600052602060002090601f016020900481019282601f10610d9057805160ff1916838001178555610dbe565b82800160010185558215610dbe579182015b82811115610dbd578251825591602001919060010190610da2565b5b509050610dcb9190610dcf565b5090565b610df191905b80821115610ded576000816000905550600101610dd5565b5090565b9056fea265627a7a72315820773eb02054e793bf4b7d5523b9c488c0a5a376ba7f3f55e85e7d56124e9264db64736f6c63430005100032",
  "source": "pragma solidity ^0.5.0;\n\nimport \"./User.sol\";\n\ncontract Club {\n    ////////社团信息/////////////\n    bytes32 public name; //社团名称\n\n    address public presidium; //主席，存储个人地址\n    address[] public ministers; //部长列表，存储个人地址\n    address[] members; //成员列表，存储个人地址\n\n    address[] applicants; //申请加入社团的列表\n    mapping(address => string) applicantsMsg; //申请人的申请信息\n    /////////权限检查//////////\n\n    modifier onlyPresidium() {\n        require(msg.sender == presidium, \"只有主席有权操作\");\n        _;\n    }\n    //////////////////////////\n\n    //////////事件/////////////\n\n    event newMember(address _newMember);\n\n    //////////////////////////\n    //////////函数/////////////\n\n    constructor(bytes32 _name, address _presidium) public {\n        name = _name;\n        presidium = _presidium;\n    }\n\n    function applyForJoin(string memory message) public {\n        //检查是否允许访问个人信息\n        User user = User(msg.sender);\n        user.getUserInfo(); //没有权限事务将回滚，申请自动失败\n        //加入申请列表\n        //防止重复添加\n        for (uint256 i = 0; i < applicants.length; i++) {\n            if (applicants[i] == msg.sender) {\n                return;\n            }\n        }\n        applicants.push(msg.sender);\n        applicantsMsg[msg.sender] = message;\n    }\n\n    //获取申请的总数\n    function getApplyAmount() public view onlyPresidium returns (uint256) {\n        return applicants.length;\n    }\n\n    //获取特定的申请\n    function getApply(uint256 index)\n        public\n        view\n        onlyPresidium\n        returns (string memory)\n    {\n        return applicantsMsg[applicants[index]];\n    }\n\n    //审核特定的申请\n    function reviewApply(uint256 index, bool pass) public onlyPresidium {\n        User user = User(applicants[index]);\n        if (pass) {\n            //调用user的applyPass\n            user.applyPass();\n            //触发事件\n            emit newMember(applicants[index]);\n        } else {\n            user.applyRefus();\n        }\n\n        //移除申请信息\n        applicants[index] = applicants[applicants.length - 1];\n        applicants.pop();\n    }\n}\n",
  "sourcePath": "/Users/xuhao/dapps/CMS/contracts/roles/Club.sol",
  "compiler": {
    "name": "solc",
    "version": "0.5.16+commit.9c3226ce.Emscripten.clang"
  },
  "schemaVersion": "3.0.23",
  "updatedAt": "2020-03-26T07:30:21.009Z",
  "devdoc": {
    "methods": {}
  },
  "userdoc": {
    "methods": {
      "constructor": "/////////////////////// ///////函数/////////////"
    }
  }
}