{
  "contractName": "Club",
  "abi": [
    {
      "inputs": [
        {
          "internalType": "bytes32",
          "name": "_name",
          "type": "bytes32"
        },
        {
          "internalType": "address",
          "name": "_presidium",
          "type": "address"
        }
      ],
      "payable": false,
      "stateMutability": "nonpayable",
      "type": "constructor"
    },
    {
      "anonymous": false,
      "inputs": [],
      "name": "memberChangeEvent",
      "type": "event"
    },
    {
      "anonymous": false,
      "inputs": [],
      "name": "ministerChangeEvent",
      "type": "event"
    },
    {
      "anonymous": false,
      "inputs": [
        {
          "indexed": false,
          "internalType": "address",
          "name": "addr",
          "type": "address"
        }
      ],
      "name": "newActEvent",
      "type": "event"
    },
    {
      "anonymous": false,
      "inputs": [
        {
          "indexed": false,
          "internalType": "uint256",
          "name": "index",
          "type": "uint256"
        }
      ],
      "name": "newMessageEvent",
      "type": "event"
    },
    {
      "anonymous": false,
      "inputs": [
        {
          "indexed": false,
          "internalType": "address",
          "name": "vote",
          "type": "address"
        }
      ],
      "name": "newVoteEvent",
      "type": "event"
    },
    {
      "anonymous": false,
      "inputs": [
        {
          "indexed": false,
          "internalType": "address",
          "name": "vote",
          "type": "address"
        }
      ],
      "name": "votingEndEvent",
      "type": "event"
    },
    {
      "anonymous": false,
      "inputs": [
        {
          "indexed": false,
          "internalType": "address",
          "name": "vote",
          "type": "address"
        }
      ],
      "name": "votingStartEvent",
      "type": "event"
    },
    {
      "constant": true,
      "inputs": [
        {
          "internalType": "uint256",
          "name": "",
          "type": "uint256"
        }
      ],
      "name": "ministers",
      "outputs": [
        {
          "internalType": "address",
          "name": "",
          "type": "address"
        }
      ],
      "payable": false,
      "stateMutability": "view",
      "type": "function"
    },
    {
      "constant": true,
      "inputs": [],
      "name": "name",
      "outputs": [
        {
          "internalType": "bytes32",
          "name": "",
          "type": "bytes32"
        }
      ],
      "payable": false,
      "stateMutability": "view",
      "type": "function"
    },
    {
      "constant": true,
      "inputs": [],
      "name": "presidium",
      "outputs": [
        {
          "internalType": "address",
          "name": "",
          "type": "address"
        }
      ],
      "payable": false,
      "stateMutability": "view",
      "type": "function"
    },
    {
      "constant": false,
      "inputs": [
        {
          "internalType": "string",
          "name": "message",
          "type": "string"
        }
      ],
      "name": "applyForJoin",
      "outputs": [],
      "payable": false,
      "stateMutability": "nonpayable",
      "type": "function"
    },
    {
      "constant": true,
      "inputs": [],
      "name": "getApplyAmount",
      "outputs": [
        {
          "internalType": "uint256",
          "name": "",
          "type": "uint256"
        }
      ],
      "payable": false,
      "stateMutability": "view",
      "type": "function"
    },
    {
      "constant": true,
      "inputs": [
        {
          "internalType": "uint256",
          "name": "index",
          "type": "uint256"
        }
      ],
      "name": "getApply",
      "outputs": [
        {
          "internalType": "string",
          "name": "",
          "type": "string"
        }
      ],
      "payable": false,
      "stateMutability": "view",
      "type": "function"
    },
    {
      "constant": false,
      "inputs": [
        {
          "internalType": "uint256",
          "name": "index",
          "type": "uint256"
        },
        {
          "internalType": "bool",
          "name": "pass",
          "type": "bool"
        }
      ],
      "name": "reviewApply",
      "outputs": [],
      "payable": false,
      "stateMutability": "nonpayable",
      "type": "function"
    },
    {
      "constant": false,
      "inputs": [],
      "name": "withdraw",
      "outputs": [],
      "payable": false,
      "stateMutability": "nonpayable",
      "type": "function"
    },
    {
      "constant": false,
      "inputs": [
        {
          "internalType": "address",
          "name": "mini",
          "type": "address"
        }
      ],
      "name": "appointMinisters",
      "outputs": [],
      "payable": false,
      "stateMutability": "nonpayable",
      "type": "function"
    },
    {
      "constant": false,
      "inputs": [
        {
          "internalType": "address",
          "name": "mini",
          "type": "address"
        }
      ],
      "name": "dismisstMinisters",
      "outputs": [],
      "payable": false,
      "stateMutability": "nonpayable",
      "type": "function"
    },
    {
      "constant": false,
      "inputs": [],
      "name": "selfDismiss",
      "outputs": [],
      "payable": false,
      "stateMutability": "nonpayable",
      "type": "function"
    },
    {
      "constant": false,
      "inputs": [
        {
          "internalType": "string",
          "name": "_title",
          "type": "string"
        },
        {
          "internalType": "string",
          "name": "_date",
          "type": "string"
        },
        {
          "internalType": "string",
          "name": "_info",
          "type": "string"
        }
      ],
      "name": "message",
      "outputs": [],
      "payable": false,
      "stateMutability": "nonpayable",
      "type": "function"
    },
    {
      "constant": true,
      "inputs": [
        {
          "internalType": "uint256",
          "name": "index",
          "type": "uint256"
        }
      ],
      "name": "getNotification",
      "outputs": [
        {
          "internalType": "string",
          "name": "title",
          "type": "string"
        },
        {
          "internalType": "string",
          "name": "date",
          "type": "string"
        },
        {
          "internalType": "string",
          "name": "info",
          "type": "string"
        }
      ],
      "payable": false,
      "stateMutability": "view",
      "type": "function"
    },
    {
      "constant": true,
      "inputs": [],
      "name": "getNotifiAmount",
      "outputs": [
        {
          "internalType": "uint256",
          "name": "amount",
          "type": "uint256"
        }
      ],
      "payable": false,
      "stateMutability": "view",
      "type": "function"
    },
    {
      "constant": false,
      "inputs": [
        {
          "internalType": "string",
          "name": "_name",
          "type": "string"
        },
        {
          "internalType": "string",
          "name": "_date",
          "type": "string"
        },
        {
          "internalType": "string",
          "name": "_locate",
          "type": "string"
        },
        {
          "internalType": "string",
          "name": "_message",
          "type": "string"
        }
      ],
      "name": "newActivity",
      "outputs": [],
      "payable": false,
      "stateMutability": "nonpayable",
      "type": "function"
    },
    {
      "constant": false,
      "inputs": [
        {
          "internalType": "address",
          "name": "_act",
          "type": "address"
        },
        {
          "internalType": "uint8",
          "name": "_state",
          "type": "uint8"
        }
      ],
      "name": "changeActState",
      "outputs": [],
      "payable": false,
      "stateMutability": "nonpayable",
      "type": "function"
    },
    {
      "constant": false,
      "inputs": [
        {
          "internalType": "address",
          "name": "_act",
          "type": "address"
        },
        {
          "internalType": "string",
          "name": "_name",
          "type": "string"
        },
        {
          "internalType": "string",
          "name": "_date",
          "type": "string"
        },
        {
          "internalType": "string",
          "name": "_locate",
          "type": "string"
        },
        {
          "internalType": "string",
          "name": "_message",
          "type": "string"
        }
      ],
      "name": "changeActInfo",
      "outputs": [],
      "payable": false,
      "stateMutability": "nonpayable",
      "type": "function"
    },
    {
      "constant": true,
      "inputs": [
        {
          "internalType": "address",
          "name": "addr",
          "type": "address"
        }
      ],
      "name": "isMember",
      "outputs": [
        {
          "internalType": "bool",
          "name": "",
          "type": "bool"
        }
      ],
      "payable": false,
      "stateMutability": "view",
      "type": "function"
    },
    {
      "constant": false,
      "inputs": [
        {
          "internalType": "string",
          "name": "_name",
          "type": "string"
        },
        {
          "internalType": "bool",
          "name": "open",
          "type": "bool"
        },
        {
          "internalType": "address[]",
          "name": "voter",
          "type": "address[]"
        }
      ],
      "name": "addVote",
      "outputs": [],
      "payable": false,
      "stateMutability": "nonpayable",
      "type": "function"
    },
    {
      "constant": true,
      "inputs": [],
      "name": "getVote",
      "outputs": [
        {
          "internalType": "address[]",
          "name": "_votes",
          "type": "address[]"
        }
      ],
      "payable": false,
      "stateMutability": "view",
      "type": "function"
    },
    {
      "constant": false,
      "inputs": [
        {
          "internalType": "address",
          "name": "vote",
          "type": "address"
        },
        {
          "internalType": "string",
          "name": "description",
          "type": "string"
        }
      ],
      "name": "addVoteItem",
      "outputs": [],
      "payable": false,
      "stateMutability": "nonpayable",
      "type": "function"
    },
    {
      "constant": false,
      "inputs": [
        {
          "internalType": "address",
          "name": "vote",
          "type": "address"
        }
      ],
      "name": "startVote",
      "outputs": [],
      "payable": false,
      "stateMutability": "nonpayable",
      "type": "function"
    },
    {
      "constant": false,
      "inputs": [
        {
          "internalType": "address",
          "name": "vote",
          "type": "address"
        }
      ],
      "name": "endVote",
      "outputs": [],
      "payable": false,
      "stateMutability": "nonpayable",
      "type": "function"
    }
  ],
  "bytecode": "0x608060405234801561001057600080fd5b5060405162009117380380620091178339818101604052604081101561003557600080fd5b8101908080519060200190929190805190602001909291905050508160008190555080600160006101000a81548173ffffffffffffffffffffffffffffffffffffffff021916908373ffffffffffffffffffffffffffffffffffffffff160217905550505061906d80620000aa6000396000f3fe60806040523480156200001157600080fd5b50600436106200016b5760003560e01c806363fc9e1011620000d5578063ab779c451162000087578063ab779c451462000d9c578063c153e97f1462000de8578063c536bdeb1462000f73578063c5ca5aa81462000f93578063cb07b6e214620010f7578063cda7b966146200113e576200016b565b806363fc9e1014620008df5780636d76325e1462000b8e5780636f33eed01462000bcb5780636f971f2a1462000beb5780637fa387a11462000c5c578063a230c5241462000d3d576200016b565b80630af2ef1a116200012f5780630af2ef1a146200033b57806316c44ee114620003fc5780631aec995014620005f15780632138b00114620008805780633ccfd60b146200088c57806362d5a97a1462000898576200016b565b80622e43a414620001705780630242f35114620001c457806306e8529f146200022757806306fdde03146200026e578063073b8d8c146200028e575b600080fd5b620001c2600480360360408110156200018857600080fd5b81019080803573ffffffffffffffffffffffffffffffffffffffff169060200190929190803560ff16906020019092919050505062001185565b005b620001ce62001371565b6040518080602001828103825283818151815260200191508051906020019060200280838360005b8381101562000213578082015181840152602081019050620001f6565b505050509050019250505060405180910390f35b6200026c600480360360208110156200023f57600080fd5b81019080803573ffffffffffffffffffffffffffffffffffffffff1690602001909291905050506200161b565b005b6200027862001a7d565b6040518082815260200191505060405180910390f35b620002bd60048036036020811015620002a657600080fd5b810190808035906020019092919050505062001a83565b6040518080602001828103825283818151815260200191508051906020019080838360005b83811015620002ff578082015181840152602081019050620002e2565b50505050905090810190601f1680156200032d5780820380516001836020036101000a031916815260200191505b509250505060405180910390f35b620003fa600480360360208110156200035357600080fd5b81019080803590602001906401000000008111156200037157600080fd5b8201836020820111156200038457600080fd5b80359060200191846001830284011164010000000083111715620003a757600080fd5b91908080601f016020809104026020016040519081016040528093929190818152602001838380828437600081840152601f19601f82011690508083019250505050505050919291929050505062001c64565b005b620005ef600480360360608110156200041457600080fd5b81019080803590602001906401000000008111156200043257600080fd5b8201836020820111156200044557600080fd5b803590602001918460018302840111640100000000831117156200046857600080fd5b91908080601f016020809104026020016040519081016040528093929190818152602001838380828437600081840152601f19601f82011690508083019250505050505050919291929080359060200190640100000000811115620004cc57600080fd5b820183602082011115620004df57600080fd5b803590602001918460018302840111640100000000831117156200050257600080fd5b91908080601f016020809104026020016040519081016040528093929190818152602001838380828437600081840152601f19601f820116905080830192505050505050509192919290803590602001906401000000008111156200056657600080fd5b8201836020820111156200057957600080fd5b803590602001918460018302840111640100000000831117156200059c57600080fd5b91908080601f016020809104026020016040519081016040528093929190818152602001838380828437600081840152601f19601f82011690508083019250505050505050919291929050505062002069565b005b6200087e600480360360808110156200060957600080fd5b81019080803590602001906401000000008111156200062757600080fd5b8201836020820111156200063a57600080fd5b803590602001918460018302840111640100000000831117156200065d57600080fd5b91908080601f016020809104026020016040519081016040528093929190818152602001838380828437600081840152601f19601f82011690508083019250505050505050919291929080359060200190640100000000811115620006c157600080fd5b820183602082011115620006d457600080fd5b80359060200191846001830284011164010000000083111715620006f757600080fd5b91908080601f016020809104026020016040519081016040528093929190818152602001838380828437600081840152601f19601f820116905080830192505050505050509192919290803590602001906401000000008111156200075b57600080fd5b8201836020820111156200076e57600080fd5b803590602001918460018302840111640100000000831117156200079157600080fd5b91908080601f016020809104026020016040519081016040528093929190818152602001838380828437600081840152601f19601f82011690508083019250505050505050919291929080359060200190640100000000811115620007f557600080fd5b8201836020820111156200080857600080fd5b803590602001918460018302840111640100000000831117156200082b57600080fd5b91908080601f016020809104026020016040519081016040528093929190818152602001838380828437600081840152601f19601f82011690508083019250505050505050919291929050505062002219565b005b6200088a620025a0565b005b620008966200293d565b005b620008dd60048036036020811015620008b057600080fd5b81019080803573ffffffffffffffffffffffffffffffffffffffff16906020019092919050505062002bea565b005b62000b8c600480360360a0811015620008f757600080fd5b81019080803573ffffffffffffffffffffffffffffffffffffffff169060200190929190803590602001906401000000008111156200093557600080fd5b8201836020820111156200094857600080fd5b803590602001918460018302840111640100000000831117156200096b57600080fd5b91908080601f016020809104026020016040519081016040528093929190818152602001838380828437600081840152601f19601f82011690508083019250505050505050919291929080359060200190640100000000811115620009cf57600080fd5b820183602082011115620009e257600080fd5b8035906020019184600183028401116401000000008311171562000a0557600080fd5b91908080601f016020809104026020016040519081016040528093929190818152602001838380828437600081840152601f19601f8201169050808301925050505050505091929192908035906020019064010000000081111562000a6957600080fd5b82018360208201111562000a7c57600080fd5b8035906020019184600183028401116401000000008311171562000a9f57600080fd5b91908080601f016020809104026020016040519081016040528093929190818152602001838380828437600081840152601f19601f8201169050808301925050505050505091929192908035906020019064010000000081111562000b0357600080fd5b82018360208201111562000b1657600080fd5b8035906020019184600183028401116401000000008311171562000b3957600080fd5b91908080601f016020809104026020016040519081016040528093929190818152602001838380828437600081840152601f19601f82011690508083019250505050505050919291929050505062002fc2565b005b62000bc96004803603604081101562000ba657600080fd5b810190808035906020019092919080351515906020019092919050505062003363565b005b62000bd56200363f565b6040518082815260200191505060405180910390f35b62000c1a6004803603602081101562000c0357600080fd5b810190808035906020019092919050505062003710565b604051808273ffffffffffffffffffffffffffffffffffffffff1673ffffffffffffffffffffffffffffffffffffffff16815260200191505060405180910390f35b62000d3b6004803603604081101562000c7457600080fd5b81019080803573ffffffffffffffffffffffffffffffffffffffff1690602001909291908035906020019064010000000081111562000cb257600080fd5b82018360208201111562000cc557600080fd5b8035906020019184600183028401116401000000008311171562000ce857600080fd5b91908080601f016020809104026020016040519081016040528093929190818152602001838380828437600081840152601f19601f8201169050808301925050505050505091929192905050506200374d565b005b62000d826004803603602081101562000d5557600080fd5b81019080803573ffffffffffffffffffffffffffffffffffffffff169060200190929190505050620038f0565b604051808215151515815260200191505060405180910390f35b62000da662003ca2565b604051808273ffffffffffffffffffffffffffffffffffffffff1673ffffffffffffffffffffffffffffffffffffffff16815260200191505060405180910390f35b62000e176004803603602081101562000e0057600080fd5b810190808035906020019092919050505062003cc8565b60405180806020018060200180602001848103845287818151815260200191508051906020019080838360005b8381101562000e6157808201518184015260208101905062000e44565b50505050905090810190601f16801562000e8f5780820380516001836020036101000a031916815260200191505b50848103835286818151815260200191508051906020019080838360005b8381101562000eca57808201518184015260208101905062000ead565b50505050905090810190601f16801562000ef85780820380516001836020036101000a031916815260200191505b50848103825285818151815260200191508051906020019080838360005b8381101562000f3357808201518184015260208101905062000f16565b50505050905090810190601f16801562000f615780820380516001836020036101000a031916815260200191505b50965050505050505060405180910390f35b62000f7d62004131565b6040518082815260200191505060405180910390f35b620010f56004803603606081101562000fab57600080fd5b810190808035906020019064010000000081111562000fc957600080fd5b82018360208201111562000fdc57600080fd5b8035906020019184600183028401116401000000008311171562000fff57600080fd5b91908080601f016020809104026020016040519081016040528093929190818152602001838380828437600081840152601f19601f820116905080830192505050505050509192919290803515159060200190929190803590602001906401000000008111156200106f57600080fd5b8201836020820111156200108257600080fd5b80359060200191846020830284011164010000000083111715620010a557600080fd5b919080806020026020016040519081016040528093929190818152602001838360200280828437600081840152601f19601f82011690508083019250505050505050919291929050505062004358565b005b6200113c600480360360208110156200110f57600080fd5b81019080803573ffffffffffffffffffffffffffffffffffffffff169060200190929190505050620045e5565b005b62001183600480360360208110156200115657600080fd5b81019080803573ffffffffffffffffffffffffffffffffffffffff16906020019092919050505062004777565b005b33600080905060008090505b60028054905081101562001224578273ffffffffffffffffffffffffffffffffffffffff1660028281548110620011c457fe5b9060005260206000200160009054906101000a900473ffffffffffffffffffffffffffffffffffffffff1673ffffffffffffffffffffffffffffffffffffffff16141562001216576001915062001224565b808060010191505062001191565b5080806200127f5750600160009054906101000a900473ffffffffffffffffffffffffffffffffffffffff1673ffffffffffffffffffffffffffffffffffffffff168273ffffffffffffffffffffffffffffffffffffffff16145b620012f2576040517f08c379a000000000000000000000000000000000000000000000000000000000815260040180806020018281038252601b8152602001807fe4b88de698afe7a4bee59ba2e983a8e995bfe68896e4b8bbe5b8ad000000000081525060200191505060405180910390fd5b60008490508073ffffffffffffffffffffffffffffffffffffffff1663268f1153856040518263ffffffff1660e01b8152600401808260ff1660ff168152602001915050600060405180830381600087803b1580156200135157600080fd5b505af115801562001366573d6000803e3d6000fd5b505050505050505050565b6060336000809050600160009054906101000a900473ffffffffffffffffffffffffffffffffffffffff1673ffffffffffffffffffffffffffffffffffffffff163373ffffffffffffffffffffffffffffffffffffffff161415620013d557600190505b80620014765760008090505b60028054905081101562001474573373ffffffffffffffffffffffffffffffffffffffff16600282815481106200141457fe5b9060005260206000200160009054906101000a900473ffffffffffffffffffffffffffffffffffffffff1673ffffffffffffffffffffffffffffffffffffffff16141562001466576001915062001474565b8080600101915050620013e1565b505b80620015175760008090505b60038054905081101562001515573373ffffffffffffffffffffffffffffffffffffffff1660038281548110620014b557fe5b9060005260206000200160009054906101000a900473ffffffffffffffffffffffffffffffffffffffff1673ffffffffffffffffffffffffffffffffffffffff16141562001507576001915062001515565b808060010191505062001482565b505b806200158b576040517f08c379a00000000000000000000000000000000000000000000000000000000081526004018080602001828103825260128152602001807fe4b88de698afe7a4bee59ba2e68890e59198000000000000000000000000000081525060200191505060405180910390fd5b60088054806020026020016040519081016040528092919081815260200182805480156200160f57602002820191906000526020600020905b8160009054906101000a900473ffffffffffffffffffffffffffffffffffffffff1673ffffffffffffffffffffffffffffffffffffffff1681526020019060010190808311620015c4575b50505050509250505090565b600160009054906101000a900473ffffffffffffffffffffffffffffffffffffffff1673ffffffffffffffffffffffffffffffffffffffff163373ffffffffffffffffffffffffffffffffffffffff1614620016df576040517f08c379a00000000000000000000000000000000000000000000000000000000081526004018080602001828103825260188152602001807fe58faae69c89e4b8bbe5b8ade69c89e69d83e6938de4bd9c000000000000000081525060200191505060405180910390fd5b80600080905060008090505b6002805490508110156200177e578273ffffffffffffffffffffffffffffffffffffffff16600282815481106200171e57fe5b9060005260206000200160009054906101000a900473ffffffffffffffffffffffffffffffffffffffff1673ffffffffffffffffffffffffffffffffffffffff1614156200177057600191506200177e565b8080600101915050620016eb565b508080620017d95750600160009054906101000a900473ffffffffffffffffffffffffffffffffffffffff1673ffffffffffffffffffffffffffffffffffffffff168273ffffffffffffffffffffffffffffffffffffffff16145b6200184c576040517f08c379a000000000000000000000000000000000000000000000000000000000815260040180806020018281038252601b8152602001807fe4b88de698afe7a4bee59ba2e983a8e995bfe68896e4b8bbe5b8ad000000000081525060200191505060405180910390fd5b60008090505b600280549050811015620019e5578373ffffffffffffffffffffffffffffffffffffffff16600282815481106200188557fe5b9060005260206000200160009054906101000a900473ffffffffffffffffffffffffffffffffffffffff1673ffffffffffffffffffffffffffffffffffffffff161415620019d757600260016003805490500381548110620018e357fe5b9060005260206000200160009054906101000a900473ffffffffffffffffffffffffffffffffffffffff16600282815481106200191c57fe5b9060005260206000200160006101000a81548173ffffffffffffffffffffffffffffffffffffffff021916908373ffffffffffffffffffffffffffffffffffffffff16021790555060028054806200197057fe5b6001900381819060005260206000200160006101000a81549073ffffffffffffffffffffffffffffffffffffffff021916905590557f07ddd18ba0eb25e412b61ec4aa5759efe3cd9b2f5a26010896aa5e4ea2a61bde60405160405180910390a1620019e5565b808060010191505062001852565b5060038390806001815401808255809150509060018203906000526020600020016000909192909190916101000a81548173ffffffffffffffffffffffffffffffffffffffff021916908373ffffffffffffffffffffffffffffffffffffffff160217905550507ffe26fbe0989c561f468ca5650d79244cf0a59d7f17d6482aab394f50c6a8872560405160405180910390a1505050565b60005481565b6060600160009054906101000a900473ffffffffffffffffffffffffffffffffffffffff1673ffffffffffffffffffffffffffffffffffffffff163373ffffffffffffffffffffffffffffffffffffffff161462001b49576040517f08c379a00000000000000000000000000000000000000000000000000000000081526004018080602001828103825260188152602001807fe58faae69c89e4b8bbe5b8ade69c89e69d83e6938de4bd9c000000000000000081525060200191505060405180910390fd5b600560006004848154811062001b5b57fe5b9060005260206000200160009054906101000a900473ffffffffffffffffffffffffffffffffffffffff1673ffffffffffffffffffffffffffffffffffffffff1673ffffffffffffffffffffffffffffffffffffffff1681526020019081526020016000208054600181600116156101000203166002900480601f01602080910402602001604051908101604052809291908181526020018280546001816001161561010002031660029004801562001c585780601f1062001c2c5761010080835404028352916020019162001c58565b820191906000526020600020905b81548152906001019060200180831162001c3a57829003601f168201915b50505050509050919050565b60003390508073ffffffffffffffffffffffffffffffffffffffff16635d8d15856040518163ffffffff1660e01b815260040160006040518083038186803b15801562001cb057600080fd5b505afa15801562001cc5573d6000803e3d6000fd5b505050506040513d6000823e3d601f19601f8201168201806040525060e081101562001cf057600080fd5b810190808051906020019092919080519060200190929190805190602001909291908051604051939291908464010000000082111562001d2f57600080fd5b8382019150602082018581111562001d4657600080fd5b825186600182028301116401000000008211171562001d6457600080fd5b8083526020830192505050908051906020019080838360005b8381101562001d9a57808201518184015260208101905062001d7d565b50505050905090810190601f16801562001dc85780820380516001836020036101000a031916815260200191505b50604052602001805190602001909291908051604051939291908464010000000082111562001df657600080fd5b8382019150602082018581111562001e0d57600080fd5b825186602082028301116401000000008211171562001e2b57600080fd5b8083526020830192505050908051906020019060200280838360005b8381101562001e6457808201518184015260208101905062001e47565b505050509050016040526020018051604051939291908464010000000082111562001e8e57600080fd5b8382019150602082018581111562001ea557600080fd5b825186602082028301116401000000008211171562001ec357600080fd5b8083526020830192505050908051906020019060200280838360005b8381101562001efc57808201518184015260208101905062001edf565b505050509050016040525050505050505050505060008090505b60048054905081101562001fa7573373ffffffffffffffffffffffffffffffffffffffff166004828154811062001f4957fe5b9060005260206000200160009054906101000a900473ffffffffffffffffffffffffffffffffffffffff1673ffffffffffffffffffffffffffffffffffffffff16141562001f9957505062002066565b808060010191505062001f16565b5060043390806001815401808255809150509060018203906000526020600020016000909192909190916101000a81548173ffffffffffffffffffffffffffffffffffffffff021916908373ffffffffffffffffffffffffffffffffffffffff1602179055505081600560003373ffffffffffffffffffffffffffffffffffffffff1673ffffffffffffffffffffffffffffffffffffffff16815260200190815260200160002090805190602001906200206392919062004909565b50505b50565b600160009054906101000a900473ffffffffffffffffffffffffffffffffffffffff1673ffffffffffffffffffffffffffffffffffffffff163373ffffffffffffffffffffffffffffffffffffffff16146200212d576040517f08c379a00000000000000000000000000000000000000000000000000000000081526004018080602001828103825260188152602001807fe58faae69c89e4b8bbe5b8ade69c89e69d83e6938de4bd9c000000000000000081525060200191505060405180910390fd5b60066040518060600160405280858152602001848152602001838152509080600181540180825580915050906001820390600052602060002090600302016000909192909190915060008201518160000190805190602001906200219392919062004990565b506020820151816001019080519060200190620021b292919062004990565b506040820151816002019080519060200190620021d192919062004990565b505050507f44cbc4ee4dcf9a162ffec2b31e2bfc043ba2bfae96f112752804672065535b326001600680549050036040518082815260200191505060405180910390a1505050565b600160009054906101000a900473ffffffffffffffffffffffffffffffffffffffff1673ffffffffffffffffffffffffffffffffffffffff163373ffffffffffffffffffffffffffffffffffffffff1614620022dd576040517f08c379a00000000000000000000000000000000000000000000000000000000081526004018080602001828103825260188152602001807fe58faae69c89e4b8bbe5b8ade69c89e69d83e6938de4bd9c000000000000000081525060200191505060405180910390fd5b600084848484604051620022f19062004a17565b8080602001806020018060200180602001858103855289818151815260200191508051906020019080838360005b838110156200233c5780820151818401526020810190506200231f565b50505050905090810190601f1680156200236a5780820380516001836020036101000a031916815260200191505b50858103845288818151815260200191508051906020019080838360005b83811015620023a557808201518184015260208101905062002388565b50505050905090810190601f168015620023d35780820380516001836020036101000a031916815260200191505b50858103835287818151815260200191508051906020019080838360005b838110156200240e578082015181840152602081019050620023f1565b50505050905090810190601f1680156200243c5780820380516001836020036101000a031916815260200191505b50858103825286818151815260200191508051906020019080838360005b83811015620024775780820151818401526020810190506200245a565b50505050905090810190601f168015620024a55780820380516001836020036101000a031916815260200191505b5098505050505050505050604051809103906000f080158015620024cd573d6000803e3d6000fd5b50905060078190806001815401808255809150509060018203906000526020600020016000909192909190916101000a81548173ffffffffffffffffffffffffffffffffffffffff021916908373ffffffffffffffffffffffffffffffffffffffff160217905550507f14504cedfba94db598624679cc94b1a85cf9338dc2a5ddc4bd9e1bd65cff6eda81604051808273ffffffffffffffffffffffffffffffffffffffff1673ffffffffffffffffffffffffffffffffffffffff16815260200191505060405180910390a15050505050565b33600080905060008090505b6002805490508110156200263f578273ffffffffffffffffffffffffffffffffffffffff1660028281548110620025df57fe5b9060005260206000200160009054906101000a900473ffffffffffffffffffffffffffffffffffffffff1673ffffffffffffffffffffffffffffffffffffffff1614156200263157600191506200263f565b8080600101915050620025ac565b5080806200269a5750600160009054906101000a900473ffffffffffffffffffffffffffffffffffffffff1673ffffffffffffffffffffffffffffffffffffffff168273ffffffffffffffffffffffffffffffffffffffff16145b6200270d576040517f08c379a000000000000000000000000000000000000000000000000000000000815260040180806020018281038252601b8152602001807fe4b88de698afe7a4bee59ba2e983a8e995bfe68896e4b8bbe5b8ad000000000081525060200191505060405180910390fd5b60008090505b600280549050811015620028a6573373ffffffffffffffffffffffffffffffffffffffff16600282815481106200274657fe5b9060005260206000200160009054906101000a900473ffffffffffffffffffffffffffffffffffffffff1673ffffffffffffffffffffffffffffffffffffffff1614156200289857600260016003805490500381548110620027a457fe5b9060005260206000200160009054906101000a900473ffffffffffffffffffffffffffffffffffffffff1660028281548110620027dd57fe5b9060005260206000200160006101000a81548173ffffffffffffffffffffffffffffffffffffffff021916908373ffffffffffffffffffffffffffffffffffffffff16021790555060028054806200283157fe5b6001900381819060005260206000200160006101000a81549073ffffffffffffffffffffffffffffffffffffffff021916905590557f07ddd18ba0eb25e412b61ec4aa5759efe3cd9b2f5a26010896aa5e4ea2a61bde60405160405180910390a1620028a6565b808060010191505062002713565b5060033390806001815401808255809150509060018203906000526020600020016000909192909190916101000a81548173ffffffffffffffffffffffffffffffffffffffff021916908373ffffffffffffffffffffffffffffffffffffffff160217905550507ffe26fbe0989c561f468ca5650d79244cf0a59d7f17d6482aab394f50c6a8872560405160405180910390a15050565b33600080905060008090505b600380549050811015620029dc578273ffffffffffffffffffffffffffffffffffffffff16600382815481106200297c57fe5b9060005260206000200160009054906101000a900473ffffffffffffffffffffffffffffffffffffffff1673ffffffffffffffffffffffffffffffffffffffff161415620029ce5760019150620029dc565b808060010191505062002949565b508062002a51576040517f08c379a00000000000000000000000000000000000000000000000000000000081526004018080602001828103825260188152602001807fe4b88de698afe7a4bee59ba2e699aee9809ae68890e59198000000000000000081525060200191505060405180910390fd5b60008090505b60038054905081101562002be5573373ffffffffffffffffffffffffffffffffffffffff166003828154811062002a8a57fe5b9060005260206000200160009054906101000a900473ffffffffffffffffffffffffffffffffffffffff1673ffffffffffffffffffffffffffffffffffffffff16141562002bd75760036001600380549050038154811062002ae857fe5b9060005260206000200160009054906101000a900473ffffffffffffffffffffffffffffffffffffffff166003828154811062002b2157fe5b9060005260206000200160006101000a81548173ffffffffffffffffffffffffffffffffffffffff021916908373ffffffffffffffffffffffffffffffffffffffff160217905550600380548062002b7557fe5b6001900381819060005260206000200160006101000a81549073ffffffffffffffffffffffffffffffffffffffff021916905590557ffe26fbe0989c561f468ca5650d79244cf0a59d7f17d6482aab394f50c6a8872560405160405180910390a15b808060010191505062002a57565b505050565b600160009054906101000a900473ffffffffffffffffffffffffffffffffffffffff1673ffffffffffffffffffffffffffffffffffffffff163373ffffffffffffffffffffffffffffffffffffffff161462002cae576040517f08c379a00000000000000000000000000000000000000000000000000000000081526004018080602001828103825260188152602001807fe58faae69c89e4b8bbe5b8ade69c89e69d83e6938de4bd9c000000000000000081525060200191505060405180910390fd5b80600080905060008090505b60038054905081101562002d4d578273ffffffffffffffffffffffffffffffffffffffff166003828154811062002ced57fe5b9060005260206000200160009054906101000a900473ffffffffffffffffffffffffffffffffffffffff1673ffffffffffffffffffffffffffffffffffffffff16141562002d3f576001915062002d4d565b808060010191505062002cba565b508062002dc2576040517f08c379a00000000000000000000000000000000000000000000000000000000081526004018080602001828103825260188152602001807fe4b88de698afe7a4bee59ba2e699aee9809ae68890e59198000000000000000081525060200191505060405180910390fd5b60008090505b60038054905081101562002f2a578373ffffffffffffffffffffffffffffffffffffffff166003828154811062002dfb57fe5b9060005260206000200160009054906101000a900473ffffffffffffffffffffffffffffffffffffffff1673ffffffffffffffffffffffffffffffffffffffff16141562002f1c5760036001600380549050038154811062002e5957fe5b9060005260206000200160009054906101000a900473ffffffffffffffffffffffffffffffffffffffff166003828154811062002e9257fe5b9060005260206000200160006101000a81548173ffffffffffffffffffffffffffffffffffffffff021916908373ffffffffffffffffffffffffffffffffffffffff160217905550600380548062002ee657fe5b6001900381819060005260206000200160006101000a81549073ffffffffffffffffffffffffffffffffffffffff021916905590555b808060010191505062002dc8565b5060028390806001815401808255809150509060018203906000526020600020016000909192909190916101000a81548173ffffffffffffffffffffffffffffffffffffffff021916908373ffffffffffffffffffffffffffffffffffffffff160217905550507f07ddd18ba0eb25e412b61ec4aa5759efe3cd9b2f5a26010896aa5e4ea2a61bde60405160405180910390a1505050565b33600080905060008090505b60028054905081101562003061578273ffffffffffffffffffffffffffffffffffffffff16600282815481106200300157fe5b9060005260206000200160009054906101000a900473ffffffffffffffffffffffffffffffffffffffff1673ffffffffffffffffffffffffffffffffffffffff16141562003053576001915062003061565b808060010191505062002fce565b508080620030bc5750600160009054906101000a900473ffffffffffffffffffffffffffffffffffffffff1673ffffffffffffffffffffffffffffffffffffffff168273ffffffffffffffffffffffffffffffffffffffff16145b6200312f576040517f08c379a000000000000000000000000000000000000000000000000000000000815260040180806020018281038252601b8152602001807fe4b88de698afe7a4bee59ba2e983a8e995bfe68896e4b8bbe5b8ad000000000081525060200191505060405180910390fd5b60008790508073ffffffffffffffffffffffffffffffffffffffff1663f571356c888888886040518563ffffffff1660e01b81526004018080602001806020018060200180602001858103855289818151815260200191508051906020019080838360005b83811015620031b157808201518184015260208101905062003194565b50505050905090810190601f168015620031df5780820380516001836020036101000a031916815260200191505b50858103845288818151815260200191508051906020019080838360005b838110156200321a578082015181840152602081019050620031fd565b50505050905090810190601f168015620032485780820380516001836020036101000a031916815260200191505b50858103835287818151815260200191508051906020019080838360005b838110156200328357808201518184015260208101905062003266565b50505050905090810190601f168015620032b15780820380516001836020036101000a031916815260200191505b50858103825286818151815260200191508051906020019080838360005b83811015620032ec578082015181840152602081019050620032cf565b50505050905090810190601f1680156200331a5780820380516001836020036101000a031916815260200191505b5098505050505050505050600060405180830381600087803b1580156200334057600080fd5b505af115801562003355573d6000803e3d6000fd5b505050505050505050505050565b600160009054906101000a900473ffffffffffffffffffffffffffffffffffffffff1673ffffffffffffffffffffffffffffffffffffffff163373ffffffffffffffffffffffffffffffffffffffff161462003427576040517f08c379a00000000000000000000000000000000000000000000000000000000081526004018080602001828103825260188152602001807fe58faae69c89e4b8bbe5b8ade69c89e69d83e6938de4bd9c000000000000000081525060200191505060405180910390fd5b6000600483815481106200343757fe5b9060005260206000200160009054906101000a900473ffffffffffffffffffffffffffffffffffffffff1690508115620034ff578073ffffffffffffffffffffffffffffffffffffffff16638f4bd3266040518163ffffffff1660e01b8152600401600060405180830381600087803b158015620034b457600080fd5b505af1158015620034c9573d6000803e3d6000fd5b505050507ffe26fbe0989c561f468ca5650d79244cf0a59d7f17d6482aab394f50c6a8872560405160405180910390a162003562565b8073ffffffffffffffffffffffffffffffffffffffff1663fb9a07cc6040518163ffffffff1660e01b8152600401600060405180830381600087803b1580156200354857600080fd5b505af11580156200355d573d6000803e3d6000fd5b505050505b6004600160048054905003815481106200357857fe5b9060005260206000200160009054906101000a900473ffffffffffffffffffffffffffffffffffffffff1660048481548110620035b157fe5b9060005260206000200160006101000a81548173ffffffffffffffffffffffffffffffffffffffff021916908373ffffffffffffffffffffffffffffffffffffffff16021790555060048054806200360557fe5b6001900381819060005260206000200160006101000a81549073ffffffffffffffffffffffffffffffffffffffff02191690559055505050565b6000600160009054906101000a900473ffffffffffffffffffffffffffffffffffffffff1673ffffffffffffffffffffffffffffffffffffffff163373ffffffffffffffffffffffffffffffffffffffff161462003705576040517f08c379a00000000000000000000000000000000000000000000000000000000081526004018080602001828103825260188152602001807fe58faae69c89e4b8bbe5b8ade69c89e69d83e6938de4bd9c000000000000000081525060200191505060405180910390fd5b600480549050905090565b600281815481106200371e57fe5b906000526020600020016000915054906101000a900473ffffffffffffffffffffffffffffffffffffffff1681565b600160009054906101000a900473ffffffffffffffffffffffffffffffffffffffff1673ffffffffffffffffffffffffffffffffffffffff163373ffffffffffffffffffffffffffffffffffffffff161462003811576040517f08c379a00000000000000000000000000000000000000000000000000000000081526004018080602001828103825260188152602001807fe58faae69c89e4b8bbe5b8ade69c89e69d83e6938de4bd9c000000000000000081525060200191505060405180910390fd5b60008290508073ffffffffffffffffffffffffffffffffffffffff166327e9f294836040518263ffffffff1660e01b81526004018080602001828103825283818151815260200191508051906020019080838360005b838110156200388457808201518184015260208101905062003867565b50505050905090810190601f168015620038b25780820380516001836020036101000a031916815260200191505b5092505050600060405180830381600087803b158015620038d257600080fd5b505af1158015620038e7573d6000803e3d6000fd5b50505050505050565b6000806000905060008090505b6007805490508110156200398b573373ffffffffffffffffffffffffffffffffffffffff16600782815481106200393057fe5b9060005260206000200160009054906101000a900473ffffffffffffffffffffffffffffffffffffffff1673ffffffffffffffffffffffffffffffffffffffff1614156200397d57600191505b8080600101915050620038fd565b50600033905060008173ffffffffffffffffffffffffffffffffffffffff16638da5cb5b6040518163ffffffff1660e01b815260040160206040518083038186803b158015620039da57600080fd5b505afa158015620039ef573d6000803e3d6000fd5b505050506040513d602081101562003a0657600080fd5b810190808051906020019092919050505090503073ffffffffffffffffffffffffffffffffffffffff163373ffffffffffffffffffffffffffffffffffffffff1614801562003a8057503073ffffffffffffffffffffffffffffffffffffffff168173ffffffffffffffffffffffffffffffffffffffff16145b62003af3576040517f08c379a000000000000000000000000000000000000000000000000000000000815260040180806020018281038252601b8152602001807fe6b4bbe58aa8e4b88de5bd92e69cace7a4bee59ba2e68980e69c89000000000081525060200191505060405180910390fd5b6000809050600160009054906101000a900473ffffffffffffffffffffffffffffffffffffffff1673ffffffffffffffffffffffffffffffffffffffff168673ffffffffffffffffffffffffffffffffffffffff16141562003b5457600190505b8062003bf55760008090505b60028054905081101562003bf3578673ffffffffffffffffffffffffffffffffffffffff166002828154811062003b9357fe5b9060005260206000200160009054906101000a900473ffffffffffffffffffffffffffffffffffffffff1673ffffffffffffffffffffffffffffffffffffffff16141562003be5576001915062003bf3565b808060010191505062003b60565b505b8062003c965760008090505b60038054905081101562003c94578673ffffffffffffffffffffffffffffffffffffffff166003828154811062003c3457fe5b9060005260206000200160009054906101000a900473ffffffffffffffffffffffffffffffffffffffff1673ffffffffffffffffffffffffffffffffffffffff16141562003c86576001915062003c94565b808060010191505062003c01565b505b80945050505050919050565b600160009054906101000a900473ffffffffffffffffffffffffffffffffffffffff1681565b6060806060336000809050600160009054906101000a900473ffffffffffffffffffffffffffffffffffffffff1673ffffffffffffffffffffffffffffffffffffffff163373ffffffffffffffffffffffffffffffffffffffff16141562003d2f57600190505b8062003dd05760008090505b60028054905081101562003dce573373ffffffffffffffffffffffffffffffffffffffff166002828154811062003d6e57fe5b9060005260206000200160009054906101000a900473ffffffffffffffffffffffffffffffffffffffff1673ffffffffffffffffffffffffffffffffffffffff16141562003dc0576001915062003dce565b808060010191505062003d3b565b505b8062003e715760008090505b60038054905081101562003e6f573373ffffffffffffffffffffffffffffffffffffffff166003828154811062003e0f57fe5b9060005260206000200160009054906101000a900473ffffffffffffffffffffffffffffffffffffffff1673ffffffffffffffffffffffffffffffffffffffff16141562003e61576001915062003e6f565b808060010191505062003ddc565b505b8062003ee5576040517f08c379a00000000000000000000000000000000000000000000000000000000081526004018080602001828103825260128152602001807fe4b88de698afe7a4bee59ba2e68890e59198000000000000000000000000000081525060200191505060405180910390fd5b6006868154811062003ef357fe5b90600052602060002090600302016000016006878154811062003f1257fe5b90600052602060002090600302016001016006888154811062003f3157fe5b9060005260206000209060030201600201828054600181600116156101000203166002900480601f01602080910402602001604051908101604052809291908181526020018280546001816001161561010002031660029004801562003fdb5780601f1062003faf5761010080835404028352916020019162003fdb565b820191906000526020600020905b81548152906001019060200180831162003fbd57829003601f168201915b50505050509250818054600181600116156101000203166002900480601f0160208091040260200160405190810160405280929190818152602001828054600181600116156101000203166002900480156200407b5780601f106200404f576101008083540402835291602001916200407b565b820191906000526020600020905b8154815290600101906020018083116200405d57829003601f168201915b50505050509150808054600181600116156101000203166002900480601f0160208091040260200160405190810160405280929190818152602001828054600181600116156101000203166002900480156200411b5780601f10620040ef576101008083540402835291602001916200411b565b820191906000526020600020905b815481529060010190602001808311620040fd57829003601f168201915b5050505050905094509450945050509193909250565b6000336000809050600160009054906101000a900473ffffffffffffffffffffffffffffffffffffffff1673ffffffffffffffffffffffffffffffffffffffff163373ffffffffffffffffffffffffffffffffffffffff1614156200419557600190505b80620042365760008090505b60028054905081101562004234573373ffffffffffffffffffffffffffffffffffffffff1660028281548110620041d457fe5b9060005260206000200160009054906101000a900473ffffffffffffffffffffffffffffffffffffffff1673ffffffffffffffffffffffffffffffffffffffff16141562004226576001915062004234565b8080600101915050620041a1565b505b80620042d75760008090505b600380549050811015620042d5573373ffffffffffffffffffffffffffffffffffffffff16600382815481106200427557fe5b9060005260206000200160009054906101000a900473ffffffffffffffffffffffffffffffffffffffff1673ffffffffffffffffffffffffffffffffffffffff161415620042c75760019150620042d5565b808060010191505062004242565b505b806200434b576040517f08c379a00000000000000000000000000000000000000000000000000000000081526004018080602001828103825260128152602001807fe4b88de698afe7a4bee59ba2e68890e59198000000000000000000000000000081525060200191505060405180910390fd5b6006805490509250505090565b600160009054906101000a900473ffffffffffffffffffffffffffffffffffffffff1673ffffffffffffffffffffffffffffffffffffffff163373ffffffffffffffffffffffffffffffffffffffff16146200441c576040517f08c379a00000000000000000000000000000000000000000000000000000000081526004018080602001828103825260188152602001807fe58faae69c89e4b8bbe5b8ade69c89e69d83e6938de4bd9c000000000000000081525060200191505060405180910390fd5b60008383836040516200442f9062004a25565b80806020018415151515815260200180602001838103835286818151815260200191508051906020019080838360005b838110156200447c5780820151818401526020810190506200445f565b50505050905090810190601f168015620044aa5780820380516001836020036101000a031916815260200191505b50838103825284818151815260200191508051906020019060200280838360005b83811015620044e8578082015181840152602081019050620044cb565b5050505090500195505050505050604051809103906000f08015801562004513573d6000803e3d6000fd5b50905060088190806001815401808255809150509060018203906000526020600020016000909192909190916101000a81548173ffffffffffffffffffffffffffffffffffffffff021916908373ffffffffffffffffffffffffffffffffffffffff160217905550507fed2fbff4d76ba8182b3647614d458f1ce2c5b4947a424687b42d66788cbc29c181604051808273ffffffffffffffffffffffffffffffffffffffff1673ffffffffffffffffffffffffffffffffffffffff16815260200191505060405180910390a150505050565b600160009054906101000a900473ffffffffffffffffffffffffffffffffffffffff1673ffffffffffffffffffffffffffffffffffffffff163373ffffffffffffffffffffffffffffffffffffffff1614620046a9576040517f08c379a00000000000000000000000000000000000000000000000000000000081526004018080602001828103825260188152602001807fe58faae69c89e4b8bbe5b8ade69c89e69d83e6938de4bd9c000000000000000081525060200191505060405180910390fd5b60008190508073ffffffffffffffffffffffffffffffffffffffff1663c3403ddf6040518163ffffffff1660e01b8152600401600060405180830381600087803b158015620046f757600080fd5b505af11580156200470c573d6000803e3d6000fd5b505050507fe83ee162df5909ce888d27db911fcf7c210b71a9c17f4c1316aa2631c88d6e5a82604051808273ffffffffffffffffffffffffffffffffffffffff1673ffffffffffffffffffffffffffffffffffffffff16815260200191505060405180910390a15050565b600160009054906101000a900473ffffffffffffffffffffffffffffffffffffffff1673ffffffffffffffffffffffffffffffffffffffff163373ffffffffffffffffffffffffffffffffffffffff16146200483b576040517f08c379a00000000000000000000000000000000000000000000000000000000081526004018080602001828103825260188152602001807fe58faae69c89e4b8bbe5b8ade69c89e69d83e6938de4bd9c000000000000000081525060200191505060405180910390fd5b60008190508073ffffffffffffffffffffffffffffffffffffffff16631ec6b60a6040518163ffffffff1660e01b8152600401600060405180830381600087803b1580156200488957600080fd5b505af11580156200489e573d6000803e3d6000fd5b505050507fbc1d17ab876e5dc372361beec3c7a54aabd8893c12eaa11f9b6ce0fa2cdaad5582604051808273ffffffffffffffffffffffffffffffffffffffff1673ffffffffffffffffffffffffffffffffffffffff16815260200191505060405180910390a15050565b828054600181600116156101000203166002900490600052602060002090601f016020900481019282601f106200494c57805160ff19168380011785556200497d565b828001600101855582156200497d579182015b828111156200497c5782518255916020019190600101906200495f565b5b5090506200498c919062004a33565b5090565b828054600181600116156101000203166002900490600052602060002090601f016020900481019282601f10620049d357805160ff191683800117855562004a04565b8280016001018555821562004a04579182015b8281111562004a03578251825591602001919060010190620049e6565b5b50905062004a13919062004a33565b5090565b6126618062004a5c83390190565b611f7c80620070bd83390190565b62004a5891905b8082111562004a5457600081600090555060010162004a3a565b5090565b9056fe60806040523480156200001157600080fd5b506040516200266138038062002661833981810160405260808110156200003757600080fd5b81019080805160405193929190846401000000008211156200005857600080fd5b838201915060208201858111156200006f57600080fd5b82518660018202830111640100000000821117156200008d57600080fd5b8083526020830192505050908051906020019080838360005b83811015620000c3578082015181840152602081019050620000a6565b50505050905090810190601f168015620000f15780820380516001836020036101000a031916815260200191505b50604052602001805160405193929190846401000000008211156200011557600080fd5b838201915060208201858111156200012c57600080fd5b82518660018202830111640100000000821117156200014a57600080fd5b8083526020830192505050908051906020019080838360005b838110156200018057808201518184015260208101905062000163565b50505050905090810190601f168015620001ae5780820380516001836020036101000a031916815260200191505b5060405260200180516040519392919084640100000000821115620001d257600080fd5b83820191506020820185811115620001e957600080fd5b82518660018202830111640100000000821117156200020757600080fd5b8083526020830192505050908051906020019080838360005b838110156200023d57808201518184015260208101905062000220565b50505050905090810190601f1680156200026b5780820380516001836020036101000a031916815260200191505b50604052602001805160405193929190846401000000008211156200028f57600080fd5b83820191506020820185811115620002a657600080fd5b8251866001820283011164010000000082111715620002c457600080fd5b8083526020830192505050908051906020019080838360005b83811015620002fa578082015181840152602081019050620002dd565b50505050905090810190601f168015620003285780820380516001836020036101000a031916815260200191505b50604052505050336000806101000a81548173ffffffffffffffffffffffffffffffffffffffff021916908373ffffffffffffffffffffffffffffffffffffffff160217905550836001908051906020019062000387929190620003dd565b508260029080519060200190620003a0929190620003dd565b508160039080519060200190620003b9929190620003dd565b508060049080519060200190620003d2929190620003dd565b50505050506200048c565b828054600181600116156101000203166002900490600052602060002090601f016020900481019282601f106200042057805160ff191683800117855562000451565b8280016001018555821562000451579182015b828111156200045057825182559160200191906001019062000433565b5b50905062000460919062000464565b5090565b6200048991905b80821115620004855760008160009055506001016200046b565b5090565b90565b6121c5806200049c6000396000f3fe608060405234801561001057600080fd5b50600436106100f55760003560e01c8063b98464b311610097578063c34e5c8111610066578063c34e5c8114610771578063c536bdeb146107d0578063e21f37ce146107ee578063f571356c14610871576100f5565b8063b98464b314610362578063baf53e741461054b578063c153e97f146105ce578063c19d93fb1461074d576100f5565b806328ffe6c8116100d357806328ffe6c81461020d578063323046b11461025157806382c4b3b2146102d45780638da5cb5b14610318576100f5565b80630274c094146100fa57806306fdde0314610159578063268f1153146101dc575b600080fd5b610102610af1565b6040518080602001828103825283818151815260200191508051906020019060200280838360005b8381101561014557808201518184015260208101905061012a565b505050509050019250505060405180910390f35b610161610c6e565b6040518080602001828103825283818151815260200191508051906020019080838360005b838110156101a1578082015181840152602081019050610186565b50505050905090810190601f1680156101ce5780820380516001836020036101000a031916815260200191505b509250505060405180910390f35b61020b600480360360208110156101f257600080fd5b81019080803560ff169060200190929190505050610d0c565b005b61024f6004803603602081101561022357600080fd5b81019080803573ffffffffffffffffffffffffffffffffffffffff169060200190929190505050610e18565b005b610259611155565b6040518080602001828103825283818151815260200191508051906020019080838360005b8381101561029957808201518184015260208101905061027e565b50505050905090810190601f1680156102c65780820380516001836020036101000a031916815260200191505b509250505060405180910390f35b610316600480360360208110156102ea57600080fd5b81019080803573ffffffffffffffffffffffffffffffffffffffff1690602001909291905050506111f3565b005b61032061164a565b604051808273ffffffffffffffffffffffffffffffffffffffff1673ffffffffffffffffffffffffffffffffffffffff16815260200191505060405180910390f35b6105496004803603606081101561037857600080fd5b810190808035906020019064010000000081111561039557600080fd5b8201836020820111156103a757600080fd5b803590602001918460018302840111640100000000831117156103c957600080fd5b91908080601f016020809104026020016040519081016040528093929190818152602001838380828437600081840152601f19601f8201169050808301925050505050505091929192908035906020019064010000000081111561042c57600080fd5b82018360208201111561043e57600080fd5b8035906020019184600183028401116401000000008311171561046057600080fd5b91908080601f016020809104026020016040519081016040528093929190818152602001838380828437600081840152601f19601f820116905080830192505050505050509192919290803590602001906401000000008111156104c357600080fd5b8201836020820111156104d557600080fd5b803590602001918460018302840111640100000000831117156104f757600080fd5b91908080601f016020809104026020016040519081016040528093929190818152602001838380828437600081840152601f19601f82011690508083019250505050505050919291929050505061166f565b005b610553611817565b6040518080602001828103825283818151815260200191508051906020019080838360005b83811015610593578082015181840152602081019050610578565b50505050905090810190601f1680156105c05780820380516001836020036101000a031916815260200191505b509250505060405180910390f35b6105fa600480360360208110156105e457600080fd5b81019080803590602001909291905050506118b5565b60405180806020018060200180602001848103845287818151815260200191508051906020019080838360005b83811015610642578082015181840152602081019050610627565b50505050905090810190601f16801561066f5780820380516001836020036101000a031916815260200191505b50848103835286818151815260200191508051906020019080838360005b838110156106a857808201518184015260208101905061068d565b50505050905090810190601f1680156106d55780820380516001836020036101000a031916815260200191505b50848103825285818151815260200191508051906020019080838360005b8381101561070e5780820151818401526020810190506106f3565b50505050905090810190601f16801561073b5780820380516001836020036101000a031916815260200191505b50965050505050505060405180910390f35b610755611be4565b604051808260ff1660ff16815260200191505060405180910390f35b610779611bf7565b6040518080602001828103825283818151815260200191508051906020019060200280838360005b838110156107bc5780820151818401526020810190506107a1565b505050509050019250505060405180910390f35b6107d8611d2a565b6040518082815260200191505060405180910390f35b6107f6611e26565b6040518080602001828103825283818151815260200191508051906020019080838360005b8381101561083657808201518184015260208101905061081b565b50505050905090810190601f1680156108635780820380516001836020036101000a031916815260200191505b509250505060405180910390f35b610aef6004803603608081101561088757600080fd5b81019080803590602001906401000000008111156108a457600080fd5b8201836020820111156108b657600080fd5b803590602001918460018302840111640100000000831117156108d857600080fd5b91908080601f016020809104026020016040519081016040528093929190818152602001838380828437600081840152601f19601f8201169050808301925050505050505091929192908035906020019064010000000081111561093b57600080fd5b82018360208201111561094d57600080fd5b8035906020019184600183028401116401000000008311171561096f57600080fd5b91908080601f016020809104026020016040519081016040528093929190818152602001838380828437600081840152601f19601f820116905080830192505050505050509192919290803590602001906401000000008111156109d257600080fd5b8201836020820111156109e457600080fd5b80359060200191846001830284011164010000000083111715610a0657600080fd5b91908080601f016020809104026020016040519081016040528093929190818152602001838380828437600081840152601f19601f82011690508083019250505050505050919291929080359060200190640100000000811115610a6957600080fd5b820183602082011115610a7b57600080fd5b80359060200191846001830284011164010000000083111715610a9d57600080fd5b91908080601f016020809104026020016040519081016040528093929190818152602001838380828437600081840152601f19601f820116905080830192505050505050509192919290505050611ec4565b005b606033600080905060008090505b600680549050811015610b89578273ffffffffffffffffffffffffffffffffffffffff1660068281548110610b3057fe5b9060005260206000200160009054906101000a900473ffffffffffffffffffffffffffffffffffffffff1673ffffffffffffffffffffffffffffffffffffffff161415610b7c57600191505b8080600101915050610aff565b5080610be0576040517f08c379a000000000000000000000000000000000000000000000000000000000815260040180806020018281038252603681526020018061215b6036913960400191505060405180910390fd5b6006805480602002602001604051908101604052809291908181526020018280548015610c6257602002820191906000526020600020905b8160009054906101000a900473ffffffffffffffffffffffffffffffffffffffff1673ffffffffffffffffffffffffffffffffffffffff1681526020019060010190808311610c18575b50505050509250505090565b60018054600181600116156101000203166002900480601f016020809104026020016040519081016040528092919081815260200182805460018160011615610100020316600290048015610d045780601f10610cd957610100808354040283529160200191610d04565b820191906000526020600020905b815481529060010190602001808311610ce757829003601f168201915b505050505081565b6000809054906101000a900473ffffffffffffffffffffffffffffffffffffffff1673ffffffffffffffffffffffffffffffffffffffff163373ffffffffffffffffffffffffffffffffffffffff1614610dce576040517f08c379a000000000000000000000000000000000000000000000000000000000815260040180806020018281038252601e8152602001807fe6b2a1e69c89e69d83e99990e4bfaee694b9e6b4bbe58aa8e78ab6e68081000081525060200191505060405180910390fd5b80600560006101000a81548160ff021916908360ff1602179055507f2b5ee22f91457629e41f4592a9a6aafd4e4e2177daa5fb15b60017f0ca2476a960405160405180910390a150565b60008060009054906101000a900473ffffffffffffffffffffffffffffffffffffffff1690508073ffffffffffffffffffffffffffffffffffffffff1663a230c524836040518263ffffffff1660e01b8152600401808273ffffffffffffffffffffffffffffffffffffffff1673ffffffffffffffffffffffffffffffffffffffff16815260200191505060206040518083038186803b158015610ebb57600080fd5b505afa158015610ecf573d6000803e3d6000fd5b505050506040513d6020811015610ee557600080fd5b8101908080519060200190929190505050156110585760068290806001815401808255809150509060018203906000526020600020016000909192909190916101000a81548173ffffffffffffffffffffffffffffffffffffffff021916908373ffffffffffffffffffffffffffffffffffffffff1602179055505060008290508073ffffffffffffffffffffffffffffffffffffffff166333857a016040518163ffffffff1660e01b8152600401600060405180830381600087803b158015610fae57600080fd5b505af1158015610fc2573d6000803e3d6000fd5b505050508073ffffffffffffffffffffffffffffffffffffffff1663caee18cd6040518163ffffffff1660e01b8152600401600060405180830381600087803b15801561100e57600080fd5b505af1158015611022573d6000803e3d6000fd5b505050507f57c67a3af2fbc4eaca529d5e2772f20529ac07398c866f6ca268298ef577106260405160405180910390a150611151565b60078290806001815401808255809150509060018203906000526020600020016000909192909190916101000a81548173ffffffffffffffffffffffffffffffffffffffff021916908373ffffffffffffffffffffffffffffffffffffffff1602179055505060008290508073ffffffffffffffffffffffffffffffffffffffff166333857a016040518163ffffffff1660e01b8152600401600060405180830381600087803b15801561110b57600080fd5b505af115801561111f573d6000803e3d6000fd5b505050507fe52d635450089f4fe7af7689328e30b18b95687fb5fc0657ca1e8e9dd14b040660405160405180910390a1505b5050565b60028054600181600116156101000203166002900480601f0160208091040260200160405190810160405280929190818152602001828054600181600116156101000203166002900480156111eb5780601f106111c0576101008083540402835291602001916111eb565b820191906000526020600020905b8154815290600101906020018083116111ce57829003601f168201915b505050505081565b80600080905060008090505b600780549050811015611289578273ffffffffffffffffffffffffffffffffffffffff166007828154811061123057fe5b9060005260206000200160009054906101000a900473ffffffffffffffffffffffffffffffffffffffff1673ffffffffffffffffffffffffffffffffffffffff16141561127c57600191505b80806001019150506111ff565b50806112fd576040517f08c379a000000000000000000000000000000000000000000000000000000000815260040180806020018281038252601b8152602001807fe8afa5e68890e59198e6b2a1e69c89e68f90e4baa4e794b3e8afb7000000000081525060200191505060405180910390fd5b6000809054906101000a900473ffffffffffffffffffffffffffffffffffffffff1673ffffffffffffffffffffffffffffffffffffffff163373ffffffffffffffffffffffffffffffffffffffff16146113bf576040517f08c379a000000000000000000000000000000000000000000000000000000000815260040180806020018281038252601e8152602001807fe682a8e6b2a1e69c89e69d83e99990e8bf9be8a18ce6ada4e6938de4bd9c000081525060200191505060405180910390fd5b60008090505b600780549050811015611644578373ffffffffffffffffffffffffffffffffffffffff16600782815481106113f657fe5b9060005260206000200160009054906101000a900473ffffffffffffffffffffffffffffffffffffffff1673ffffffffffffffffffffffffffffffffffffffff1614156116375760008490508073ffffffffffffffffffffffffffffffffffffffff1663caee18cd6040518163ffffffff1660e01b8152600401600060405180830381600087803b15801561148a57600080fd5b505af115801561149e573d6000803e3d6000fd5b505050506007600160078054905003815481106114b757fe5b9060005260206000200160009054906101000a900473ffffffffffffffffffffffffffffffffffffffff16600783815481106114ef57fe5b9060005260206000200160006101000a81548173ffffffffffffffffffffffffffffffffffffffff021916908373ffffffffffffffffffffffffffffffffffffffff160217905550600780548061154257fe5b6001900381819060005260206000200160006101000a81549073ffffffffffffffffffffffffffffffffffffffff0219169055905560068590806001815401808255809150509060018203906000526020600020016000909192909190916101000a81548173ffffffffffffffffffffffffffffffffffffffff021916908373ffffffffffffffffffffffffffffffffffffffff160217905550507f57c67a3af2fbc4eaca529d5e2772f20529ac07398c866f6ca268298ef577106260405160405180910390a17fe52d635450089f4fe7af7689328e30b18b95687fb5fc0657ca1e8e9dd14b040660405160405180910390a1505b80806001019150506113c5565b50505050565b6000809054906101000a900473ffffffffffffffffffffffffffffffffffffffff1681565b6000809054906101000a900473ffffffffffffffffffffffffffffffffffffffff1673ffffffffffffffffffffffffffffffffffffffff163373ffffffffffffffffffffffffffffffffffffffff1614611731576040517f08c379a00000000000000000000000000000000000000000000000000000000081526004018080602001828103825260128152602001807fe697a0e69d83e58f91e98081e9809ae79fa5000000000000000000000000000081525060200191505060405180910390fd5b6008604051806060016040528085815260200184815260200183815250908060018154018082558091505090600182039060005260206000209060030201600090919290919091506000820151816000019080519060200190611795929190612014565b5060208201518160010190805190602001906117b2929190612014565b5060408201518160020190805190602001906117cf929190612014565b505050507f44cbc4ee4dcf9a162ffec2b31e2bfc043ba2bfae96f112752804672065535b326001600880549050036040518082815260200191505060405180910390a1505050565b60038054600181600116156101000203166002900480601f0160208091040260200160405190810160405280929190818152602001828054600181600116156101000203166002900480156118ad5780601f10611882576101008083540402835291602001916118ad565b820191906000526020600020905b81548152906001019060200180831161189057829003601f168201915b505050505081565b606080606033600080905060008090505b600680549050811015611950578273ffffffffffffffffffffffffffffffffffffffff16600682815481106118f757fe5b9060005260206000200160009054906101000a900473ffffffffffffffffffffffffffffffffffffffff1673ffffffffffffffffffffffffffffffffffffffff16141561194357600191505b80806001019150506118c6565b50806119a7576040517f08c379a000000000000000000000000000000000000000000000000000000000815260040180806020018281038252603681526020018061215b6036913960400191505060405180910390fd5b600886815481106119b457fe5b9060005260206000209060030201600001600887815481106119d257fe5b9060005260206000209060030201600101600888815481106119f057fe5b9060005260206000209060030201600201828054600181600116156101000203166002900480601f016020809104026020016040519081016040528092919081815260200182805460018160011615610100020316600290048015611a965780601f10611a6b57610100808354040283529160200191611a96565b820191906000526020600020905b815481529060010190602001808311611a7957829003601f168201915b50505050509250818054600181600116156101000203166002900480601f016020809104026020016040519081016040528092919081815260200182805460018160011615610100020316600290048015611b325780601f10611b0757610100808354040283529160200191611b32565b820191906000526020600020905b815481529060010190602001808311611b1557829003601f168201915b50505050509150808054600181600116156101000203166002900480601f016020809104026020016040519081016040528092919081815260200182805460018160011615610100020316600290048015611bce5780601f10611ba357610100808354040283529160200191611bce565b820191906000526020600020905b815481529060010190602001808311611bb157829003601f168201915b5050505050905094509450945050509193909250565b600560009054906101000a900460ff1681565b60606000809054906101000a900473ffffffffffffffffffffffffffffffffffffffff1673ffffffffffffffffffffffffffffffffffffffff163373ffffffffffffffffffffffffffffffffffffffff1614611c9e576040517f08c379a000000000000000000000000000000000000000000000000000000000815260040180806020018281038252602181526020018061213a6021913960400191505060405180910390fd5b6007805480602002602001604051908101604052809291908181526020018280548015611d2057602002820191906000526020600020905b8160009054906101000a900473ffffffffffffffffffffffffffffffffffffffff1673ffffffffffffffffffffffffffffffffffffffff1681526020019060010190808311611cd6575b5050505050905090565b600033600080905060008090505b600680549050811015611dc2578273ffffffffffffffffffffffffffffffffffffffff1660068281548110611d6957fe5b9060005260206000200160009054906101000a900473ffffffffffffffffffffffffffffffffffffffff1673ffffffffffffffffffffffffffffffffffffffff161415611db557600191505b8080600101915050611d38565b5080611e19576040517f08c379a000000000000000000000000000000000000000000000000000000000815260040180806020018281038252603681526020018061215b6036913960400191505060405180910390fd5b6008805490509250505090565b60048054600181600116156101000203166002900480601f016020809104026020016040519081016040528092919081815260200182805460018160011615610100020316600290048015611ebc5780601f10611e9157610100808354040283529160200191611ebc565b820191906000526020600020905b815481529060010190602001808311611e9f57829003601f168201915b505050505081565b6000809054906101000a900473ffffffffffffffffffffffffffffffffffffffff1673ffffffffffffffffffffffffffffffffffffffff163373ffffffffffffffffffffffffffffffffffffffff1614611f86576040517f08c379a00000000000000000000000000000000000000000000000000000000081526004018080602001828103825260188152602001807fe697a0e69d83e4bfaee694b9e6b4bbe58aa8e4bfa1e681af000000000000000081525060200191505060405180910390fd5b8360019080519060200190611f9c929190612094565b508260029080519060200190611fb3929190612094565b508160039080519060200190611fca929190612094565b508060049080519060200190611fe1929190612094565b507fb4580b6746e682457655cce57228aa50a1598359f2e37f064243e60937903b5060405160405180910390a150505050565b828054600181600116156101000203166002900490600052602060002090601f016020900481019282601f1061205557805160ff1916838001178555612083565b82800160010185558215612083579182015b82811115612082578251825591602001919060010190612067565b5b5090506120909190612114565b5090565b828054600181600116156101000203166002900490600052602060002090601f016020900481019282601f106120d557805160ff1916838001178555612103565b82800160010185558215612103579182015b828111156121025782518255916020019190600101906120e7565b5b5090506121109190612114565b5090565b61213691905b8082111561213257600081600090555060010161211a565b5090565b9056fee682a8e6b2a1e69c89e69d83e99990e69fa5e8afa2e794b3e8afb7e58897e8a1a8e4b88de698afe6b4bbe58aa8e68890e59198efbc8ce8afb7e58588e58aa0e585a5e6b4bbe58aa8e5868de8bf9be8a18ce6938de4bd9ca265627a7a7231582000946db97e0b09842b12a37eed38d137d4d1f0cd2e12a837944650773b2702a164736f6c6343000510003260806040523480156200001157600080fd5b5060405162001f7c38038062001f7c833981810160405260608110156200003757600080fd5b81019080805160405193929190846401000000008211156200005857600080fd5b838201915060208201858111156200006f57600080fd5b82518660018202830111640100000000821117156200008d57600080fd5b8083526020830192505050908051906020019080838360005b83811015620000c3578082015181840152602081019050620000a6565b50505050905090810190601f168015620000f15780820380516001836020036101000a031916815260200191505b5060405260200180519060200190929190805160405193929190846401000000008211156200011f57600080fd5b838201915060208201858111156200013657600080fd5b82518660208202830111640100000000821117156200015457600080fd5b8083526020830192505050908051906020019060200280838360005b838110156200018d57808201518184015260208101905062000170565b5050505090500160405250505033600160006101000a81548173ffffffffffffffffffffffffffffffffffffffff021916908373ffffffffffffffffffffffffffffffffffffffff1602179055508260009080519060200190620001f39291906200024c565b5080600290805190602001906200020c929190620002d3565b5081600160146101000a81548160ff0219169083151502179055506000600560006101000a81548160ff021916908360ff160217905550505050620003d0565b828054600181600116156101000203166002900490600052602060002090601f016020900481019282601f106200028f57805160ff1916838001178555620002c0565b82800160010185558215620002c0579182015b82811115620002bf578251825591602001919060010190620002a2565b5b509050620002cf919062000362565b5090565b8280548282559060005260206000209081019282156200034f579160200282015b828111156200034e5782518260006101000a81548173ffffffffffffffffffffffffffffffffffffffff021916908373ffffffffffffffffffffffffffffffffffffffff16021790555091602001919060010190620002f4565b5b5090506200035e91906200038a565b5090565b6200038791905b808211156200038357600081600090555060010162000369565b5090565b90565b620003cd91905b80821115620003c957600081816101000a81549073ffffffffffffffffffffffffffffffffffffffff02191690555060010162000391565b5090565b90565b611b9c80620003e06000396000f3fe608060405234801561001057600080fd5b50600436106100b45760003560e01c8063512dd02011610071578063512dd020146104af578063633df09e146104cd5780638da5cb5b14610505578063a3f8fb161461054f578063c3403ddf1461060b578063e764fe0614610615576100b4565b806303c87f77146100b957806306fdde03146100d7578063169a1d711461015a5780631ec6b60a1461034357806327e9f2941461034d5780633129e77314610408575b600080fd5b6100c1610794565b6040518082815260200191505060405180910390f35b6100df6108c6565b6040518080602001828103825283818151815260200191508051906020019080838360005b8381101561011f578082015181840152602081019050610104565b50505050905090810190601f16801561014c5780820380516001836020036101000a031916815260200191505b509250505060405180910390f35b6103416004803603606081101561017057600080fd5b810190808035906020019064010000000081111561018d57600080fd5b82018360208201111561019f57600080fd5b803590602001918460018302840111640100000000831117156101c157600080fd5b91908080601f016020809104026020016040519081016040528093929190818152602001838380828437600081840152601f19601f8201169050808301925050505050505091929192908035906020019064010000000081111561022457600080fd5b82018360208201111561023657600080fd5b8035906020019184600183028401116401000000008311171561025857600080fd5b91908080601f016020809104026020016040519081016040528093929190818152602001838380828437600081840152601f19601f820116905080830192505050505050509192919290803590602001906401000000008111156102bb57600080fd5b8201836020820111156102cd57600080fd5b803590602001918460018302840111640100000000831117156102ef57600080fd5b91908080601f016020809104026020016040519081016040528093929190818152602001838380828437600081840152601f19601f820116905080830192505050505050509192919290505050610964565b005b61034b610afa565b005b6104066004803603602081101561036357600080fd5b810190808035906020019064010000000081111561038057600080fd5b82018360208201111561039257600080fd5b803590602001918460018302840111640100000000831117156103b457600080fd5b91908080601f016020809104026020016040519081016040528093929190818152602001838380828437600081840152601f19601f820116905080830192505050505050509192919290505050610bdb565b005b6104346004803603602081101561041e57600080fd5b8101908080359060200190929190505050610d30565b6040518080602001828103825283818151815260200191508051906020019080838360005b83811015610474578082015181840152602081019050610459565b50505050905090810190601f1680156104a15780820380516001836020036101000a031916815260200191505b509250505060405180910390f35b6104b7610f15565b6040518082815260200191505060405180910390f35b610503600480360360408110156104e357600080fd5b810190808035906020019092919080359060200190929190505050611047565b005b61050d61138d565b604051808273ffffffffffffffffffffffffffffffffffffffff1673ffffffffffffffffffffffffffffffffffffffff16815260200191505060405180910390f35b61057b6004803603602081101561056557600080fd5b81019080803590602001909291905050506113b3565b6040518080602001858152602001848152602001838152602001828103825286818151815260200191508051906020019080838360005b838110156105cd5780820151818401526020810190506105b2565b50505050905090810190601f1680156105fa5780820380516001836020036101000a031916815260200191505b509550505050505060405180910390f35b61061361165b565b005b6106416004803603602081101561062b57600080fd5b810190808035906020019092919050505061173c565b60405180806020018060200180602001848103845287818151815260200191508051906020019080838360005b8381101561068957808201518184015260208101905061066e565b50505050905090810190601f1680156106b65780820380516001836020036101000a031916815260200191505b50848103835286818151815260200191508051906020019080838360005b838110156106ef5780820151818401526020810190506106d4565b50505050905090810190601f16801561071c5780820380516001836020036101000a031916815260200191505b50848103825285818151815260200191508051906020019080838360005b8381101561075557808201518184015260208101905061073a565b50505050905090810190601f1680156107825780820380516001836020036101000a031916815260200191505b50965050505050505060405180910390f35b600033600160149054906101000a900460ff166108ba57600080905060008090505b600280549050811015610844578273ffffffffffffffffffffffffffffffffffffffff16600282815481106107e757fe5b9060005260206000200160009054906101000a900473ffffffffffffffffffffffffffffffffffffffff1673ffffffffffffffffffffffffffffffffffffffff1614156108375760019150610844565b80806001019150506107b6565b50806108b8576040517f08c379a000000000000000000000000000000000000000000000000000000000815260040180806020018281038252601b8152602001807fe4b88de698afe68e88e69d83e79a84e68a95e7a5a8e4babae59198000000000081525060200191505060405180910390fd5b505b60068054905091505090565b60008054600181600116156101000203166002900480601f01602080910402602001604051908101604052809291908181526020018280546001816001161561010002031660029004801561095c5780601f106109315761010080835404028352916020019161095c565b820191906000526020600020905b81548152906001019060200180831161093f57829003601f168201915b505050505081565b600160009054906101000a900473ffffffffffffffffffffffffffffffffffffffff1673ffffffffffffffffffffffffffffffffffffffff163373ffffffffffffffffffffffffffffffffffffffff1614610a27576040517f08c379a00000000000000000000000000000000000000000000000000000000081526004018080602001828103825260158152602001807fe697a0e69d83e99990e58f91e98081e9809ae79fa5000000000000000000000081525060200191505060405180910390fd5b6006604051806060016040528085815260200184815260200183815250908060018154018082558091505090600182039060005260206000209060030201600090919290919091506000820151816000019080519060200190610a8b929190611aa1565b506020820151816001019080519060200190610aa8929190611aa1565b506040820151816002019080519060200190610ac5929190611aa1565b505050507f3abd65ac4fbe27ecec054c2af16912bad4356d4c4c552f14719550ae4276248860405160405180910390a1505050565b600160009054906101000a900473ffffffffffffffffffffffffffffffffffffffff1673ffffffffffffffffffffffffffffffffffffffff163373ffffffffffffffffffffffffffffffffffffffff1614610bbd576040517f08c379a00000000000000000000000000000000000000000000000000000000081526004018080602001828103825260098152602001807fe697a0e69d83e99990000000000000000000000000000000000000000000000081525060200191505060405180910390fd5b6001600560006101000a81548160ff021916908360ff160217905550565b600160009054906101000a900473ffffffffffffffffffffffffffffffffffffffff1673ffffffffffffffffffffffffffffffffffffffff163373ffffffffffffffffffffffffffffffffffffffff1614610c9e576040517f08c379a00000000000000000000000000000000000000000000000000000000081526004018080602001828103825260098152602001807fe697a0e69d83e99990000000000000000000000000000000000000000000000081525060200191505060405180910390fd5b6004604051806080016040528083815260200160008152602001600081526020016000815250908060018154018082558091505090600182039060005260206000209060040201600090919290919091506000820151816000019080519060200190610d0b929190611aa1565b5060208201518160010155604082015181600201556060820151816003015550505050565b606033600160149054906101000a900460ff16610e5657600080905060008090505b600280549050811015610de0578273ffffffffffffffffffffffffffffffffffffffff1660028281548110610d8357fe5b9060005260206000200160009054906101000a900473ffffffffffffffffffffffffffffffffffffffff1673ffffffffffffffffffffffffffffffffffffffff161415610dd35760019150610de0565b8080600101915050610d52565b5080610e54576040517f08c379a000000000000000000000000000000000000000000000000000000000815260040180806020018281038252601b8152602001807fe4b88de698afe68e88e69d83e79a84e68a95e7a5a8e4babae59198000000000081525060200191505060405180910390fd5b505b60048381548110610e6357fe5b90600052602060002090600402016000018054600181600116156101000203166002900480601f016020809104026020016040519081016040528092919081815260200182805460018160011615610100020316600290048015610f085780601f10610edd57610100808354040283529160200191610f08565b820191906000526020600020905b815481529060010190602001808311610eeb57829003601f168201915b5050505050915050919050565b600033600160149054906101000a900460ff1661103b57600080905060008090505b600280549050811015610fc5578273ffffffffffffffffffffffffffffffffffffffff1660028281548110610f6857fe5b9060005260206000200160009054906101000a900473ffffffffffffffffffffffffffffffffffffffff1673ffffffffffffffffffffffffffffffffffffffff161415610fb85760019150610fc5565b8080600101915050610f37565b5080611039576040517f08c379a000000000000000000000000000000000000000000000000000000000815260040180806020018281038252601b8152602001807fe4b88de698afe68e88e69d83e79a84e68a95e7a5a8e4babae59198000000000081525060200191505060405180910390fd5b505b60048054905091505090565b33600160149054906101000a900460ff1661116b57600080905060008090505b6002805490508110156110f5578273ffffffffffffffffffffffffffffffffffffffff166002828154811061109857fe5b9060005260206000200160009054906101000a900473ffffffffffffffffffffffffffffffffffffffff1673ffffffffffffffffffffffffffffffffffffffff1614156110e857600191506110f5565b8080600101915050611067565b5080611169576040517f08c379a000000000000000000000000000000000000000000000000000000000815260040180806020018281038252601b8152602001807fe4b88de698afe68e88e69d83e79a84e68a95e7a5a8e4babae59198000000000081525060200191505060405180910390fd5b505b600080905060008090505b600380549050811015611204573373ffffffffffffffffffffffffffffffffffffffff16600382815481106111a757fe5b9060005260206000200160009054906101000a900473ffffffffffffffffffffffffffffffffffffffff1673ffffffffffffffffffffffffffffffffffffffff1614156111f75760019150611204565b8080600101915050611176565b508015611279576040517f08c379a00000000000000000000000000000000000000000000000000000000081526004018080602001828103825260128152602001807fe4b88de8a681e9878de5a48de68a95e7a5a8000000000000000000000000000081525060200191505060405180910390fd5b60008314156112b5576004848154811061128f57fe5b906000526020600020906004020160020160008154809291906001019190505550611321565b60018314156112f157600484815481106112cb57fe5b906000526020600020906004020160010160008154809291906001019190505550611320565b600484815481106112fe57fe5b9060005260206000209060040201600301600081548092919060010191905055505b5b60033390806001815401808255809150509060018203906000526020600020016000909192909190916101000a81548173ffffffffffffffffffffffffffffffffffffffff021916908373ffffffffffffffffffffffffffffffffffffffff1602179055505050505050565b600160009054906101000a900473ffffffffffffffffffffffffffffffffffffffff1681565b6060600080600033600080905060008090505b600380549050811015611454578273ffffffffffffffffffffffffffffffffffffffff16600382815481106113f757fe5b9060005260206000200160009054906101000a900473ffffffffffffffffffffffffffffffffffffffff1673ffffffffffffffffffffffffffffffffffffffff1614156114475760019150611454565b80806001019150506113c6565b50806114c8576040517f08c379a00000000000000000000000000000000000000000000000000000000081526004018080602001828103825260158152602001807fe68a95e7a5a8e5908ee6898de58fafe8aebfe997ae000000000000000000000081525060200191505060405180910390fd5b6002600560009054906101000a900460ff1660ff1614611533576040517f08c379a0000000000000000000000000000000000000000000000000000000008152600401808060200182810382526021815260200180611b476021913960400191505060405180910390fd5b6004878154811061154057fe5b90600052602060002090600402016000016004888154811061155e57fe5b9060005260206000209060040201600101546004898154811061157d57fe5b90600052602060002090600402016002015460048a8154811061159c57fe5b906000526020600020906004020160030154838054600181600116156101000203166002900480601f0160208091040260200160405190810160405280929190818152602001828054600181600116156101000203166002900480156116435780601f1061161857610100808354040283529160200191611643565b820191906000526020600020905b81548152906001019060200180831161162657829003601f168201915b50505050509350955095509550955050509193509193565b600160009054906101000a900473ffffffffffffffffffffffffffffffffffffffff1673ffffffffffffffffffffffffffffffffffffffff163373ffffffffffffffffffffffffffffffffffffffff161461171e576040517f08c379a00000000000000000000000000000000000000000000000000000000081526004018080602001828103825260098152602001807fe697a0e69d83e99990000000000000000000000000000000000000000000000081525060200191505060405180910390fd5b6002600560006101000a81548160ff021916908360ff160217905550565b606080606033600160149054906101000a900460ff1661186557600080905060008090505b6002805490508110156117ef578273ffffffffffffffffffffffffffffffffffffffff166002828154811061179257fe5b9060005260206000200160009054906101000a900473ffffffffffffffffffffffffffffffffffffffff1673ffffffffffffffffffffffffffffffffffffffff1614156117e257600191506117ef565b8080600101915050611761565b5080611863576040517f08c379a000000000000000000000000000000000000000000000000000000000815260040180806020018281038252601b8152602001807fe4b88de698afe68e88e69d83e79a84e68a95e7a5a8e4babae59198000000000081525060200191505060405180910390fd5b505b6006858154811061187257fe5b90600052602060002090600302016000016006868154811061189057fe5b9060005260206000209060030201600101600687815481106118ae57fe5b9060005260206000209060030201600201828054600181600116156101000203166002900480601f0160208091040260200160405190810160405280929190818152602001828054600181600116156101000203166002900480156119545780601f1061192957610100808354040283529160200191611954565b820191906000526020600020905b81548152906001019060200180831161193757829003601f168201915b50505050509250818054600181600116156101000203166002900480601f0160208091040260200160405190810160405280929190818152602001828054600181600116156101000203166002900480156119f05780601f106119c5576101008083540402835291602001916119f0565b820191906000526020600020905b8154815290600101906020018083116119d357829003601f168201915b50505050509150808054600181600116156101000203166002900480601f016020809104026020016040519081016040528092919081815260200182805460018160011615610100020316600290048015611a8c5780601f10611a6157610100808354040283529160200191611a8c565b820191906000526020600020905b815481529060010190602001808311611a6f57829003601f168201915b50505050509050935093509350509193909250565b828054600181600116156101000203166002900490600052602060002090601f016020900481019282601f10611ae257805160ff1916838001178555611b10565b82800160010185558215611b10579182015b82811115611b0f578251825591602001919060010190611af4565b5b509050611b1d9190611b21565b5090565b611b4391905b80821115611b3f576000816000905550600101611b27565b5090565b9056fee8afb7e68a95e7a5a8e7bb93e69d9fe5908ee5868de69fa5e79c8be7bb93e69e9ca265627a7a72315820df2c66047b84b8c10cc1e4ffe64a00e72b827bcbd49e64e34e918ed67d188ded64736f6c63430005100032a265627a7a72315820f5b61649875aa98ae71c582360499b7096241ec236eeefbdebacc602fe25338e64736f6c63430005100032",
  "source": "pragma solidity ^0.5.0;\n\nimport \"./User.sol\";\nimport \"../entities/Activity.sol\";\nimport \"../entities/Vote.sol\";\n\n\ncontract Club {\n    bytes32 public name; //\n\n    //////////////////////////////////////////////////\n    ///////////////////////////////////////////////\n    //////////////////////////////////////////////////\n\n    constructor(bytes32 _name, address _presidium) public {\n        name = _name;\n        presidium = _presidium;\n    }\n\n    //////////////////////////////////////////////////\n    /////////////////////////////\n    //////////////////////////////////////////////////\n\n    //\n    address public presidium; //\n    address[] public ministers; //\n    address[] members; //\n\n    address[] applicants; //\n    mapping(address => string) applicantsMsg; //\n\n    //\n    event memberChangeEvent();\n\n    function applyForJoin(string memory message) public {\n        //\n        User user = User(msg.sender);\n        user.getUserInfo(); //\n        //\n        //\n        for (uint256 i = 0; i < applicants.length; i++) {\n            if (applicants[i] == msg.sender) {\n                return;\n            }\n        }\n        applicants.push(msg.sender);\n        applicantsMsg[msg.sender] = message;\n    }\n\n    //\n    function getApplyAmount() public view onlyPresidium returns (uint256) {\n        return applicants.length;\n    }\n\n    //\n    function getApply(uint256 index)\n        public\n        view\n        onlyPresidium\n        returns (string memory)\n    {\n        return applicantsMsg[applicants[index]];\n    }\n\n    //\n    function reviewApply(uint256 index, bool pass) public onlyPresidium {\n        User user = User(applicants[index]);\n        if (pass) {\n            //userapplyPass\n            user.applyPass();\n            //,\n            emit memberChangeEvent();\n        } else {\n            user.applyRefus();\n        }\n\n        //\n        applicants[index] = applicants[applicants.length - 1];\n        applicants.pop();\n    }\n\n    //, \n    function withdraw() public onlyMember(msg.sender) {\n        for (uint256 i = 0; i < members.length; i++) {\n            if (members[i] == msg.sender) {\n                members[i] = members[members.length - 1];\n                members.pop();\n\n                emit memberChangeEvent();\n            }\n        }\n    }\n\n    //\n\n    event ministerChangeEvent();\n\n    function appointMinisters(address mini)\n        public\n        onlyPresidium\n        onlyMember(mini)\n    {\n        //\n        for (uint256 i = 0; i < members.length; i++) {\n            if (members[i] == mini) {\n                members[i] = members[members.length - 1];\n                members.pop();\n            }\n        }\n        //\n        ministers.push(mini);\n\n        emit ministerChangeEvent();\n    }\n\n    //\n    function dismisstMinisters(address mini)\n        public\n        onlyPresidium\n        onlyMinister(mini)\n    {\n        //\n        for (uint256 i = 0; i < ministers.length; i++) {\n            if (ministers[i] == mini) {\n                ministers[i] = ministers[members.length - 1];\n                ministers.pop();\n\n                emit ministerChangeEvent();\n\n                break;\n            }\n        }\n        //\n        members.push(mini);\n\n        emit memberChangeEvent();\n    }\n\n    //\n    function selfDismiss() public onlyMinister(msg.sender) {\n        //\n        for (uint256 i = 0; i < ministers.length; i++) {\n            if (ministers[i] == msg.sender) {\n                ministers[i] = ministers[members.length - 1];\n                ministers.pop();\n\n                emit ministerChangeEvent();\n\n                break;\n            }\n        }\n        //\n        members.push(msg.sender);\n\n        emit memberChangeEvent();\n    }\n\n    //////////////////////////////////////////////////\n    ///////////////////////////////////\n    //////////////////////////////////////////////////\n\n    notification[] notifications; //\n    struct notification {\n        string title;\n        string date; //yyyy-MM-dd-hh-mm-ss\n        string info;\n    }\n\n    //\n    event newMessageEvent(uint256 index);\n\n    function message(\n        string memory _title,\n        string memory _date,\n        string memory _info\n    ) public onlyPresidium {\n        notifications.push(\n            notification({title: _title, date: _date, info: _info})\n        );\n\n        emit newMessageEvent(notifications.length - 1);\n    }\n\n    //\n    function getNotification(uint256 index)\n        public\n        view\n        onlyPart(msg.sender)\n        returns (string memory title, string memory date, string memory info)\n    {\n        return (\n            notifications[index].title,\n            notifications[index].date,\n            notifications[index].info\n        );\n    }\n\n    //\n    function getNotifiAmount()\n        public\n        view\n        onlyPart(msg.sender)\n        returns (uint256 amount)\n    {\n        return notifications.length;\n    }\n\n    //////////////////////////////////////////////////\n    ///////////////////////////////////\n    //////////////////////////////////////////////////\n\n    address[] activities; //\n\n    event newActEvent(address addr);\n\n    //\n    function newActivity(\n        string memory _name,\n        string memory _date,\n        string memory _locate,\n        string memory _message\n    ) public onlyPresidium {\n        address addr = address(new Activity(_name, _date, _locate, _message));\n        activities.push(addr);\n\n        emit newActEvent(addr);\n    }\n\n    function changeActState(address _act, uint8 _state)\n        public\n        onlyMinister(msg.sender)\n    {\n        Activity act = Activity(_act);\n        act.changeState(_state);\n    }\n\n    function changeActInfo(\n        address _act,\n        string memory _name,\n        string memory _date,\n        string memory _locate,\n        string memory _message\n    ) public onlyMinister(msg.sender) {\n        Activity act = Activity(_act);\n        act.changeInfo(_name, _date, _locate, _message);\n    }\n\n    //(\n    function isMember(address addr) public view returns (bool) {\n        //\n        bool flag = false;\n        for (uint256 i = 0; i < activities.length; i++) {\n            if (activities[i] == msg.sender) {\n                flag = true;\n            }\n        }\n        Activity act = Activity(msg.sender);\n        address actAddr = act.owner();\n        require(\n            msg.sender == address(this) && actAddr == address(this),\n            \"\"\n        );\n\n        //\n        bool memFlag = false;\n        if (addr == presidium) {\n            memFlag = true;\n        }\n        if (!memFlag) {\n            for (uint256 i = 0; i < ministers.length; i++) {\n                if (ministers[i] == addr) {\n                    memFlag = true;\n                    break;\n                }\n            }\n        }\n\n        if (!memFlag) {\n            for (uint256 i = 0; i < members.length; i++) {\n                if (members[i] == addr) {\n                    memFlag = true;\n                    break;\n                }\n            }\n        }\n\n        return memFlag;\n    }\n\n    //////////////////////////////////////////////////\n    ///////////////////////////////////\n    //////////////////////////////////////////////////\n\n    address[] votes; //\n\n    //\n    event newVoteEvent(address vote);\n\n    function addVote(string memory _name, bool open, address[] memory voter)\n        public\n        onlyPresidium\n    {\n        address addr = address(new Vote(_name, open, voter));\n        votes.push(addr);\n\n        emit newVoteEvent(addr);\n    }\n\n    //\n    function getVote()\n        public\n        view\n        onlyPart(msg.sender)\n        returns (address[] memory _votes)\n    {\n        return votes;\n    }\n\n    //\n    function addVoteItem(address vote, string memory description)\n        public\n        onlyPresidium\n    {\n        Vote v = Vote(vote);\n\n        v.addItem(description);\n    }\n\n    //\n    event votingStartEvent(address vote);\n\n    function startVote(address vote) public onlyPresidium {\n        Vote v = Vote(vote);\n\n        v.startVoting();\n\n        emit votingStartEvent(vote);\n    }\n\n    //\n    event votingEndEvent(address vote);\n\n    function endVote(address vote) public onlyPresidium {\n        Vote v = Vote(vote);\n\n        v.endVoting();\n\n        emit votingEndEvent(vote);\n    }\n\n    //////////////////////////////////////////////////\n    ///////////////////////////////\n    //////////////////////////////////////////////////\n\n    modifier onlyPresidium() {\n        require(msg.sender == presidium, \"\");\n        _;\n    }\n\n    modifier onlyMember(address addr) {\n        bool flag = false;\n        for (uint256 i = 0; i < members.length; i++) {\n            if (members[i] == addr) {\n                flag = true;\n                break;\n            }\n        }\n        require(flag, \"\");\n        _;\n    }\n\n    //\n    modifier onlyMinister(address addr) {\n        bool flag = false;\n        for (uint256 i = 0; i < ministers.length; i++) {\n            if (ministers[i] == addr) {\n                flag = true;\n                break;\n            }\n        }\n        require(flag || addr == presidium, \"\");\n        _;\n    }\n\n    //\n    modifier onlyPart(address addr) {\n        //\n        bool flag = false;\n        if (msg.sender == presidium) {\n            flag = true;\n        }\n        //k\n        if (!flag) {\n            for (uint256 i = 0; i < ministers.length; i++) {\n                if (ministers[i] == msg.sender) {\n                    flag = true;\n                    break;\n                }\n            }\n        }\n        //\n        if (!flag) {\n            for (uint256 i = 0; i < members.length; i++) {\n                if (members[i] == msg.sender) {\n                    flag = true;\n                    break;\n                }\n            }\n        }\n\n        require(flag, \"\");\n        _;\n    }\n}\n",
  "sourcePath": "/home/xuhao/CMS/contracts/roles/Club.sol",
  "compiler": {
    "name": "solc",
    "version": "0.5.16+commit.9c3226ce.Emscripten.clang"
  },
  "schemaVersion": "3.0.23",
  "updatedAt": "2020-04-07T08:55:18.863Z",
  "devdoc": {
    "methods": {}
  },
  "userdoc": {
    "methods": {
      "constructor": "/////////////////////////////////////////////// //////////////////////////////////////////// ///////////////////////////////////////////////"
    }
  }
}