{
  "contractName": "ClubManager",
  "abi": [
    {
      "constant": false,
      "inputs": [
        {
          "internalType": "bytes32",
          "name": "_name",
          "type": "bytes32"
        },
        {
          "internalType": "address",
          "name": "_presidium",
          "type": "address"
        }
      ],
      "name": "newClub",
      "outputs": [
        {
          "internalType": "address",
          "name": "mClub",
          "type": "address"
        }
      ],
      "payable": false,
      "stateMutability": "nonpayable",
      "type": "function"
    },
    {
      "constant": false,
      "inputs": [
        {
          "internalType": "bytes32",
          "name": "_name",
          "type": "bytes32"
        },
        {
          "internalType": "address",
          "name": "_presidium",
          "type": "address"
        },
        {
          "internalType": "string",
          "name": "_message",
          "type": "string"
        }
      ],
      "name": "applyNewClub",
      "outputs": [],
      "payable": false,
      "stateMutability": "nonpayable",
      "type": "function"
    },
    {
      "constant": false,
      "inputs": [
        {
          "internalType": "address",
          "name": "center",
          "type": "address"
        }
      ],
      "name": "setManagerCenter",
      "outputs": [],
      "payable": false,
      "stateMutability": "nonpayable",
      "type": "function"
    }
  ],
  "bytecode": "0x608060405234801561001057600080fd5b50610d03806100206000396000f3fe608060405234801561001057600080fd5b50600436106100415760003560e01c806336f8096c1461004657806393e0fe0c1461012b578063d70914ec146101b9575b600080fd5b6101296004803603606081101561005c57600080fd5b8101908080359060200190929190803573ffffffffffffffffffffffffffffffffffffffff169060200190929190803590602001906401000000008111156100a357600080fd5b8201836020820111156100b557600080fd5b803590602001918460018302840111640100000000831117156100d757600080fd5b91908080601f016020809104026020016040519081016040528093929190818152602001838380828437600081840152601f19601f8201169050808301925050505050505091929192905050506101fd565b005b6101776004803603604081101561014157600080fd5b8101908080359060200190929190803573ffffffffffffffffffffffffffffffffffffffff1690602001909291905050506105c7565b604051808273ffffffffffffffffffffffffffffffffffffffff1673ffffffffffffffffffffffffffffffffffffffff16815260200191505060405180910390f35b6101fb600480360360208110156101cf57600080fd5b81019080803573ffffffffffffffffffffffffffffffffffffffff1690602001909291905050506107e7565b005b6000809054906101000a900473ffffffffffffffffffffffffffffffffffffffff1673ffffffffffffffffffffffffffffffffffffffff1663995e03bb6040518163ffffffff1660e01b815260040160206040518083038186803b15801561026457600080fd5b505afa158015610278573d6000803e3d6000fd5b505050506040513d602081101561028e57600080fd5b810190808051906020019092919050505073ffffffffffffffffffffffffffffffffffffffff163373ffffffffffffffffffffffffffffffffffffffff161461033f576040517f08c379a00000000000000000000000000000000000000000000000000000000081526004018080602001828103825260138152602001807fe4b88de698af4d61737465724d616e616765720000000000000000000000000081525060200191505060405180910390fd5b60008060009054906101000a900473ffffffffffffffffffffffffffffffffffffffff1673ffffffffffffffffffffffffffffffffffffffff16635c8a76876040518163ffffffff1660e01b815260040160206040518083038186803b1580156103a857600080fd5b505afa1580156103bc573d6000803e3d6000fd5b505050506040513d60208110156103d257600080fd5b810190808051906020019092919050505090508073ffffffffffffffffffffffffffffffffffffffff16634209fff1846040518263ffffffff1660e01b8152600401808273ffffffffffffffffffffffffffffffffffffffff1673ffffffffffffffffffffffffffffffffffffffff16815260200191505060206040518083038186803b15801561046257600080fd5b505afa158015610476573d6000803e3d6000fd5b505050506040513d602081101561048c57600080fd5b81019080805190602001909291905050506104f2576040517f08c379a000000000000000000000000000000000000000000000000000000000815260040180806020018281038252602d815260200180610c80602d913960400191505060405180910390fd5b600260405180606001604052808681526020018573ffffffffffffffffffffffffffffffffffffffff16815260200184815250908060018154018082558091505090600182039060005260206000209060030201600090919290919091506000820151816000015560208201518160010160006101000a81548173ffffffffffffffffffffffffffffffffffffffff021916908373ffffffffffffffffffffffffffffffffffffffff16021790555060408201518160020190805190602001906105bd92919061096d565b5050505050505050565b60008060009054906101000a900473ffffffffffffffffffffffffffffffffffffffff1673ffffffffffffffffffffffffffffffffffffffff1663995e03bb6040518163ffffffff1660e01b815260040160206040518083038186803b15801561063057600080fd5b505afa158015610644573d6000803e3d6000fd5b505050506040513d602081101561065a57600080fd5b810190808051906020019092919050505073ffffffffffffffffffffffffffffffffffffffff163373ffffffffffffffffffffffffffffffffffffffff161461070b576040517f08c379a00000000000000000000000000000000000000000000000000000000081526004018080602001828103825260138152602001807fe4b88de698af4d61737465724d616e616765720000000000000000000000000081525060200191505060405180910390fd5b6000838360405161071b906109ed565b808381526020018273ffffffffffffffffffffffffffffffffffffffff1673ffffffffffffffffffffffffffffffffffffffff16815260200192505050604051809103906000f080158015610774573d6000803e3d6000fd5b50905060018190806001815401808255809150509060018203906000526020600020016000909192909190916101000a81548173ffffffffffffffffffffffffffffffffffffffff021916908373ffffffffffffffffffffffffffffffffffffffff160217905550508091505092915050565b60008073ffffffffffffffffffffffffffffffffffffffff166000809054906101000a900473ffffffffffffffffffffffffffffffffffffffff1673ffffffffffffffffffffffffffffffffffffffff16141561088357816000806101000a81548173ffffffffffffffffffffffffffffffffffffffff021916908373ffffffffffffffffffffffffffffffffffffffff160217905550610969565b6000809054906101000a900473ffffffffffffffffffffffffffffffffffffffff1673ffffffffffffffffffffffffffffffffffffffff163373ffffffffffffffffffffffffffffffffffffffff1614610928576040517f08c379a0000000000000000000000000000000000000000000000000000000008152600401808060200182810382526022815260200180610cad6022913960400191505060405180910390fd5b816000806101000a81548173ffffffffffffffffffffffffffffffffffffffff021916908373ffffffffffffffffffffffffffffffffffffffff1602179055505b5050565b828054600181600116156101000203166002900490600052602060002090601f016020900481019282601f106109ae57805160ff19168380011785556109dc565b828001600101855582156109dc579182015b828111156109db5782518255916020019190600101906109c0565b5b5090506109e991906109fa565b5090565b61026080610a2083390190565b610a1c91905b80821115610a18576000816000905550600101610a00565b5090565b9056fe608060405234801561001057600080fd5b506040516102603803806102608339818101604052604081101561003357600080fd5b8101908080519060200190929190805190602001909291905050508160008190555080600160006101000a81548173ffffffffffffffffffffffffffffffffffffffff021916908373ffffffffffffffffffffffffffffffffffffffff16021790555050506101b9806100a76000396000f3fe608060405234801561001057600080fd5b50600436106100415760003560e01c806306fdde03146100465780636f971f2a14610064578063ab779c45146100d2575b600080fd5b61004e61011c565b6040518082815260200191505060405180910390f35b6100906004803603602081101561007a57600080fd5b8101908080359060200190929190505050610122565b604051808273ffffffffffffffffffffffffffffffffffffffff1673ffffffffffffffffffffffffffffffffffffffff16815260200191505060405180910390f35b6100da61015e565b604051808273ffffffffffffffffffffffffffffffffffffffff1673ffffffffffffffffffffffffffffffffffffffff16815260200191505060405180910390f35b60005481565b6002818154811061012f57fe5b906000526020600020016000915054906101000a900473ffffffffffffffffffffffffffffffffffffffff1681565b600160009054906101000a900473ffffffffffffffffffffffffffffffffffffffff168156fea265627a7a72315820d7a9fde867438d121d10b5b6d189425ad4e5be02a706f0fc59af745eaa04208464736f6c63430005100032e4b8bbe5b8ade59ba2e68890e59198e5bf85e9a1bbe6b3a8e5868ce4b8aae4babae4bfa1e681afe59088e7baa6e697a0e69d83e4bfaee694b96d616e6167657243656e746572e79a84e59cb0e59d80a265627a7a7231582031bc7103109faf744818eb0b517356ed108736c6fb90d9059b0e29eb4787deeb64736f6c63430005100032",
  "source": "pragma solidity ^0.5.0;\n\nimport \"./ManagerCenter.sol\";\nimport \"../roles/Club.sol\";\nimport \"../managers/UserManager.sol\";\n\ncontract ClubManager {\n    address managerCenter;\n\n    address[] clubs; //社团列表\n\n    clubApply[] clubApplies; //申请创建社团的列表\n    struct clubApply {\n        bytes32 name;\n        address presidium;\n        string message;\n    }\n    ///////////权限////////////\n\n    modifier onlyMasterManager() {\n        require(\n            msg.sender == ManagerCenter(managerCenter).masterManager(),\n            \"不是MasterManager\"\n        );\n        _;\n    }\n\n    ///////////函数////////////\n\n    function newClub(bytes32 _name, address _presidium)\n        public\n        onlyMasterManager\n        returns (address mClub)\n    {\n        address addr = address(new Club(_name, _presidium));\n        clubs.push(addr);\n        return addr;\n    }\n\n    function applyNewClub(\n        bytes32 _name,\n        address _presidium,\n        string memory _message\n    ) public onlyMasterManager {\n        //获取用户管理合约的实例\n        UserManager um = UserManager(ManagerCenter(managerCenter).userManager());\n        //首先检查主席是否已经注册个人信息\n        require(um.isUser(_presidium), \"主席团成员必须注册个人信息合约\");\n\n        //记录申请\n        clubApplies.push(\n            clubApply({name: _name, presidium: _presidium, message: _message})\n        );\n    }\n\n    function setManagerCenter(address center) public {\n        address blank;\n        if (managerCenter == blank) {\n            managerCenter = center;\n        } else {\n            require(msg.sender == managerCenter, \"无权修改managerCenter的地址\");\n            managerCenter = center;\n        }\n    }\n}\n",
  "sourcePath": "/Users/xuhao/dapps/CMS/contracts/managers/ClubManager.sol",
  "compiler": {
    "name": "solc",
    "version": "0.5.16+commit.9c3226ce.Emscripten.clang"
  },
  "schemaVersion": "3.0.23",
  "updatedAt": "2020-03-25T08:30:06.174Z",
  "networkType": "ethereum",
  "devdoc": {
    "methods": {}
  },
  "userdoc": {
    "methods": {
      "newClub(bytes32,address)": {
        "notice": "////////函数////////////"
      }
    }
  }
}