{
  "contractName": "ClubManager",
  "abi": [
    {
      "constant": false,
      "inputs": [
        {
          "internalType": "bytes32",
          "name": "_name",
          "type": "bytes32"
        },
        {
          "internalType": "address",
          "name": "_presidium",
          "type": "address"
        },
        {
          "internalType": "string",
          "name": "_message",
          "type": "string"
        }
      ],
      "name": "applyNewClub",
      "outputs": [],
      "payable": false,
      "stateMutability": "nonpayable",
      "type": "function"
    },
    {
      "constant": true,
      "inputs": [],
      "name": "getAppliesAmount",
      "outputs": [
        {
          "internalType": "uint256",
          "name": "",
          "type": "uint256"
        }
      ],
      "payable": false,
      "stateMutability": "view",
      "type": "function"
    },
    {
      "constant": true,
      "inputs": [
        {
          "internalType": "uint256",
          "name": "index",
          "type": "uint256"
        }
      ],
      "name": "getApplyInfo",
      "outputs": [
        {
          "internalType": "bytes32",
          "name": "_name",
          "type": "bytes32"
        },
        {
          "internalType": "address",
          "name": "_presidium",
          "type": "address"
        },
        {
          "internalType": "string",
          "name": "_message",
          "type": "string"
        }
      ],
      "payable": false,
      "stateMutability": "view",
      "type": "function"
    },
    {
      "constant": false,
      "inputs": [
        {
          "internalType": "uint256",
          "name": "index",
          "type": "uint256"
        },
        {
          "internalType": "bool",
          "name": "pass",
          "type": "bool"
        },
        {
          "internalType": "string",
          "name": "time",
          "type": "string"
        }
      ],
      "name": "reviewApply",
      "outputs": [],
      "payable": false,
      "stateMutability": "nonpayable",
      "type": "function"
    },
    {
      "constant": false,
      "inputs": [
        {
          "internalType": "address",
          "name": "center",
          "type": "address"
        }
      ],
      "name": "setManagerCenter",
      "outputs": [],
      "payable": false,
      "stateMutability": "nonpayable",
      "type": "function"
    }
  ],
  "bytecode": "0x608060405234801561001057600080fd5b5061367b806100206000396000f3fe608060405234801561001057600080fd5b50600436106100575760003560e01c806336f8096c1461005c5780634f12ee17146101415780636ee9a1921461015f578063d70914ec14610230578063e39b9b1e14610274575b600080fd5b61013f6004803603606081101561007257600080fd5b8101908080359060200190929190803573ffffffffffffffffffffffffffffffffffffffff169060200190929190803590602001906401000000008111156100b957600080fd5b8201836020820111156100cb57600080fd5b803590602001918460018302840111640100000000831117156100ed57600080fd5b91908080601f016020809104026020016040519081016040528093929190818152602001838380828437600081840152601f19601f820116905080830192505050505050509192919290505050610355565b005b6101496108fd565b6040518082815260200191505060405180910390f35b61022e6004803603606081101561017557600080fd5b8101908080359060200190929190803515159060200190929190803590602001906401000000008111156101a857600080fd5b8201836020820111156101ba57600080fd5b803590602001918460018302840111640100000000831117156101dc57600080fd5b91908080601f016020809104026020016040519081016040528093929190818152602001838380828437600081840152601f19601f820116905080830192505050505050509192919290505050610a4c565b005b6102726004803603602081101561024657600080fd5b81019080803573ffffffffffffffffffffffffffffffffffffffff169060200190929190505050611279565b005b6102a06004803603602081101561028a57600080fd5b81019080803590602001909291905050506113ff565b604051808481526020018373ffffffffffffffffffffffffffffffffffffffff1673ffffffffffffffffffffffffffffffffffffffff16815260200180602001828103825283818151815260200191508051906020019080838360005b838110156103185780820151818401526020810190506102fd565b50505050905090810190601f1680156103455780820380516001836020036101000a031916815260200191505b5094505050505060405180910390f35b6000809054906101000a900473ffffffffffffffffffffffffffffffffffffffff1673ffffffffffffffffffffffffffffffffffffffff1663995e03bb6040518163ffffffff1660e01b815260040160206040518083038186803b1580156103bc57600080fd5b505afa1580156103d0573d6000803e3d6000fd5b505050506040513d60208110156103e657600080fd5b810190808051906020019092919050505073ffffffffffffffffffffffffffffffffffffffff163373ffffffffffffffffffffffffffffffffffffffff1614610497576040517f08c379a00000000000000000000000000000000000000000000000000000000081526004018080602001828103825260138152602001807fe4b88de698af4d61737465724d616e616765720000000000000000000000000081525060200191505060405180910390fd5b60008060009054906101000a900473ffffffffffffffffffffffffffffffffffffffff1673ffffffffffffffffffffffffffffffffffffffff16635c8a76876040518163ffffffff1660e01b815260040160206040518083038186803b15801561050057600080fd5b505afa158015610514573d6000803e3d6000fd5b505050506040513d602081101561052a57600080fd5b810190808051906020019092919050505090508073ffffffffffffffffffffffffffffffffffffffff16634209fff1846040518263ffffffff1660e01b8152600401808273ffffffffffffffffffffffffffffffffffffffff1673ffffffffffffffffffffffffffffffffffffffff16815260200191505060206040518083038186803b1580156105ba57600080fd5b505afa1580156105ce573d6000803e3d6000fd5b505050506040513d60208110156105e457600080fd5b810190808051906020019092919050505061064a576040517f08c379a00000000000000000000000000000000000000000000000000000000081526004018080602001828103825260248152602001806136016024913960400191505060405180910390fd5b60008173ffffffffffffffffffffffffffffffffffffffff1663a87430ba856040518263ffffffff1660e01b8152600401808273ffffffffffffffffffffffffffffffffffffffff1673ffffffffffffffffffffffffffffffffffffffff16815260200191505060206040518083038186803b1580156106c957600080fd5b505afa1580156106dd573d6000803e3d6000fd5b505050506040513d60208110156106f357600080fd5b810190808051906020019092919050505090503073ffffffffffffffffffffffffffffffffffffffff168173ffffffffffffffffffffffffffffffffffffffff16638e8df1ed6040518163ffffffff1660e01b815260040160206040518083038186803b15801561076357600080fd5b505afa158015610777573d6000803e3d6000fd5b505050506040513d602081101561078d57600080fd5b810190808051906020019092919050505073ffffffffffffffffffffffffffffffffffffffff1614610827576040517f08c379a000000000000000000000000000000000000000000000000000000000815260040180806020018281038252601e8152602001807fe4b8bbe5b8ade5bf85e9a1bbe68e88e4ba88e4b8b4e697b6e69d83e99990000081525060200191505060405180910390fd5b600260405180606001604052808781526020018673ffffffffffffffffffffffffffffffffffffffff16815260200185815250908060018154018082558091505090600182039060005260206000209060030201600090919290919091506000820151816000015560208201518160010160006101000a81548173ffffffffffffffffffffffffffffffffffffffff021916908373ffffffffffffffffffffffffffffffffffffffff16021790555060408201518160020190805190602001906108f2929190611775565b505050505050505050565b60008060009054906101000a900473ffffffffffffffffffffffffffffffffffffffff1673ffffffffffffffffffffffffffffffffffffffff1663995e03bb6040518163ffffffff1660e01b815260040160206040518083038186803b15801561096657600080fd5b505afa15801561097a573d6000803e3d6000fd5b505050506040513d602081101561099057600080fd5b810190808051906020019092919050505073ffffffffffffffffffffffffffffffffffffffff163373ffffffffffffffffffffffffffffffffffffffff1614610a41576040517f08c379a00000000000000000000000000000000000000000000000000000000081526004018080602001828103825260138152602001807fe4b88de698af4d61737465724d616e616765720000000000000000000000000081525060200191505060405180910390fd5b600280549050905090565b6000809054906101000a900473ffffffffffffffffffffffffffffffffffffffff1673ffffffffffffffffffffffffffffffffffffffff1663995e03bb6040518163ffffffff1660e01b815260040160206040518083038186803b158015610ab357600080fd5b505afa158015610ac7573d6000803e3d6000fd5b505050506040513d6020811015610add57600080fd5b810190808051906020019092919050505073ffffffffffffffffffffffffffffffffffffffff163373ffffffffffffffffffffffffffffffffffffffff1614610b8e576040517f08c379a00000000000000000000000000000000000000000000000000000000081526004018080602001828103825260138152602001807fe4b88de698af4d61737465724d616e616765720000000000000000000000000081525060200191505060405180910390fd5b600115158215151415610f99576000610c0360028581548110610bad57fe5b90600052602060002090600302016000015460028681548110610bcc57fe5b906000526020600020906003020160010160009054906101000a900473ffffffffffffffffffffffffffffffffffffffff16611698565b9050600060028581548110610c1457fe5b906000526020600020906003020160010160009054906101000a900473ffffffffffffffffffffffffffffffffffffffff1690508073ffffffffffffffffffffffffffffffffffffffff16633a98a722836040518263ffffffff1660e01b8152600401808273ffffffffffffffffffffffffffffffffffffffff1673ffffffffffffffffffffffffffffffffffffffff168152602001915050600060405180830381600087803b158015610cc757600080fd5b505af1158015610cdb573d6000803e3d6000fd5b505050508073ffffffffffffffffffffffffffffffffffffffff1663823e6fbc30856040518363ffffffff1660e01b815260040180806020018473ffffffffffffffffffffffffffffffffffffffff1673ffffffffffffffffffffffffffffffffffffffff16815260200180602001806020018481038452600c8152602001807fe7b3bbe7bb9fe9809ae79fa50000000000000000000000000000000000000000815250602001848103835285818151815260200191508051906020019080838360005b83811015610dba578082015181840152602081019050610d9f565b50505050905090810190601f168015610de75780820380516001836020036101000a031916815260200191505b50848103825260188152602001807fe7a4bee59ba2e5889be5bbbae794b3e8afb7e9809ae8bf87000000000000000081525060200195505050505050600060405180830381600087803b158015610e3d57600080fd5b505af1158015610e51573d6000803e3d6000fd5b50505050600260016002805490500381548110610e6a57fe5b906000526020600020906003020160028681548110610e8557fe5b9060005260206000209060030201600082015481600001556001820160009054906101000a900473ffffffffffffffffffffffffffffffffffffffff168160010160006101000a81548173ffffffffffffffffffffffffffffffffffffffff021916908373ffffffffffffffffffffffffffffffffffffffff16021790555060028201816002019080546001816001161561010002031660029004610f2b9291906117f5565b509050506002805480610f3a57fe5b60019003818190600052602060002090600302016000808201600090556001820160006101000a81549073ffffffffffffffffffffffffffffffffffffffff0219169055600282016000610f8e919061187c565b505090555050611274565b600060028481548110610fa857fe5b906000526020600020906003020160010160009054906101000a900473ffffffffffffffffffffffffffffffffffffffff1690508073ffffffffffffffffffffffffffffffffffffffff1663823e6fbc30846040518363ffffffff1660e01b815260040180806020018473ffffffffffffffffffffffffffffffffffffffff1673ffffffffffffffffffffffffffffffffffffffff16815260200180602001806020018481038452600c8152602001807fe7b3bbe7bb9fe9809ae79fa50000000000000000000000000000000000000000815250602001848103835285818151815260200191508051906020019080838360005b838110156110b757808201518184015260208101905061109c565b50505050905090810190601f1680156110e45780820380516001836020036101000a031916815260200191505b50848103825260248152602001806135dd6024913960400195505050505050600060405180830381600087803b15801561111d57600080fd5b505af1158015611131573d6000803e3d6000fd5b5050505060026001600280549050038154811061114a57fe5b90600052602060002090600302016002858154811061116557fe5b9060005260206000209060030201600082015481600001556001820160009054906101000a900473ffffffffffffffffffffffffffffffffffffffff168160010160006101000a81548173ffffffffffffffffffffffffffffffffffffffff021916908373ffffffffffffffffffffffffffffffffffffffff1602179055506002820181600201908054600181600116156101000203166002900461120b9291906117f5565b50905050600280548061121a57fe5b60019003818190600052602060002090600302016000808201600090556001820160006101000a81549073ffffffffffffffffffffffffffffffffffffffff021916905560028201600061126e919061187c565b50509055505b505050565b60008073ffffffffffffffffffffffffffffffffffffffff166000809054906101000a900473ffffffffffffffffffffffffffffffffffffffff1673ffffffffffffffffffffffffffffffffffffffff16141561131557816000806101000a81548173ffffffffffffffffffffffffffffffffffffffff021916908373ffffffffffffffffffffffffffffffffffffffff1602179055506113fb565b6000809054906101000a900473ffffffffffffffffffffffffffffffffffffffff1673ffffffffffffffffffffffffffffffffffffffff163373ffffffffffffffffffffffffffffffffffffffff16146113ba576040517f08c379a00000000000000000000000000000000000000000000000000000000081526004018080602001828103825260228152602001806136256022913960400191505060405180910390fd5b816000806101000a81548173ffffffffffffffffffffffffffffffffffffffff021916908373ffffffffffffffffffffffffffffffffffffffff1602179055505b5050565b60008060606000809054906101000a900473ffffffffffffffffffffffffffffffffffffffff1673ffffffffffffffffffffffffffffffffffffffff1663995e03bb6040518163ffffffff1660e01b815260040160206040518083038186803b15801561146b57600080fd5b505afa15801561147f573d6000803e3d6000fd5b505050506040513d602081101561149557600080fd5b810190808051906020019092919050505073ffffffffffffffffffffffffffffffffffffffff163373ffffffffffffffffffffffffffffffffffffffff1614611546576040517f08c379a00000000000000000000000000000000000000000000000000000000081526004018080602001828103825260138152602001807fe4b88de698af4d61737465724d616e616765720000000000000000000000000081525060200191505060405180910390fd5b61154e6118c4565b6002858154811061155b57fe5b9060005260206000209060030201604051806060016040529081600082015481526020016001820160009054906101000a900473ffffffffffffffffffffffffffffffffffffffff1673ffffffffffffffffffffffffffffffffffffffff1673ffffffffffffffffffffffffffffffffffffffff168152602001600282018054600181600116156101000203166002900480601f01602080910402602001604051908101604052809291908181526020018280546001816001161561010002031660029004801561166d5780601f106116425761010080835404028352916020019161166d565b820191906000526020600020905b81548152906001019060200180831161165057829003601f168201915b5050505050815250509050806000015181602001518260400151809050935093509350509193909250565b60008083836040516116a9906118fe565b808381526020018273ffffffffffffffffffffffffffffffffffffffff1673ffffffffffffffffffffffffffffffffffffffff16815260200192505050604051809103906000f080158015611702573d6000803e3d6000fd5b50905060018190806001815401808255809150509060018203906000526020600020016000909192909190916101000a81548173ffffffffffffffffffffffffffffffffffffffff021916908373ffffffffffffffffffffffffffffffffffffffff160217905550508091505092915050565b828054600181600116156101000203166002900490600052602060002090601f016020900481019282601f106117b657805160ff19168380011785556117e4565b828001600101855582156117e4579182015b828111156117e35782518255916020019190600101906117c8565b5b5090506117f1919061190b565b5090565b828054600181600116156101000203166002900490600052602060002090601f016020900481019282601f1061182e578054855561186b565b8280016001018555821561186b57600052602060002091601f016020900482015b8281111561186a57825482559160010191906001019061184f565b5b509050611878919061190b565b5090565b50805460018160011615610100020316600290046000825580601f106118a257506118c1565b601f0160209004906000526020600020908101906118c0919061190b565b5b50565b604051806060016040528060008019168152602001600073ffffffffffffffffffffffffffffffffffffffff168152602001606081525090565b611cac8061193183390190565b61192d91905b80821115611929576000816000905550600101611911565b5090565b9056fe608060405234801561001057600080fd5b50604051611cac380380611cac8339818101604052604081101561003357600080fd5b8101908080519060200190929190805190602001909291905050508160008190555080600160006101000a81548173ffffffffffffffffffffffffffffffffffffffff021916908373ffffffffffffffffffffffffffffffffffffffff1602179055505050611c05806100a76000396000f3fe608060405234801561001057600080fd5b50600436106100a95760003560e01c80633ccfd60b116100715780633ccfd60b1461027c57806362d5a97a146102865780636d76325e146102ca5780636f33eed0146103045780636f971f2a14610322578063ab779c4514610390576100a9565b806306e8529f146100ae57806306fdde03146100f2578063073b8d8c146101105780630af2ef1a146101b75780632138b00114610272575b600080fd5b6100f0600480360360208110156100c457600080fd5b81019080803573ffffffffffffffffffffffffffffffffffffffff1690602001909291905050506103da565b005b6100fa6107cc565b6040518082815260200191505060405180910390f35b61013c6004803603602081101561012657600080fd5b81019080803590602001909291905050506107d2565b6040518080602001828103825283818151815260200191508051906020019080838360005b8381101561017c578082015181840152602081019050610161565b50505050905090810190601f1680156101a95780820380516001836020036101000a031916815260200191505b509250505060405180910390f35b610270600480360360208110156101cd57600080fd5b81019080803590602001906401000000008111156101ea57600080fd5b8201836020820111156101fc57600080fd5b8035906020019184600183028401116401000000008311171561021e57600080fd5b91908080601f016020809104026020016040519081016040528093929190818152602001838380828437600081840152601f19601f8201169050808301925050505050505091929192905050506109ad565b005b61027a610d98565b005b6102846110c6565b005b6102c86004803603602081101561029c57600080fd5b81019080803573ffffffffffffffffffffffffffffffffffffffff169060200190929190505050611362565b005b610302600480360360408110156102e057600080fd5b8101908080359060200190929190803515159060200190929190505050611728565b005b61030c6119f9565b6040518082815260200191505060405180910390f35b61034e6004803603602081101561033857600080fd5b8101908080359060200190929190505050611ac9565b604051808273ffffffffffffffffffffffffffffffffffffffff1673ffffffffffffffffffffffffffffffffffffffff16815260200191505060405180910390f35b610398611b05565b604051808273ffffffffffffffffffffffffffffffffffffffff1673ffffffffffffffffffffffffffffffffffffffff16815260200191505060405180910390f35b600160009054906101000a900473ffffffffffffffffffffffffffffffffffffffff1673ffffffffffffffffffffffffffffffffffffffff163373ffffffffffffffffffffffffffffffffffffffff161461049d576040517f08c379a00000000000000000000000000000000000000000000000000000000081526004018080602001828103825260188152602001807fe58faae69c89e4b8bbe5b8ade69c89e69d83e6938de4bd9c000000000000000081525060200191505060405180910390fd5b80600080905060008090505b600380549050811015610533578273ffffffffffffffffffffffffffffffffffffffff16600382815481106104da57fe5b9060005260206000200160009054906101000a900473ffffffffffffffffffffffffffffffffffffffff1673ffffffffffffffffffffffffffffffffffffffff16141561052657600191505b80806001019150506104a9565b50806105a7576040517f08c379a00000000000000000000000000000000000000000000000000000000081526004018080602001828103825260128152602001807fe4b88de698afe7a4bee59ba2e983a8e995bf000000000000000000000000000081525060200191505060405180910390fd5b60008090505b600280549050811015610734578373ffffffffffffffffffffffffffffffffffffffff16600282815481106105de57fe5b9060005260206000200160009054906101000a900473ffffffffffffffffffffffffffffffffffffffff1673ffffffffffffffffffffffffffffffffffffffff1614156107275760026001600380549050038154811061063a57fe5b9060005260206000200160009054906101000a900473ffffffffffffffffffffffffffffffffffffffff166002828154811061067257fe5b9060005260206000200160006101000a81548173ffffffffffffffffffffffffffffffffffffffff021916908373ffffffffffffffffffffffffffffffffffffffff16021790555060028054806106c557fe5b6001900381819060005260206000200160006101000a81549073ffffffffffffffffffffffffffffffffffffffff021916905590557f4479fc8ae3c77c928f2a3c19ef6282e7f6d9ee1a9d9796df4596bca0c2b6fb5e60405160405180910390a15b80806001019150506105ad565b5060038390806001815401808255809150509060018203906000526020600020016000909192909190916101000a81548173ffffffffffffffffffffffffffffffffffffffff021916908373ffffffffffffffffffffffffffffffffffffffff160217905550507f588f6f79475e9f9e38628e9ff0c3b94f31ea7802bbc660b579ed2ebef135c21f60405160405180910390a1505050565b60005481565b6060600160009054906101000a900473ffffffffffffffffffffffffffffffffffffffff1673ffffffffffffffffffffffffffffffffffffffff163373ffffffffffffffffffffffffffffffffffffffff1614610897576040517f08c379a00000000000000000000000000000000000000000000000000000000081526004018080602001828103825260188152602001807fe58faae69c89e4b8bbe5b8ade69c89e69d83e6938de4bd9c000000000000000081525060200191505060405180910390fd5b60056000600484815481106108a857fe5b9060005260206000200160009054906101000a900473ffffffffffffffffffffffffffffffffffffffff1673ffffffffffffffffffffffffffffffffffffffff1673ffffffffffffffffffffffffffffffffffffffff1681526020019081526020016000208054600181600116156101000203166002900480601f0160208091040260200160405190810160405280929190818152602001828054600181600116156101000203166002900480156109a15780601f10610976576101008083540402835291602001916109a1565b820191906000526020600020905b81548152906001019060200180831161098457829003601f168201915b50505050509050919050565b60003390508073ffffffffffffffffffffffffffffffffffffffff16635d8d15856040518163ffffffff1660e01b815260040160006040518083038186803b1580156109f857600080fd5b505afa158015610a0c573d6000803e3d6000fd5b505050506040513d6000823e3d601f19601f8201168201806040525060e0811015610a3657600080fd5b8101908080519060200190929190805190602001909291908051906020019092919080516040519392919084640100000000821115610a7457600080fd5b83820191506020820185811115610a8a57600080fd5b8251866001820283011164010000000082111715610aa757600080fd5b8083526020830192505050908051906020019080838360005b83811015610adb578082015181840152602081019050610ac0565b50505050905090810190601f168015610b085780820380516001836020036101000a031916815260200191505b506040526020018051906020019092919080516040519392919084640100000000821115610b3557600080fd5b83820191506020820185811115610b4b57600080fd5b8251866020820283011164010000000082111715610b6857600080fd5b8083526020830192505050908051906020019060200280838360005b83811015610b9f578082015181840152602081019050610b84565b5050505090500160405260200180516040519392919084640100000000821115610bc857600080fd5b83820191506020820185811115610bde57600080fd5b8251866020820283011164010000000082111715610bfb57600080fd5b8083526020830192505050908051906020019060200280838360005b83811015610c32578082015181840152602081019050610c17565b505050509050016040525050505050505050505060008090505b600480549050811015610cd8573373ffffffffffffffffffffffffffffffffffffffff1660048281548110610c7d57fe5b9060005260206000200160009054906101000a900473ffffffffffffffffffffffffffffffffffffffff1673ffffffffffffffffffffffffffffffffffffffff161415610ccb575050610d95565b8080600101915050610c4c565b5060043390806001815401808255809150509060018203906000526020600020016000909192909190916101000a81548173ffffffffffffffffffffffffffffffffffffffff021916908373ffffffffffffffffffffffffffffffffffffffff1602179055505081600560003373ffffffffffffffffffffffffffffffffffffffff1673ffffffffffffffffffffffffffffffffffffffff1681526020019081526020016000209080519060200190610d92929190611b2b565b50505b50565b33600080905060008090505b600380549050811015610e2e578273ffffffffffffffffffffffffffffffffffffffff1660038281548110610dd557fe5b9060005260206000200160009054906101000a900473ffffffffffffffffffffffffffffffffffffffff1673ffffffffffffffffffffffffffffffffffffffff161415610e2157600191505b8080600101915050610da4565b5080610ea2576040517f08c379a00000000000000000000000000000000000000000000000000000000081526004018080602001828103825260128152602001807fe4b88de698afe7a4bee59ba2e983a8e995bf000000000000000000000000000081525060200191505060405180910390fd5b60008090505b60028054905081101561102f573373ffffffffffffffffffffffffffffffffffffffff1660028281548110610ed957fe5b9060005260206000200160009054906101000a900473ffffffffffffffffffffffffffffffffffffffff1673ffffffffffffffffffffffffffffffffffffffff16141561102257600260016003805490500381548110610f3557fe5b9060005260206000200160009054906101000a900473ffffffffffffffffffffffffffffffffffffffff1660028281548110610f6d57fe5b9060005260206000200160006101000a81548173ffffffffffffffffffffffffffffffffffffffff021916908373ffffffffffffffffffffffffffffffffffffffff1602179055506002805480610fc057fe5b6001900381819060005260206000200160006101000a81549073ffffffffffffffffffffffffffffffffffffffff021916905590557f4479fc8ae3c77c928f2a3c19ef6282e7f6d9ee1a9d9796df4596bca0c2b6fb5e60405160405180910390a15b8080600101915050610ea8565b5060033390806001815401808255809150509060018203906000526020600020016000909192909190916101000a81548173ffffffffffffffffffffffffffffffffffffffff021916908373ffffffffffffffffffffffffffffffffffffffff160217905550507f588f6f79475e9f9e38628e9ff0c3b94f31ea7802bbc660b579ed2ebef135c21f60405160405180910390a15050565b33600080905060008090505b60038054905081101561115c578273ffffffffffffffffffffffffffffffffffffffff166003828154811061110357fe5b9060005260206000200160009054906101000a900473ffffffffffffffffffffffffffffffffffffffff1673ffffffffffffffffffffffffffffffffffffffff16141561114f57600191505b80806001019150506110d2565b50806111d0576040517f08c379a00000000000000000000000000000000000000000000000000000000081526004018080602001828103825260188152602001807fe4b88de698afe7a4bee59ba2e699aee9809ae68890e59198000000000000000081525060200191505060405180910390fd5b60008090505b60038054905081101561135d573373ffffffffffffffffffffffffffffffffffffffff166003828154811061120757fe5b9060005260206000200160009054906101000a900473ffffffffffffffffffffffffffffffffffffffff1673ffffffffffffffffffffffffffffffffffffffff1614156113505760036001600380549050038154811061126357fe5b9060005260206000200160009054906101000a900473ffffffffffffffffffffffffffffffffffffffff166003828154811061129b57fe5b9060005260206000200160006101000a81548173ffffffffffffffffffffffffffffffffffffffff021916908373ffffffffffffffffffffffffffffffffffffffff16021790555060038054806112ee57fe5b6001900381819060005260206000200160006101000a81549073ffffffffffffffffffffffffffffffffffffffff021916905590557f588f6f79475e9f9e38628e9ff0c3b94f31ea7802bbc660b579ed2ebef135c21f60405160405180910390a15b80806001019150506111d6565b505050565b600160009054906101000a900473ffffffffffffffffffffffffffffffffffffffff1673ffffffffffffffffffffffffffffffffffffffff163373ffffffffffffffffffffffffffffffffffffffff1614611425576040517f08c379a00000000000000000000000000000000000000000000000000000000081526004018080602001828103825260188152602001807fe58faae69c89e4b8bbe5b8ade69c89e69d83e6938de4bd9c000000000000000081525060200191505060405180910390fd5b80600080905060008090505b6003805490508110156114bb578273ffffffffffffffffffffffffffffffffffffffff166003828154811061146257fe5b9060005260206000200160009054906101000a900473ffffffffffffffffffffffffffffffffffffffff1673ffffffffffffffffffffffffffffffffffffffff1614156114ae57600191505b8080600101915050611431565b508061152f576040517f08c379a00000000000000000000000000000000000000000000000000000000081526004018080602001828103825260188152602001807fe4b88de698afe7a4bee59ba2e699aee9809ae68890e59198000000000000000081525060200191505060405180910390fd5b60008090505b600380549050811015611690578373ffffffffffffffffffffffffffffffffffffffff166003828154811061156657fe5b9060005260206000200160009054906101000a900473ffffffffffffffffffffffffffffffffffffffff1673ffffffffffffffffffffffffffffffffffffffff161415611683576003600160038054905003815481106115c257fe5b9060005260206000200160009054906101000a900473ffffffffffffffffffffffffffffffffffffffff16600382815481106115fa57fe5b9060005260206000200160006101000a81548173ffffffffffffffffffffffffffffffffffffffff021916908373ffffffffffffffffffffffffffffffffffffffff160217905550600380548061164d57fe5b6001900381819060005260206000200160006101000a81549073ffffffffffffffffffffffffffffffffffffffff021916905590555b8080600101915050611535565b5060028390806001815401808255809150509060018203906000526020600020016000909192909190916101000a81548173ffffffffffffffffffffffffffffffffffffffff021916908373ffffffffffffffffffffffffffffffffffffffff160217905550507f4479fc8ae3c77c928f2a3c19ef6282e7f6d9ee1a9d9796df4596bca0c2b6fb5e60405160405180910390a1505050565b600160009054906101000a900473ffffffffffffffffffffffffffffffffffffffff1673ffffffffffffffffffffffffffffffffffffffff163373ffffffffffffffffffffffffffffffffffffffff16146117eb576040517f08c379a00000000000000000000000000000000000000000000000000000000081526004018080602001828103825260188152602001807fe58faae69c89e4b8bbe5b8ade69c89e69d83e6938de4bd9c000000000000000081525060200191505060405180910390fd5b6000600483815481106117fa57fe5b9060005260206000200160009054906101000a900473ffffffffffffffffffffffffffffffffffffffff16905081156118be578073ffffffffffffffffffffffffffffffffffffffff16638f4bd3266040518163ffffffff1660e01b8152600401600060405180830381600087803b15801561187557600080fd5b505af1158015611889573d6000803e3d6000fd5b505050507f588f6f79475e9f9e38628e9ff0c3b94f31ea7802bbc660b579ed2ebef135c21f60405160405180910390a161191f565b8073ffffffffffffffffffffffffffffffffffffffff1663fb9a07cc6040518163ffffffff1660e01b8152600401600060405180830381600087803b15801561190657600080fd5b505af115801561191a573d6000803e3d6000fd5b505050505b60046001600480549050038154811061193457fe5b9060005260206000200160009054906101000a900473ffffffffffffffffffffffffffffffffffffffff166004848154811061196c57fe5b9060005260206000200160006101000a81548173ffffffffffffffffffffffffffffffffffffffff021916908373ffffffffffffffffffffffffffffffffffffffff16021790555060048054806119bf57fe5b6001900381819060005260206000200160006101000a81549073ffffffffffffffffffffffffffffffffffffffff02191690559055505050565b6000600160009054906101000a900473ffffffffffffffffffffffffffffffffffffffff1673ffffffffffffffffffffffffffffffffffffffff163373ffffffffffffffffffffffffffffffffffffffff1614611abe576040517f08c379a00000000000000000000000000000000000000000000000000000000081526004018080602001828103825260188152602001807fe58faae69c89e4b8bbe5b8ade69c89e69d83e6938de4bd9c000000000000000081525060200191505060405180910390fd5b600480549050905090565b60028181548110611ad657fe5b906000526020600020016000915054906101000a900473ffffffffffffffffffffffffffffffffffffffff1681565b600160009054906101000a900473ffffffffffffffffffffffffffffffffffffffff1681565b828054600181600116156101000203166002900490600052602060002090601f016020900481019282601f10611b6c57805160ff1916838001178555611b9a565b82800160010185558215611b9a579182015b82811115611b99578251825591602001919060010190611b7e565b5b509050611ba79190611bab565b5090565b611bcd91905b80821115611bc9576000816000905550600101611bb1565b5090565b9056fea265627a7a7231582011c2431b208f115031917b79f92c4081230726131b8e112943be00042e981b7f64736f6c63430005100032e682a8e5889be5bbbae7a4bee59ba2e79a84e8afb7e6b182e6b2a1e69c89e9809ae8bf87e4b8bbe5b8ade5bf85e9a1bbe6b3a8e5868ce4b8aae4babae4bfa1e681afe59088e7baa6e697a0e69d83e4bfaee694b96d616e6167657243656e746572e79a84e59cb0e59d80a265627a7a723158203879ebdc2c7de965a43b9ca3542f11bbd5884fe167e924c69aefd28cc2a6dffe64736f6c63430005100032",
  "source": "pragma solidity ^0.5.0;\n\nimport \"./ManagerCenter.sol\";\nimport \"../roles/Club.sol\";\nimport \"../managers/UserManager.sol\";\nimport \"../roles/User.sol\";\n\ncontract ClubManager {\n    address managerCenter;\n\n    address[] clubs; //\n\n    clubApply[] clubApplies; //\n    struct clubApply {\n        bytes32 name;\n        address presidium;\n        string message;\n    }\n    ///////////////////////\n\n    modifier onlyMasterManager() {\n        require(\n            msg.sender == ManagerCenter(managerCenter).masterManager(),\n            \"MasterManager\"\n        );\n        _;\n    }\n\n    ///////////////////////\n\n    function newClub(bytes32 _name, address _presidium)\n        internal\n        returns (address mClub)\n    {\n        address addr = address(new Club(_name, _presidium));\n        clubs.push(addr);\n        return addr;\n    }\n\n    //\n    function applyNewClub(\n        bytes32 _name,\n        address _presidium,\n        string memory _message\n    ) public onlyMasterManager {\n        //\n        UserManager um = UserManager(\n            ManagerCenter(managerCenter).userManager()\n        );\n        //\n        require(um.isUser(_presidium), \"\");\n        //\n        User user = User(um.users(_presidium));\n        require(user.tempAuth() == address(this), \"\");\n\n        //\n        clubApplies.push(\n            clubApply({name: _name, presidium: _presidium, message: _message})\n        );\n    }\n\n    //master\n    function getAppliesAmount()\n        public\n        view\n        onlyMasterManager\n        returns (uint256)\n    {\n        return clubApplies.length;\n    }\n\n    //\n    function getApplyInfo(uint256 index)\n        public\n        view\n        onlyMasterManager\n        returns (bytes32 _name, address _presidium, string memory _message)\n    {\n        clubApply memory _apply = clubApplies[index];\n        return (_apply.name, _apply.presidium, _apply.message);\n    }\n\n    //\n    function reviewApply(uint256 index, bool pass, string memory time)\n        public\n        onlyMasterManager\n    {\n        if (pass == true) {\n            //\n            address addr = newClub(\n                clubApplies[index].name,\n                clubApplies[index].presidium\n            );\n\n            //\n            User user = User(clubApplies[index].presidium);\n            user.addClub(addr);\n            //\n            user.newNotice(\"\", address(this), time, \"\");\n\n            //\n            clubApplies[index] = clubApplies[clubApplies.length - 1];\n            clubApplies.pop();\n        } else {\n            //\n            User user = User(clubApplies[index].presidium);\n            user.newNotice(\n                \"\",\n                address(this),\n                time,\n                \"\"\n            );\n            //\n            clubApplies[index] = clubApplies[clubApplies.length - 1];\n            clubApplies.pop();\n        }\n    }\n\n    function setManagerCenter(address center) public {\n        address blank;\n        if (managerCenter == blank) {\n            managerCenter = center;\n        } else {\n            require(msg.sender == managerCenter, \"managerCenter\");\n            managerCenter = center;\n        }\n    }\n}\n",
  "sourcePath": "/mnt/c/Users/XuHao/OneDrive/0_projects/dapps/CMS/contracts/managers/ClubManager.sol",
  "compiler": {
    "name": "solc",
    "version": "0.5.16+commit.9c3226ce.Emscripten.clang"
  },
  "schemaVersion": "3.0.23",
  "updatedAt": "2020-03-30T06:06:02.771Z",
  "devdoc": {
    "methods": {}
  },
  "userdoc": {
    "methods": {}
  }
}