{
  "contractName": "Club",
  "abi": [
    {
      "inputs": [
        {
          "internalType": "bytes32",
          "name": "_name",
          "type": "bytes32"
        },
        {
          "internalType": "address",
          "name": "_presidium",
          "type": "address"
        }
      ],
      "payable": false,
      "stateMutability": "nonpayable",
      "type": "constructor"
    },
    {
      "anonymous": false,
      "inputs": [],
      "name": "memberChange",
      "type": "event"
    },
    {
      "anonymous": false,
      "inputs": [],
      "name": "ministerChange",
      "type": "event"
    },
    {
      "constant": true,
      "inputs": [
        {
          "internalType": "uint256",
          "name": "",
          "type": "uint256"
        }
      ],
      "name": "ministers",
      "outputs": [
        {
          "internalType": "address",
          "name": "",
          "type": "address"
        }
      ],
      "payable": false,
      "stateMutability": "view",
      "type": "function"
    },
    {
      "constant": true,
      "inputs": [],
      "name": "name",
      "outputs": [
        {
          "internalType": "bytes32",
          "name": "",
          "type": "bytes32"
        }
      ],
      "payable": false,
      "stateMutability": "view",
      "type": "function"
    },
    {
      "constant": true,
      "inputs": [],
      "name": "presidium",
      "outputs": [
        {
          "internalType": "address",
          "name": "",
          "type": "address"
        }
      ],
      "payable": false,
      "stateMutability": "view",
      "type": "function"
    },
    {
      "constant": false,
      "inputs": [
        {
          "internalType": "string",
          "name": "message",
          "type": "string"
        }
      ],
      "name": "applyForJoin",
      "outputs": [],
      "payable": false,
      "stateMutability": "nonpayable",
      "type": "function"
    },
    {
      "constant": true,
      "inputs": [],
      "name": "getApplyAmount",
      "outputs": [
        {
          "internalType": "uint256",
          "name": "",
          "type": "uint256"
        }
      ],
      "payable": false,
      "stateMutability": "view",
      "type": "function"
    },
    {
      "constant": true,
      "inputs": [
        {
          "internalType": "uint256",
          "name": "index",
          "type": "uint256"
        }
      ],
      "name": "getApply",
      "outputs": [
        {
          "internalType": "string",
          "name": "",
          "type": "string"
        }
      ],
      "payable": false,
      "stateMutability": "view",
      "type": "function"
    },
    {
      "constant": false,
      "inputs": [
        {
          "internalType": "uint256",
          "name": "index",
          "type": "uint256"
        },
        {
          "internalType": "bool",
          "name": "pass",
          "type": "bool"
        }
      ],
      "name": "reviewApply",
      "outputs": [],
      "payable": false,
      "stateMutability": "nonpayable",
      "type": "function"
    },
    {
      "constant": false,
      "inputs": [],
      "name": "withdraw",
      "outputs": [],
      "payable": false,
      "stateMutability": "nonpayable",
      "type": "function"
    },
    {
      "constant": false,
      "inputs": [
        {
          "internalType": "address",
          "name": "mini",
          "type": "address"
        }
      ],
      "name": "appointMinisters",
      "outputs": [],
      "payable": false,
      "stateMutability": "nonpayable",
      "type": "function"
    },
    {
      "constant": false,
      "inputs": [
        {
          "internalType": "address",
          "name": "mini",
          "type": "address"
        }
      ],
      "name": "dismisstMinisters",
      "outputs": [],
      "payable": false,
      "stateMutability": "nonpayable",
      "type": "function"
    },
    {
      "constant": false,
      "inputs": [],
      "name": "selfDismiss",
      "outputs": [],
      "payable": false,
      "stateMutability": "nonpayable",
      "type": "function"
    }
  ],
  "bytecode": "0x608060405234801561001057600080fd5b50604051611cac380380611cac8339818101604052604081101561003357600080fd5b8101908080519060200190929190805190602001909291905050508160008190555080600160006101000a81548173ffffffffffffffffffffffffffffffffffffffff021916908373ffffffffffffffffffffffffffffffffffffffff1602179055505050611c05806100a76000396000f3fe608060405234801561001057600080fd5b50600436106100a95760003560e01c80633ccfd60b116100715780633ccfd60b1461027c57806362d5a97a146102865780636d76325e146102ca5780636f33eed0146103045780636f971f2a14610322578063ab779c4514610390576100a9565b806306e8529f146100ae57806306fdde03146100f2578063073b8d8c146101105780630af2ef1a146101b75780632138b00114610272575b600080fd5b6100f0600480360360208110156100c457600080fd5b81019080803573ffffffffffffffffffffffffffffffffffffffff1690602001909291905050506103da565b005b6100fa6107cc565b6040518082815260200191505060405180910390f35b61013c6004803603602081101561012657600080fd5b81019080803590602001909291905050506107d2565b6040518080602001828103825283818151815260200191508051906020019080838360005b8381101561017c578082015181840152602081019050610161565b50505050905090810190601f1680156101a95780820380516001836020036101000a031916815260200191505b509250505060405180910390f35b610270600480360360208110156101cd57600080fd5b81019080803590602001906401000000008111156101ea57600080fd5b8201836020820111156101fc57600080fd5b8035906020019184600183028401116401000000008311171561021e57600080fd5b91908080601f016020809104026020016040519081016040528093929190818152602001838380828437600081840152601f19601f8201169050808301925050505050505091929192905050506109ad565b005b61027a610d98565b005b6102846110c6565b005b6102c86004803603602081101561029c57600080fd5b81019080803573ffffffffffffffffffffffffffffffffffffffff169060200190929190505050611362565b005b610302600480360360408110156102e057600080fd5b8101908080359060200190929190803515159060200190929190505050611728565b005b61030c6119f9565b6040518082815260200191505060405180910390f35b61034e6004803603602081101561033857600080fd5b8101908080359060200190929190505050611ac9565b604051808273ffffffffffffffffffffffffffffffffffffffff1673ffffffffffffffffffffffffffffffffffffffff16815260200191505060405180910390f35b610398611b05565b604051808273ffffffffffffffffffffffffffffffffffffffff1673ffffffffffffffffffffffffffffffffffffffff16815260200191505060405180910390f35b600160009054906101000a900473ffffffffffffffffffffffffffffffffffffffff1673ffffffffffffffffffffffffffffffffffffffff163373ffffffffffffffffffffffffffffffffffffffff161461049d576040517f08c379a00000000000000000000000000000000000000000000000000000000081526004018080602001828103825260188152602001807fe58faae69c89e4b8bbe5b8ade69c89e69d83e6938de4bd9c000000000000000081525060200191505060405180910390fd5b80600080905060008090505b600380549050811015610533578273ffffffffffffffffffffffffffffffffffffffff16600382815481106104da57fe5b9060005260206000200160009054906101000a900473ffffffffffffffffffffffffffffffffffffffff1673ffffffffffffffffffffffffffffffffffffffff16141561052657600191505b80806001019150506104a9565b50806105a7576040517f08c379a00000000000000000000000000000000000000000000000000000000081526004018080602001828103825260128152602001807fe4b88de698afe7a4bee59ba2e983a8e995bf000000000000000000000000000081525060200191505060405180910390fd5b60008090505b600280549050811015610734578373ffffffffffffffffffffffffffffffffffffffff16600282815481106105de57fe5b9060005260206000200160009054906101000a900473ffffffffffffffffffffffffffffffffffffffff1673ffffffffffffffffffffffffffffffffffffffff1614156107275760026001600380549050038154811061063a57fe5b9060005260206000200160009054906101000a900473ffffffffffffffffffffffffffffffffffffffff166002828154811061067257fe5b9060005260206000200160006101000a81548173ffffffffffffffffffffffffffffffffffffffff021916908373ffffffffffffffffffffffffffffffffffffffff16021790555060028054806106c557fe5b6001900381819060005260206000200160006101000a81549073ffffffffffffffffffffffffffffffffffffffff021916905590557f4479fc8ae3c77c928f2a3c19ef6282e7f6d9ee1a9d9796df4596bca0c2b6fb5e60405160405180910390a15b80806001019150506105ad565b5060038390806001815401808255809150509060018203906000526020600020016000909192909190916101000a81548173ffffffffffffffffffffffffffffffffffffffff021916908373ffffffffffffffffffffffffffffffffffffffff160217905550507f588f6f79475e9f9e38628e9ff0c3b94f31ea7802bbc660b579ed2ebef135c21f60405160405180910390a1505050565b60005481565b6060600160009054906101000a900473ffffffffffffffffffffffffffffffffffffffff1673ffffffffffffffffffffffffffffffffffffffff163373ffffffffffffffffffffffffffffffffffffffff1614610897576040517f08c379a00000000000000000000000000000000000000000000000000000000081526004018080602001828103825260188152602001807fe58faae69c89e4b8bbe5b8ade69c89e69d83e6938de4bd9c000000000000000081525060200191505060405180910390fd5b60056000600484815481106108a857fe5b9060005260206000200160009054906101000a900473ffffffffffffffffffffffffffffffffffffffff1673ffffffffffffffffffffffffffffffffffffffff1673ffffffffffffffffffffffffffffffffffffffff1681526020019081526020016000208054600181600116156101000203166002900480601f0160208091040260200160405190810160405280929190818152602001828054600181600116156101000203166002900480156109a15780601f10610976576101008083540402835291602001916109a1565b820191906000526020600020905b81548152906001019060200180831161098457829003601f168201915b50505050509050919050565b60003390508073ffffffffffffffffffffffffffffffffffffffff16635d8d15856040518163ffffffff1660e01b815260040160006040518083038186803b1580156109f857600080fd5b505afa158015610a0c573d6000803e3d6000fd5b505050506040513d6000823e3d601f19601f8201168201806040525060e0811015610a3657600080fd5b8101908080519060200190929190805190602001909291908051906020019092919080516040519392919084640100000000821115610a7457600080fd5b83820191506020820185811115610a8a57600080fd5b8251866001820283011164010000000082111715610aa757600080fd5b8083526020830192505050908051906020019080838360005b83811015610adb578082015181840152602081019050610ac0565b50505050905090810190601f168015610b085780820380516001836020036101000a031916815260200191505b506040526020018051906020019092919080516040519392919084640100000000821115610b3557600080fd5b83820191506020820185811115610b4b57600080fd5b8251866020820283011164010000000082111715610b6857600080fd5b8083526020830192505050908051906020019060200280838360005b83811015610b9f578082015181840152602081019050610b84565b5050505090500160405260200180516040519392919084640100000000821115610bc857600080fd5b83820191506020820185811115610bde57600080fd5b8251866020820283011164010000000082111715610bfb57600080fd5b8083526020830192505050908051906020019060200280838360005b83811015610c32578082015181840152602081019050610c17565b505050509050016040525050505050505050505060008090505b600480549050811015610cd8573373ffffffffffffffffffffffffffffffffffffffff1660048281548110610c7d57fe5b9060005260206000200160009054906101000a900473ffffffffffffffffffffffffffffffffffffffff1673ffffffffffffffffffffffffffffffffffffffff161415610ccb575050610d95565b8080600101915050610c4c565b5060043390806001815401808255809150509060018203906000526020600020016000909192909190916101000a81548173ffffffffffffffffffffffffffffffffffffffff021916908373ffffffffffffffffffffffffffffffffffffffff1602179055505081600560003373ffffffffffffffffffffffffffffffffffffffff1673ffffffffffffffffffffffffffffffffffffffff1681526020019081526020016000209080519060200190610d92929190611b2b565b50505b50565b33600080905060008090505b600380549050811015610e2e578273ffffffffffffffffffffffffffffffffffffffff1660038281548110610dd557fe5b9060005260206000200160009054906101000a900473ffffffffffffffffffffffffffffffffffffffff1673ffffffffffffffffffffffffffffffffffffffff161415610e2157600191505b8080600101915050610da4565b5080610ea2576040517f08c379a00000000000000000000000000000000000000000000000000000000081526004018080602001828103825260128152602001807fe4b88de698afe7a4bee59ba2e983a8e995bf000000000000000000000000000081525060200191505060405180910390fd5b60008090505b60028054905081101561102f573373ffffffffffffffffffffffffffffffffffffffff1660028281548110610ed957fe5b9060005260206000200160009054906101000a900473ffffffffffffffffffffffffffffffffffffffff1673ffffffffffffffffffffffffffffffffffffffff16141561102257600260016003805490500381548110610f3557fe5b9060005260206000200160009054906101000a900473ffffffffffffffffffffffffffffffffffffffff1660028281548110610f6d57fe5b9060005260206000200160006101000a81548173ffffffffffffffffffffffffffffffffffffffff021916908373ffffffffffffffffffffffffffffffffffffffff1602179055506002805480610fc057fe5b6001900381819060005260206000200160006101000a81549073ffffffffffffffffffffffffffffffffffffffff021916905590557f4479fc8ae3c77c928f2a3c19ef6282e7f6d9ee1a9d9796df4596bca0c2b6fb5e60405160405180910390a15b8080600101915050610ea8565b5060033390806001815401808255809150509060018203906000526020600020016000909192909190916101000a81548173ffffffffffffffffffffffffffffffffffffffff021916908373ffffffffffffffffffffffffffffffffffffffff160217905550507f588f6f79475e9f9e38628e9ff0c3b94f31ea7802bbc660b579ed2ebef135c21f60405160405180910390a15050565b33600080905060008090505b60038054905081101561115c578273ffffffffffffffffffffffffffffffffffffffff166003828154811061110357fe5b9060005260206000200160009054906101000a900473ffffffffffffffffffffffffffffffffffffffff1673ffffffffffffffffffffffffffffffffffffffff16141561114f57600191505b80806001019150506110d2565b50806111d0576040517f08c379a00000000000000000000000000000000000000000000000000000000081526004018080602001828103825260188152602001807fe4b88de698afe7a4bee59ba2e699aee9809ae68890e59198000000000000000081525060200191505060405180910390fd5b60008090505b60038054905081101561135d573373ffffffffffffffffffffffffffffffffffffffff166003828154811061120757fe5b9060005260206000200160009054906101000a900473ffffffffffffffffffffffffffffffffffffffff1673ffffffffffffffffffffffffffffffffffffffff1614156113505760036001600380549050038154811061126357fe5b9060005260206000200160009054906101000a900473ffffffffffffffffffffffffffffffffffffffff166003828154811061129b57fe5b9060005260206000200160006101000a81548173ffffffffffffffffffffffffffffffffffffffff021916908373ffffffffffffffffffffffffffffffffffffffff16021790555060038054806112ee57fe5b6001900381819060005260206000200160006101000a81549073ffffffffffffffffffffffffffffffffffffffff021916905590557f588f6f79475e9f9e38628e9ff0c3b94f31ea7802bbc660b579ed2ebef135c21f60405160405180910390a15b80806001019150506111d6565b505050565b600160009054906101000a900473ffffffffffffffffffffffffffffffffffffffff1673ffffffffffffffffffffffffffffffffffffffff163373ffffffffffffffffffffffffffffffffffffffff1614611425576040517f08c379a00000000000000000000000000000000000000000000000000000000081526004018080602001828103825260188152602001807fe58faae69c89e4b8bbe5b8ade69c89e69d83e6938de4bd9c000000000000000081525060200191505060405180910390fd5b80600080905060008090505b6003805490508110156114bb578273ffffffffffffffffffffffffffffffffffffffff166003828154811061146257fe5b9060005260206000200160009054906101000a900473ffffffffffffffffffffffffffffffffffffffff1673ffffffffffffffffffffffffffffffffffffffff1614156114ae57600191505b8080600101915050611431565b508061152f576040517f08c379a00000000000000000000000000000000000000000000000000000000081526004018080602001828103825260188152602001807fe4b88de698afe7a4bee59ba2e699aee9809ae68890e59198000000000000000081525060200191505060405180910390fd5b60008090505b600380549050811015611690578373ffffffffffffffffffffffffffffffffffffffff166003828154811061156657fe5b9060005260206000200160009054906101000a900473ffffffffffffffffffffffffffffffffffffffff1673ffffffffffffffffffffffffffffffffffffffff161415611683576003600160038054905003815481106115c257fe5b9060005260206000200160009054906101000a900473ffffffffffffffffffffffffffffffffffffffff16600382815481106115fa57fe5b9060005260206000200160006101000a81548173ffffffffffffffffffffffffffffffffffffffff021916908373ffffffffffffffffffffffffffffffffffffffff160217905550600380548061164d57fe5b6001900381819060005260206000200160006101000a81549073ffffffffffffffffffffffffffffffffffffffff021916905590555b8080600101915050611535565b5060028390806001815401808255809150509060018203906000526020600020016000909192909190916101000a81548173ffffffffffffffffffffffffffffffffffffffff021916908373ffffffffffffffffffffffffffffffffffffffff160217905550507f4479fc8ae3c77c928f2a3c19ef6282e7f6d9ee1a9d9796df4596bca0c2b6fb5e60405160405180910390a1505050565b600160009054906101000a900473ffffffffffffffffffffffffffffffffffffffff1673ffffffffffffffffffffffffffffffffffffffff163373ffffffffffffffffffffffffffffffffffffffff16146117eb576040517f08c379a00000000000000000000000000000000000000000000000000000000081526004018080602001828103825260188152602001807fe58faae69c89e4b8bbe5b8ade69c89e69d83e6938de4bd9c000000000000000081525060200191505060405180910390fd5b6000600483815481106117fa57fe5b9060005260206000200160009054906101000a900473ffffffffffffffffffffffffffffffffffffffff16905081156118be578073ffffffffffffffffffffffffffffffffffffffff16638f4bd3266040518163ffffffff1660e01b8152600401600060405180830381600087803b15801561187557600080fd5b505af1158015611889573d6000803e3d6000fd5b505050507f588f6f79475e9f9e38628e9ff0c3b94f31ea7802bbc660b579ed2ebef135c21f60405160405180910390a161191f565b8073ffffffffffffffffffffffffffffffffffffffff1663fb9a07cc6040518163ffffffff1660e01b8152600401600060405180830381600087803b15801561190657600080fd5b505af115801561191a573d6000803e3d6000fd5b505050505b60046001600480549050038154811061193457fe5b9060005260206000200160009054906101000a900473ffffffffffffffffffffffffffffffffffffffff166004848154811061196c57fe5b9060005260206000200160006101000a81548173ffffffffffffffffffffffffffffffffffffffff021916908373ffffffffffffffffffffffffffffffffffffffff16021790555060048054806119bf57fe5b6001900381819060005260206000200160006101000a81549073ffffffffffffffffffffffffffffffffffffffff02191690559055505050565b6000600160009054906101000a900473ffffffffffffffffffffffffffffffffffffffff1673ffffffffffffffffffffffffffffffffffffffff163373ffffffffffffffffffffffffffffffffffffffff1614611abe576040517f08c379a00000000000000000000000000000000000000000000000000000000081526004018080602001828103825260188152602001807fe58faae69c89e4b8bbe5b8ade69c89e69d83e6938de4bd9c000000000000000081525060200191505060405180910390fd5b600480549050905090565b60028181548110611ad657fe5b906000526020600020016000915054906101000a900473ffffffffffffffffffffffffffffffffffffffff1681565b600160009054906101000a900473ffffffffffffffffffffffffffffffffffffffff1681565b828054600181600116156101000203166002900490600052602060002090601f016020900481019282601f10611b6c57805160ff1916838001178555611b9a565b82800160010185558215611b9a579182015b82811115611b99578251825591602001919060010190611b7e565b5b509050611ba79190611bab565b5090565b611bcd91905b80821115611bc9576000816000905550600101611bb1565b5090565b9056fea265627a7a7231582011c2431b208f115031917b79f92c4081230726131b8e112943be00042e981b7f64736f6c63430005100032",
  "source": "pragma solidity ^0.5.0;\n\nimport \"./User.sol\";\n\n\ncontract Club {\n    ////////社团信息/////////////\n    bytes32 public name; //社团名称\n\n    //地址互不重叠，即部长列表中的成员不在成员列表中，其他同理\n    address public presidium; //主席，存储个人地址\n    address[] public ministers; //部长列表，存储个人地址\n    address[] members; //成员列表，存储个人地址\n\n    address[] applicants; //申请加入社团的成员列表\n    mapping(address => string) applicantsMsg; //申请人的申请信息\n    /////////权限检查//////////\n\n    modifier onlyPresidium() {\n        require(msg.sender == presidium, \"只有主席有权操作\");\n        _;\n    }\n\n    modifier onlyMember(address addr) {\n        bool flag = false;\n        for (uint256 i = 0; i < members.length; i++) {\n            if (members[i] == addr) {\n                flag = true;\n            }\n        }\n        require(flag, \"不是社团普通成员\");\n        _;\n    }\n\n    modifier onlyMinister(address addr) {\n        bool flag = false;\n        for (uint256 i = 0; i < members.length; i++) {\n            if (members[i] == addr) {\n                flag = true;\n            }\n        }\n        require(flag, \"不是社团部长\");\n        _;\n    }\n    //////////////////////////\n\n    //////////事件/////////////\n\n    //成员发生变动，用于更新成员列表\n    event memberChange();\n\n    //部长发生变动，用于更新部长列表\n    event ministerChange();\n\n    //////////////////////////\n    //////////函数/////////////\n\n    constructor(bytes32 _name, address _presidium) public {\n        name = _name;\n        presidium = _presidium;\n    }\n\n    function applyForJoin(string memory message) public {\n        //检查是否允许访问个人信息\n        User user = User(msg.sender);\n        user.getUserInfo(); //没有权限事务将回滚，申请自动失败\n        //加入申请列表\n        //防止重复添加\n        for (uint256 i = 0; i < applicants.length; i++) {\n            if (applicants[i] == msg.sender) {\n                return;\n            }\n        }\n        applicants.push(msg.sender);\n        applicantsMsg[msg.sender] = message;\n    }\n\n    //获取申请的总数\n    function getApplyAmount() public view onlyPresidium returns (uint256) {\n        return applicants.length;\n    }\n\n    //获取特定的申请\n    function getApply(uint256 index)\n        public\n        view\n        onlyPresidium\n        returns (string memory)\n    {\n        return applicantsMsg[applicants[index]];\n    }\n\n    //审核特定的申请\n    function reviewApply(uint256 index, bool pass) public onlyPresidium {\n        User user = User(applicants[index]);\n        if (pass) {\n            //调用user的applyPass\n            user.applyPass();\n            //触发事件,前端更新成员列表\n            emit memberChange();\n        } else {\n            user.applyRefus();\n        }\n\n        //移除申请信息\n        applicants[index] = applicants[applicants.length - 1];\n        applicants.pop();\n    }\n\n    //成员退出社团, 不设审批\n    function withdraw() public onlyMember(msg.sender) {\n        for (uint256 i = 0; i < members.length; i++) {\n            if (members[i] == msg.sender) {\n                members[i] = members[members.length - 1];\n                members.pop();\n\n                emit memberChange();\n            }\n        }\n    }\n\n    //任命部长\n    function appointMinisters(address mini)\n        public\n        onlyPresidium\n        onlyMember(mini)\n    {\n        //从成员列表移除\n        for (uint256 i = 0; i < members.length; i++) {\n            if (members[i] == mini) {\n                members[i] = members[members.length - 1];\n                members.pop();\n            }\n        }\n        //加入部长列表\n        ministers.push(mini);\n\n        emit ministerChange();\n    }\n\n    //移除部长\n    function dismisstMinisters(address mini)\n        public\n        onlyPresidium\n        onlyMinister(mini)\n    {\n        //从部长列表移除\n        for (uint256 i = 0; i < ministers.length; i++) {\n            if (ministers[i] == mini) {\n                ministers[i] = ministers[members.length - 1];\n                ministers.pop();\n\n                emit ministerChange();\n            }\n        }\n        //加入成员列表\n        members.push(mini);\n\n        emit memberChange();\n    }\n\n    //部长辞职\n    function selfDismiss() public onlyMinister(msg.sender) {\n                //从部长列表移除\n        for (uint256 i = 0; i < ministers.length; i++) {\n            if (ministers[i] == msg.sender) {\n                ministers[i] = ministers[members.length - 1];\n                ministers.pop();\n\n                emit ministerChange();\n            }\n        }\n        //加入成员列表\n        members.push(msg.sender);\n\n        emit memberChange();\n    }\n}\n",
  "sourcePath": "/mnt/c/Users/XuHao/OneDrive/0_projects/dapps/CMS/contracts/roles/Club.sol",
  "compiler": {
    "name": "solc",
    "version": "0.5.16+commit.9c3226ce.Emscripten.clang"
  },
  "schemaVersion": "3.0.23",
  "updatedAt": "2020-03-30T06:06:02.795Z",
  "devdoc": {
    "methods": {}
  },
  "userdoc": {
    "methods": {
      "constructor": "/////////////////////// ///////函数/////////////"
    }
  }
}