{
  "contractName": "MasterManager",
  "abi": [
    {
      "inputs": [],
      "payable": false,
      "stateMutability": "nonpayable",
      "type": "constructor"
    },
    {
      "constant": true,
      "inputs": [
        {
          "internalType": "address",
          "name": "",
          "type": "address"
        }
      ],
      "name": "masters",
      "outputs": [
        {
          "internalType": "address",
          "name": "",
          "type": "address"
        }
      ],
      "payable": false,
      "stateMutability": "view",
      "type": "function"
    },
    {
      "constant": false,
      "inputs": [
        {
          "internalType": "bytes32",
          "name": "_name",
          "type": "bytes32"
        },
        {
          "internalType": "uint64",
          "name": "_phone",
          "type": "uint64"
        },
        {
          "internalType": "string",
          "name": "_email",
          "type": "string"
        },
        {
          "internalType": "address",
          "name": "_owner",
          "type": "address"
        }
      ],
      "name": "newMaster",
      "outputs": [],
      "payable": false,
      "stateMutability": "nonpayable",
      "type": "function"
    },
    {
      "constant": false,
      "inputs": [],
      "name": "delMaster",
      "outputs": [],
      "payable": false,
      "stateMutability": "nonpayable",
      "type": "function"
    },
    {
      "constant": false,
      "inputs": [
        {
          "internalType": "address",
          "name": "_admin",
          "type": "address"
        }
      ],
      "name": "setAdmin",
      "outputs": [],
      "payable": false,
      "stateMutability": "nonpayable",
      "type": "function"
    },
    {
      "constant": false,
      "inputs": [
        {
          "internalType": "address",
          "name": "center",
          "type": "address"
        }
      ],
      "name": "setManagerCenter",
      "outputs": [],
      "payable": false,
      "stateMutability": "nonpayable",
      "type": "function"
    }
  ],
  "bytecode": "0x608060405234801561001057600080fd5b5033600160006101000a81548173ffffffffffffffffffffffffffffffffffffffff021916908373ffffffffffffffffffffffffffffffffffffffff1602179055506110fd806100616000396000f3fe608060405234801561001057600080fd5b50600436106100575760003560e01c80631f8061971461005c578063704b6c02146100665780637a38a106146100aa578063d0f08af61461012e578063d70914ec14610227575b600080fd5b61006461026b565b005b6100a86004803603602081101561007c57600080fd5b81019080803573ffffffffffffffffffffffffffffffffffffffff169060200190929190505050610454565b005b6100ec600480360360208110156100c057600080fd5b81019080803573ffffffffffffffffffffffffffffffffffffffff16906020019092919050505061053e565b604051808273ffffffffffffffffffffffffffffffffffffffff1673ffffffffffffffffffffffffffffffffffffffff16815260200191505060405180910390f35b6102256004803603608081101561014457600080fd5b8101908080359060200190929190803567ffffffffffffffff1690602001909291908035906020019064010000000081111561017f57600080fd5b82018360208201111561019157600080fd5b803590602001918460018302840111640100000000831117156101b357600080fd5b91908080601f016020809104026020016040519081016040528093929190818152602001838380828437600081840152601f19601f820116905080830192505050505050509192919290803573ffffffffffffffffffffffffffffffffffffffff169060200190929190505050610571565b005b6102696004803603602081101561023d57600080fd5b81019080803573ffffffffffffffffffffffffffffffffffffffff1690602001909291905050506107f7565b005b600080600360003373ffffffffffffffffffffffffffffffffffffffff1673ffffffffffffffffffffffffffffffffffffffff16815260200190815260200160002060006101000a81548173ffffffffffffffffffffffffffffffffffffffff021916908373ffffffffffffffffffffffffffffffffffffffff16021790555060008090505b600280549050811015610450573373ffffffffffffffffffffffffffffffffffffffff166002828154811061032257fe5b9060005260206000200160009054906101000a900473ffffffffffffffffffffffffffffffffffffffff1673ffffffffffffffffffffffffffffffffffffffff1614156104435760026001600280549050038154811061037e57fe5b9060005260206000200160009054906101000a900473ffffffffffffffffffffffffffffffffffffffff16600282815481106103b657fe5b9060005260206000200160006101000a81548173ffffffffffffffffffffffffffffffffffffffff021916908373ffffffffffffffffffffffffffffffffffffffff160217905550600280548061040957fe5b6001900381819060005260206000200160006101000a81549073ffffffffffffffffffffffffffffffffffffffff02191690559055610450565b80806001019150506102f1565b5050565b600160009054906101000a900473ffffffffffffffffffffffffffffffffffffffff1673ffffffffffffffffffffffffffffffffffffffff163373ffffffffffffffffffffffffffffffffffffffff16146104fa576040517f08c379a00000000000000000000000000000000000000000000000000000000081526004018080602001828103825260248152602001806110a56024913960400191505060405180910390fd5b80600160006101000a81548173ffffffffffffffffffffffffffffffffffffffff021916908373ffffffffffffffffffffffffffffffffffffffff16021790555050565b60036020528060005260406000206000915054906101000a900473ffffffffffffffffffffffffffffffffffffffff1681565b600160009054906101000a900473ffffffffffffffffffffffffffffffffffffffff1673ffffffffffffffffffffffffffffffffffffffff163373ffffffffffffffffffffffffffffffffffffffff1614610617576040517f08c379a00000000000000000000000000000000000000000000000000000000081526004018080602001828103825260248152602001806110a56024913960400191505060405180910390fd5b6000848484846040516106299061097d565b808581526020018467ffffffffffffffff1667ffffffffffffffff168152602001806020018373ffffffffffffffffffffffffffffffffffffffff1673ffffffffffffffffffffffffffffffffffffffff168152602001828103825284818151815260200191508051906020019080838360005b838110156106b857808201518184015260208101905061069d565b50505050905090810190601f1680156106e55780820380516001836020036101000a031916815260200191505b5095505050505050604051809103906000f080158015610709573d6000803e3d6000fd5b50905080600360008473ffffffffffffffffffffffffffffffffffffffff1673ffffffffffffffffffffffffffffffffffffffff16815260200190815260200160002060006101000a81548173ffffffffffffffffffffffffffffffffffffffff021916908373ffffffffffffffffffffffffffffffffffffffff16021790555060028290806001815401808255809150509060018203906000526020600020016000909192909190916101000a81548173ffffffffffffffffffffffffffffffffffffffff021916908373ffffffffffffffffffffffffffffffffffffffff160217905550505050505050565b60008073ffffffffffffffffffffffffffffffffffffffff166000809054906101000a900473ffffffffffffffffffffffffffffffffffffffff1673ffffffffffffffffffffffffffffffffffffffff16141561089357816000806101000a81548173ffffffffffffffffffffffffffffffffffffffff021916908373ffffffffffffffffffffffffffffffffffffffff160217905550610979565b6000809054906101000a900473ffffffffffffffffffffffffffffffffffffffff1673ffffffffffffffffffffffffffffffffffffffff163373ffffffffffffffffffffffffffffffffffffffff1614610938576040517f08c379a00000000000000000000000000000000000000000000000000000000081526004018080602001828103825260228152602001806110836022913960400191505060405180910390fd5b816000806101000a81548173ffffffffffffffffffffffffffffffffffffffff021916908373ffffffffffffffffffffffffffffffffffffffff1602179055505b5050565b6106f88061098b8339019056fe608060405234801561001057600080fd5b506040516106f83803806106f88339818101604052608081101561003357600080fd5b8101908080519060200190929190805190602001909291908051604051939291908464010000000082111561006757600080fd5b8382019150602082018581111561007d57600080fd5b825186600182028301116401000000008211171561009a57600080fd5b8083526020830192505050908051906020019080838360005b838110156100ce5780820151818401526020810190506100b3565b50505050905090810190601f1680156100fb5780820380516001836020036101000a031916815260200191505b50604052602001805190602001909291905050508360008190555082600160006101000a81548167ffffffffffffffff021916908367ffffffffffffffff16021790555081600290805190602001906101559291906101a0565b5080600360006101000a81548173ffffffffffffffffffffffffffffffffffffffff021916908373ffffffffffffffffffffffffffffffffffffffff16021790555050505050610245565b828054600181600116156101000203166002900490600052602060002090601f016020900481019282601f106101e157805160ff191683800117855561020f565b8280016001018555821561020f579182015b8281111561020e5782518255916020019190600101906101f3565b5b50905061021c9190610220565b5090565b61024291905b8082111561023e576000816000905550600101610226565b5090565b90565b6104a4806102546000396000f3fe608060405234801561001057600080fd5b506004361061004c5760003560e01c806306fdde03146100515780635dd927f51461006f578063820e93f5146101485780639284f497146101cb575b600080fd5b6100596101fd565b6040518082815260200191505060405180910390f35b6101466004803603606081101561008557600080fd5b8101908080359060200190929190803567ffffffffffffffff169060200190929190803590602001906401000000008111156100c057600080fd5b8201836020820111156100d257600080fd5b803590602001918460018302840111640100000000831117156100f457600080fd5b91908080601f016020809104026020016040519081016040528093929190818152602001838380828437600081840152601f19601f820116905080830192505050505050509192919290505050610203565b005b610150610312565b6040518080602001828103825283818151815260200191508051906020019080838360005b83811015610190578082015181840152602081019050610175565b50505050905090810190601f1680156101bd5780820380516001836020036101000a031916815260200191505b509250505060405180910390f35b6101d36103b0565b604051808267ffffffffffffffff1667ffffffffffffffff16815260200191505060405180910390f35b60005481565b600360009054906101000a900473ffffffffffffffffffffffffffffffffffffffff1673ffffffffffffffffffffffffffffffffffffffff163373ffffffffffffffffffffffffffffffffffffffff16146102c6576040517f08c379a00000000000000000000000000000000000000000000000000000000081526004018080602001828103825260158152602001807fe4b88de698afe59088e7baa6e68ba5e69c89e88085000000000000000000000081525060200191505060405180910390fd5b8260008190555081600160006101000a81548167ffffffffffffffff021916908367ffffffffffffffff160217905550806002908051906020019061030c9291906103ca565b50505050565b60028054600181600116156101000203166002900480601f0160208091040260200160405190810160405280929190818152602001828054600181600116156101000203166002900480156103a85780601f1061037d576101008083540402835291602001916103a8565b820191906000526020600020905b81548152906001019060200180831161038b57829003601f168201915b505050505081565b600160009054906101000a900467ffffffffffffffff1681565b828054600181600116156101000203166002900490600052602060002090601f016020900481019282601f1061040b57805160ff1916838001178555610439565b82800160010185558215610439579182015b8281111561043857825182559160200191906001019061041d565b5b509050610446919061044a565b5090565b61046c91905b80821115610468576000816000905550600101610450565b5090565b9056fea265627a7a72315820b3b20e2e88baa058497f21306d8a2b4589ee702b7e82ce58bfd6a503b74c2f8764736f6c63430005100032e697a0e69d83e4bfaee694b96d616e6167657243656e746572e79a84e59cb0e59d80e58faae69c89e7aea1e79086e59198e69c89e69d83e8bf9be8a18ce6938de4bd9cefbc81a265627a7a723158207d60fdb766b7f7bc411221e23b5c75223b1bda18fa8f81bf8a0af4590a530b9b64736f6c63430005100032",
  "source": "pragma solidity ^0.5.0;\n\nimport \"../roles/Master.sol\";\nimport \"./UserManager.sol\";\nimport \"./ClubManager.sol\";\n\nimport \"../roles/User.sol\";\n\ncontract MasterManager {\n    address managerCenter;\n\n    address admin; //管理员，管理导师的创建等\n\n    address[] mastersList; //导师列表\n    mapping(address => address) public masters; //导师个人地址到信息合约的映射\n\n    ////////权限验证////////////\n\n    modifier onlyAdmin() {\n        require(msg.sender == admin, \"只有管理员有权进行操作！\");\n        _;\n    }\n\n    modifier onlyMaster() {\n        for (uint256 i = 0; i < mastersList.length; i++) {\n            if (mastersList[i] == msg.sender) {\n                _;\n                return;\n            }\n        }\n        require(false, \"只有导师有权操作！\");\n    }\n\n    //////////////////////////\n\n    constructor() public {\n        admin = msg.sender;\n    }\n\n    //创建导师信息合约\n    function newMaster(bytes32 _name, uint64 _phone, string memory _email, address _owner)\n        public\n        onlyAdmin\n    {\n        address addr = address(new Master(_name, _phone, _email, _owner));\n        masters[_owner] = addr;\n        mastersList.push(_owner);\n    }\n\n    //销毁导师信息合约并移除导师\n    function delMaster() public {\n        address blank;\n        masters[msg.sender] = blank;\n        for (uint256 i = 0; i < mastersList.length; i++) {\n            if (mastersList[i] == msg.sender) {\n                mastersList[i] = mastersList[mastersList.length - 1];\n                mastersList.pop();\n                break;\n            }\n        }\n    }\n\n    //更改管理员\n    function setAdmin(address _admin) public onlyAdmin {\n        admin = _admin;\n    }\n\n    function setManagerCenter(address center) public {\n        address blank;\n        if(managerCenter==blank){\n            managerCenter = center;\n        } else {\n            require(msg.sender == managerCenter, \"无权修改managerCenter的地址\");\n            managerCenter = center;\n        }\n    }\n}\n",
  "sourcePath": "/mnt/c/Users/XuHao/OneDrive/0_projects/dapps/CMS/contracts/managers/MasterManager.sol",
  "compiler": {
    "name": "solc",
    "version": "0.5.16+commit.9c3226ce.Emscripten.clang"
  },
  "schemaVersion": "3.0.23",
  "updatedAt": "2020-03-30T06:06:02.782Z",
  "devdoc": {
    "methods": {}
  },
  "userdoc": {
    "methods": {
      "constructor": "///////////////////////"
    }
  }
}