{
  "contractName": "MasterManager",
  "abi": [
    {
      "inputs": [],
      "payable": false,
      "stateMutability": "nonpayable",
      "type": "constructor"
    },
    {
      "constant": true,
      "inputs": [
        {
          "internalType": "address",
          "name": "",
          "type": "address"
        }
      ],
      "name": "masters",
      "outputs": [
        {
          "internalType": "address",
          "name": "",
          "type": "address"
        }
      ],
      "payable": false,
      "stateMutability": "view",
      "type": "function"
    },
    {
      "constant": false,
      "inputs": [
        {
          "internalType": "bytes32",
          "name": "_name",
          "type": "bytes32"
        },
        {
          "internalType": "uint64",
          "name": "_phone",
          "type": "uint64"
        },
        {
          "internalType": "string",
          "name": "_email",
          "type": "string"
        }
      ],
      "name": "newMaster",
      "outputs": [],
      "payable": false,
      "stateMutability": "nonpayable",
      "type": "function"
    },
    {
      "constant": false,
      "inputs": [],
      "name": "delMaster",
      "outputs": [],
      "payable": false,
      "stateMutability": "nonpayable",
      "type": "function"
    },
    {
      "constant": false,
      "inputs": [
        {
          "internalType": "address",
          "name": "_admin",
          "type": "address"
        }
      ],
      "name": "setAdmin",
      "outputs": [],
      "payable": false,
      "stateMutability": "nonpayable",
      "type": "function"
    },
    {
      "constant": false,
      "inputs": [
        {
          "internalType": "address",
          "name": "center",
          "type": "address"
        }
      ],
      "name": "setManagerCenter",
      "outputs": [],
      "payable": false,
      "stateMutability": "nonpayable",
      "type": "function"
    }
  ],
  "bytecode": "0x608060405234801561001057600080fd5b5033600160006101000a81548173ffffffffffffffffffffffffffffffffffffffff021916908373ffffffffffffffffffffffffffffffffffffffff1602179055506110dc806100616000396000f3fe608060405234801561001057600080fd5b50600436106100575760003560e01c80631f8061971461005c5780633acaa04d14610066578063704b6c021461013f5780637a38a10614610183578063d70914ec14610207575b600080fd5b61006461024b565b005b61013d6004803603606081101561007c57600080fd5b8101908080359060200190929190803567ffffffffffffffff169060200190929190803590602001906401000000008111156100b757600080fd5b8201836020820111156100c957600080fd5b803590602001918460018302840111640100000000831117156100eb57600080fd5b91908080601f016020809104026020016040519081016040528093929190818152602001838380828437600081840152601f19601f820116905080830192505050505050509192919290505050610434565b005b6101816004803603602081101561015557600080fd5b81019080803573ffffffffffffffffffffffffffffffffffffffff1690602001909291905050506106b9565b005b6101c56004803603602081101561019957600080fd5b81019080803573ffffffffffffffffffffffffffffffffffffffff1690602001909291905050506107a3565b604051808273ffffffffffffffffffffffffffffffffffffffff1673ffffffffffffffffffffffffffffffffffffffff16815260200191505060405180910390f35b6102496004803603602081101561021d57600080fd5b81019080803573ffffffffffffffffffffffffffffffffffffffff1690602001909291905050506107d6565b005b600080600360003373ffffffffffffffffffffffffffffffffffffffff1673ffffffffffffffffffffffffffffffffffffffff16815260200190815260200160002060006101000a81548173ffffffffffffffffffffffffffffffffffffffff021916908373ffffffffffffffffffffffffffffffffffffffff16021790555060008090505b600280549050811015610430573373ffffffffffffffffffffffffffffffffffffffff166002828154811061030257fe5b9060005260206000200160009054906101000a900473ffffffffffffffffffffffffffffffffffffffff1673ffffffffffffffffffffffffffffffffffffffff1614156104235760026001600280549050038154811061035e57fe5b9060005260206000200160009054906101000a900473ffffffffffffffffffffffffffffffffffffffff166002828154811061039657fe5b9060005260206000200160006101000a81548173ffffffffffffffffffffffffffffffffffffffff021916908373ffffffffffffffffffffffffffffffffffffffff16021790555060028054806103e957fe5b6001900381819060005260206000200160006101000a81549073ffffffffffffffffffffffffffffffffffffffff02191690559055610430565b80806001019150506102d1565b5050565b600160009054906101000a900473ffffffffffffffffffffffffffffffffffffffff1673ffffffffffffffffffffffffffffffffffffffff163373ffffffffffffffffffffffffffffffffffffffff16146104da576040517f08c379a00000000000000000000000000000000000000000000000000000000081526004018080602001828103825260248152602001806110846024913960400191505060405180910390fd5b6000838383336040516104ec9061095c565b808581526020018467ffffffffffffffff1667ffffffffffffffff168152602001806020018373ffffffffffffffffffffffffffffffffffffffff1673ffffffffffffffffffffffffffffffffffffffff168152602001828103825284818151815260200191508051906020019080838360005b8381101561057b578082015181840152602081019050610560565b50505050905090810190601f1680156105a85780820380516001836020036101000a031916815260200191505b5095505050505050604051809103906000f0801580156105cc573d6000803e3d6000fd5b50905080600360003373ffffffffffffffffffffffffffffffffffffffff1673ffffffffffffffffffffffffffffffffffffffff16815260200190815260200160002060006101000a81548173ffffffffffffffffffffffffffffffffffffffff021916908373ffffffffffffffffffffffffffffffffffffffff16021790555060028190806001815401808255809150509060018203906000526020600020016000909192909190916101000a81548173ffffffffffffffffffffffffffffffffffffffff021916908373ffffffffffffffffffffffffffffffffffffffff1602179055505050505050565b600160009054906101000a900473ffffffffffffffffffffffffffffffffffffffff1673ffffffffffffffffffffffffffffffffffffffff163373ffffffffffffffffffffffffffffffffffffffff161461075f576040517f08c379a00000000000000000000000000000000000000000000000000000000081526004018080602001828103825260248152602001806110846024913960400191505060405180910390fd5b80600160006101000a81548173ffffffffffffffffffffffffffffffffffffffff021916908373ffffffffffffffffffffffffffffffffffffffff16021790555050565b60036020528060005260406000206000915054906101000a900473ffffffffffffffffffffffffffffffffffffffff1681565b60008073ffffffffffffffffffffffffffffffffffffffff166000809054906101000a900473ffffffffffffffffffffffffffffffffffffffff1673ffffffffffffffffffffffffffffffffffffffff16141561087257816000806101000a81548173ffffffffffffffffffffffffffffffffffffffff021916908373ffffffffffffffffffffffffffffffffffffffff160217905550610958565b6000809054906101000a900473ffffffffffffffffffffffffffffffffffffffff1673ffffffffffffffffffffffffffffffffffffffff163373ffffffffffffffffffffffffffffffffffffffff1614610917576040517f08c379a00000000000000000000000000000000000000000000000000000000081526004018080602001828103825260228152602001806110626022913960400191505060405180910390fd5b816000806101000a81548173ffffffffffffffffffffffffffffffffffffffff021916908373ffffffffffffffffffffffffffffffffffffffff1602179055505b5050565b6106f88061096a8339019056fe608060405234801561001057600080fd5b506040516106f83803806106f88339818101604052608081101561003357600080fd5b8101908080519060200190929190805190602001909291908051604051939291908464010000000082111561006757600080fd5b8382019150602082018581111561007d57600080fd5b825186600182028301116401000000008211171561009a57600080fd5b8083526020830192505050908051906020019080838360005b838110156100ce5780820151818401526020810190506100b3565b50505050905090810190601f1680156100fb5780820380516001836020036101000a031916815260200191505b50604052602001805190602001909291905050508360008190555082600160006101000a81548167ffffffffffffffff021916908367ffffffffffffffff16021790555081600290805190602001906101559291906101a0565b5080600360006101000a81548173ffffffffffffffffffffffffffffffffffffffff021916908373ffffffffffffffffffffffffffffffffffffffff16021790555050505050610245565b828054600181600116156101000203166002900490600052602060002090601f016020900481019282601f106101e157805160ff191683800117855561020f565b8280016001018555821561020f579182015b8281111561020e5782518255916020019190600101906101f3565b5b50905061021c9190610220565b5090565b61024291905b8082111561023e576000816000905550600101610226565b5090565b90565b6104a4806102546000396000f3fe608060405234801561001057600080fd5b506004361061004c5760003560e01c806306fdde03146100515780635dd927f51461006f578063820e93f5146101485780639284f497146101cb575b600080fd5b6100596101fd565b6040518082815260200191505060405180910390f35b6101466004803603606081101561008557600080fd5b8101908080359060200190929190803567ffffffffffffffff169060200190929190803590602001906401000000008111156100c057600080fd5b8201836020820111156100d257600080fd5b803590602001918460018302840111640100000000831117156100f457600080fd5b91908080601f016020809104026020016040519081016040528093929190818152602001838380828437600081840152601f19601f820116905080830192505050505050509192919290505050610203565b005b610150610312565b6040518080602001828103825283818151815260200191508051906020019080838360005b83811015610190578082015181840152602081019050610175565b50505050905090810190601f1680156101bd5780820380516001836020036101000a031916815260200191505b509250505060405180910390f35b6101d36103b0565b604051808267ffffffffffffffff1667ffffffffffffffff16815260200191505060405180910390f35b60005481565b600360009054906101000a900473ffffffffffffffffffffffffffffffffffffffff1673ffffffffffffffffffffffffffffffffffffffff163373ffffffffffffffffffffffffffffffffffffffff16146102c6576040517f08c379a00000000000000000000000000000000000000000000000000000000081526004018080602001828103825260158152602001807fe4b88de698afe59088e7baa6e68ba5e69c89e88085000000000000000000000081525060200191505060405180910390fd5b8260008190555081600160006101000a81548167ffffffffffffffff021916908367ffffffffffffffff160217905550806002908051906020019061030c9291906103ca565b50505050565b60028054600181600116156101000203166002900480601f0160208091040260200160405190810160405280929190818152602001828054600181600116156101000203166002900480156103a85780601f1061037d576101008083540402835291602001916103a8565b820191906000526020600020905b81548152906001019060200180831161038b57829003601f168201915b505050505081565b600160009054906101000a900467ffffffffffffffff1681565b828054600181600116156101000203166002900490600052602060002090601f016020900481019282601f1061040b57805160ff1916838001178555610439565b82800160010185558215610439579182015b8281111561043857825182559160200191906001019061041d565b5b509050610446919061044a565b5090565b61046c91905b80821115610468576000816000905550600101610450565b5090565b9056fea265627a7a723158202d14421a9dc435848374681fbbe79bcf48f3f685833a1fdfbdad2863582646ee64736f6c63430005100032e697a0e69d83e4bfaee694b96d616e6167657243656e746572e79a84e59cb0e59d80e58faae69c89e7aea1e79086e59198e69c89e69d83e8bf9be8a18ce6938de4bd9cefbc81a265627a7a723158208484211fed873286ab809aff6bd0ee0478fb69af312d23b7aec5920ead80166c64736f6c63430005100032",
  "source": "pragma solidity ^0.5.0;\n\nimport \"../roles/Master.sol\";\nimport \"./UserManager.sol\";\nimport \"./ClubManager.sol\";\n\nimport \"../roles/User.sol\";\n\ncontract MasterManager {\n    address managerCenter;\n\n    address admin; //管理员，管理导师的创建等\n\n    address[] mastersList; //导师列表\n    mapping(address => address) public masters; //导师个人地址到信息合约的映射\n\n    ////////权限验证////////////\n\n    modifier onlyAdmin() {\n        require(msg.sender == admin, \"只有管理员有权进行操作！\");\n        _;\n    }\n\n    modifier onlyMaster() {\n        for (uint256 i = 0; i < mastersList.length; i++) {\n            if (mastersList[i] == msg.sender) {\n                _;\n                return;\n            }\n        }\n        require(false, \"只有导师有权操作！\");\n    }\n\n    //////////////////////////\n\n    constructor() public {\n        admin = msg.sender;\n    }\n\n    //创建导师信息合约\n    function newMaster(bytes32 _name, uint64 _phone, string memory _email)\n        public\n        onlyAdmin\n    {\n        address addr = address(new Master(_name, _phone, _email, msg.sender));\n        masters[msg.sender] = addr;\n        mastersList.push(addr);\n    }\n\n    //销毁导师信息合约并移除导师\n    function delMaster() public {\n        address blank;\n        masters[msg.sender] = blank;\n        for (uint256 i = 0; i < mastersList.length; i++) {\n            if (mastersList[i] == msg.sender) {\n                mastersList[i] = mastersList[mastersList.length - 1];\n                mastersList.pop();\n                break;\n            }\n        }\n    }\n\n    //更改管理员\n    function setAdmin(address _admin) public onlyAdmin {\n        admin = _admin;\n    }\n\n    // //获取申请总数\n    // function getAppliesAmount()\n    //     public\n    //     view\n    //     onlyMaster\n    //     returns (uint256 amount)\n    // {\n    //     return clubApplies.length;\n    // }\n\n    // //获取所有申请\n    // function getNewClubApplies(uint256 index)\n    //     public\n    //     view\n    //     onlyMaster\n    //     returns (\n    //         bytes32 _name,\n    //         address[] memory _presidium,\n    //         string memory _message\n    //     )\n    // {\n    //     return (\n    //         clubApplies[index].name,\n    //         clubApplies[index].presidium,\n    //         clubApplies[index].message\n    //     );\n    // }\n\n    // /**\n    // @dev 审核创建社团的申请, 一名导师通过即可\n    // @param index 申请在申请列表中的编号\n    // */\n    // function reviewNewClubApplies(uint256 index, bool pass, string memory time)\n    //     public\n    //     onlyMaster\n    // {\n    //     if (pass == true) {\n    //         //创建社团\n    //         ClubManagerInterface cmi = ClubManagerInterface(clubManager);\n    //         address clubAddr = cmi.newClub(\n    //             clubApplies[index].name,\n    //             clubApplies[index].presidium\n    //         );\n\n    //         //将社团加入主席团成员的社团列表中\n\n    //         //通知主席\n    //         UserInterface ui = UserInterface(clubApplies[index].presidium);\n    //         ui.newNotice(\"学校通知\", address(this), time, \"社团创建申请通过\");\n\n    //         //删除申请\n    //         clubApplies[index] = clubApplies[clubApplies.length - 1];\n    //         clubApplies.pop();\n    //     } else {\n    //         //通知主席团成员\n    //         UserInterface ui = UserInterface(clubApplies[index].presidium);\n    //         ui.newNotice(\n    //             \"学校通知\",\n    //             address(this),\n    //             time,\n    //             \"您创建社团的请求没有通过\"\n    //         );\n    //         //删除申请\n    //         clubApplies[index] = clubApplies[clubApplies.length - 1];\n    //         clubApplies.pop();\n    //     }\n    // }\n\n    function setManagerCenter(address center) public {\n        address blank;\n        if(managerCenter==blank){\n            managerCenter = center;\n        } else {\n            require(msg.sender == managerCenter, \"无权修改managerCenter的地址\");\n            managerCenter = center;\n        }\n    }\n}\n",
  "sourcePath": "/Users/xuhao/dapps/CMS/contracts/managers/MasterManager.sol",
  "compiler": {
    "name": "solc",
    "version": "0.5.16+commit.9c3226ce.Emscripten.clang"
  },
  "schemaVersion": "3.0.23",
  "updatedAt": "2020-03-25T08:30:06.180Z",
  "networkType": "ethereum",
  "devdoc": {
    "methods": {}
  },
  "userdoc": {
    "methods": {
      "constructor": "///////////////////////"
    }
  }
}