{
  "contractName": "Master",
  "abi": [
    {
      "inputs": [
        {
          "internalType": "bytes32",
          "name": "_name",
          "type": "bytes32"
        },
        {
          "internalType": "uint64",
          "name": "_phone",
          "type": "uint64"
        },
        {
          "internalType": "string",
          "name": "_email",
          "type": "string"
        },
        {
          "internalType": "address",
          "name": "_owner",
          "type": "address"
        }
      ],
      "payable": false,
      "stateMutability": "nonpayable",
      "type": "constructor"
    },
    {
      "constant": true,
      "inputs": [],
      "name": "email",
      "outputs": [
        {
          "internalType": "string",
          "name": "",
          "type": "string"
        }
      ],
      "payable": false,
      "stateMutability": "view",
      "type": "function"
    },
    {
      "constant": true,
      "inputs": [],
      "name": "name",
      "outputs": [
        {
          "internalType": "bytes32",
          "name": "",
          "type": "bytes32"
        }
      ],
      "payable": false,
      "stateMutability": "view",
      "type": "function"
    },
    {
      "constant": true,
      "inputs": [],
      "name": "phone",
      "outputs": [
        {
          "internalType": "uint64",
          "name": "",
          "type": "uint64"
        }
      ],
      "payable": false,
      "stateMutability": "view",
      "type": "function"
    },
    {
      "constant": false,
      "inputs": [
        {
          "internalType": "bytes32",
          "name": "_name",
          "type": "bytes32"
        },
        {
          "internalType": "uint64",
          "name": "_phone",
          "type": "uint64"
        },
        {
          "internalType": "string",
          "name": "_email",
          "type": "string"
        }
      ],
      "name": "setInfo",
      "outputs": [],
      "payable": false,
      "stateMutability": "nonpayable",
      "type": "function"
    }
  ],
  "bytecode": "0x608060405234801561001057600080fd5b506040516106f83803806106f88339818101604052608081101561003357600080fd5b8101908080519060200190929190805190602001909291908051604051939291908464010000000082111561006757600080fd5b8382019150602082018581111561007d57600080fd5b825186600182028301116401000000008211171561009a57600080fd5b8083526020830192505050908051906020019080838360005b838110156100ce5780820151818401526020810190506100b3565b50505050905090810190601f1680156100fb5780820380516001836020036101000a031916815260200191505b50604052602001805190602001909291905050508360008190555082600160006101000a81548167ffffffffffffffff021916908367ffffffffffffffff16021790555081600290805190602001906101559291906101a0565b5080600360006101000a81548173ffffffffffffffffffffffffffffffffffffffff021916908373ffffffffffffffffffffffffffffffffffffffff16021790555050505050610245565b828054600181600116156101000203166002900490600052602060002090601f016020900481019282601f106101e157805160ff191683800117855561020f565b8280016001018555821561020f579182015b8281111561020e5782518255916020019190600101906101f3565b5b50905061021c9190610220565b5090565b61024291905b8082111561023e576000816000905550600101610226565b5090565b90565b6104a4806102546000396000f3fe608060405234801561001057600080fd5b506004361061004c5760003560e01c806306fdde03146100515780635dd927f51461006f578063820e93f5146101485780639284f497146101cb575b600080fd5b6100596101fd565b6040518082815260200191505060405180910390f35b6101466004803603606081101561008557600080fd5b8101908080359060200190929190803567ffffffffffffffff169060200190929190803590602001906401000000008111156100c057600080fd5b8201836020820111156100d257600080fd5b803590602001918460018302840111640100000000831117156100f457600080fd5b91908080601f016020809104026020016040519081016040528093929190818152602001838380828437600081840152601f19601f820116905080830192505050505050509192919290505050610203565b005b610150610312565b6040518080602001828103825283818151815260200191508051906020019080838360005b83811015610190578082015181840152602081019050610175565b50505050905090810190601f1680156101bd5780820380516001836020036101000a031916815260200191505b509250505060405180910390f35b6101d36103b0565b604051808267ffffffffffffffff1667ffffffffffffffff16815260200191505060405180910390f35b60005481565b600360009054906101000a900473ffffffffffffffffffffffffffffffffffffffff1673ffffffffffffffffffffffffffffffffffffffff163373ffffffffffffffffffffffffffffffffffffffff16146102c6576040517f08c379a00000000000000000000000000000000000000000000000000000000081526004018080602001828103825260158152602001807fe4b88de698afe59088e7baa6e68ba5e69c89e88085000000000000000000000081525060200191505060405180910390fd5b8260008190555081600160006101000a81548167ffffffffffffffff021916908367ffffffffffffffff160217905550806002908051906020019061030c9291906103ca565b50505050565b60028054600181600116156101000203166002900480601f0160208091040260200160405190810160405280929190818152602001828054600181600116156101000203166002900480156103a85780601f1061037d576101008083540402835291602001916103a8565b820191906000526020600020905b81548152906001019060200180831161038b57829003601f168201915b505050505081565b600160009054906101000a900467ffffffffffffffff1681565b828054600181600116156101000203166002900490600052602060002090601f016020900481019282601f1061040b57805160ff1916838001178555610439565b82800160010185558215610439579182015b8281111561043857825182559160200191906001019061041d565b5b509050610446919061044a565b5090565b61046c91905b80821115610468576000816000905550600101610450565b5090565b9056fea265627a7a723158202d14421a9dc435848374681fbbe79bcf48f3f685833a1fdfbdad2863582646ee64736f6c63430005100032",
  "source": "pragma solidity ^0.5.0;\n\ncontract Master {\n    ////公开信息////////\n    bytes32 public name; //真实姓名\n    uint64 public phone;\n    string public email;\n\n    ////权限信息///////\n    address owner; //拥有者\n\n    modifier onlyOwner() {\n        require(msg.sender == owner, \"不是合约拥有者\");\n        _;\n    }\n\n    ////////函数////////\n\n    constructor(\n        bytes32 _name,\n        uint64 _phone,\n        string memory _email,\n        address _owner\n    ) public {\n        name = _name;\n        phone = _phone;\n        email = _email;\n        owner = _owner;\n    }\n\n    function setInfo(bytes32 _name, uint64 _phone, string memory _email)\n        public\n        onlyOwner\n    {\n        name = _name;\n        phone = _phone;\n        email = _email;\n    }\n}\n",
  "sourcePath": "/Users/xuhao/dapps/CMS/contracts/roles/Master.sol",
  "compiler": {
    "name": "solc",
    "version": "0.5.16+commit.9c3226ce.Emscripten.clang"
  },
  "schemaVersion": "3.0.23",
  "updatedAt": "2020-03-25T08:16:40.614Z",
  "devdoc": {
    "methods": {}
  },
  "userdoc": {
    "methods": {
      "constructor": "/////函数////////"
    }
  }
}