{
  "contractName": "UserManager",
  "abi": [
    {
      "constant": true,
      "inputs": [
        {
          "internalType": "address",
          "name": "",
          "type": "address"
        }
      ],
      "name": "users",
      "outputs": [
        {
          "internalType": "address",
          "name": "",
          "type": "address"
        }
      ],
      "payable": false,
      "stateMutability": "view",
      "type": "function"
    },
    {
      "constant": false,
      "inputs": [
        {
          "internalType": "bytes10",
          "name": "name",
          "type": "bytes10"
        }
      ],
      "name": "newUser",
      "outputs": [],
      "payable": false,
      "stateMutability": "nonpayable",
      "type": "function"
    },
    {
      "constant": false,
      "inputs": [],
      "name": "delUser",
      "outputs": [],
      "payable": false,
      "stateMutability": "nonpayable",
      "type": "function"
    },
    {
      "constant": true,
      "inputs": [
        {
          "internalType": "address",
          "name": "addr",
          "type": "address"
        }
      ],
      "name": "isUser",
      "outputs": [
        {
          "internalType": "bool",
          "name": "",
          "type": "bool"
        }
      ],
      "payable": false,
      "stateMutability": "view",
      "type": "function"
    },
    {
      "constant": false,
      "inputs": [
        {
          "internalType": "address",
          "name": "center",
          "type": "address"
        }
      ],
      "name": "setManagerCenter",
      "outputs": [],
      "payable": false,
      "stateMutability": "nonpayable",
      "type": "function"
    }
  ],
  "bytecode": "0x608060405234801561001057600080fd5b506140e0806100206000396000f3fe608060405234801561001057600080fd5b50600436106100575760003560e01c80634209fff11461005c578063899478a6146100b8578063a87430ba146100c2578063d70914ec14610146578063e0ae4c9f1461018a575b600080fd5b61009e6004803603602081101561007257600080fd5b81019080803573ffffffffffffffffffffffffffffffffffffffff1690602001909291905050506101d1565b604051808215151515815260200191505060405180910390f35b6100c0610273565b005b610104600480360360208110156100d857600080fd5b81019080803573ffffffffffffffffffffffffffffffffffffffff16906020019092919050505061045a565b604051808273ffffffffffffffffffffffffffffffffffffffff1673ffffffffffffffffffffffffffffffffffffffff16815260200191505060405180910390f35b6101886004803603602081101561015c57600080fd5b81019080803573ffffffffffffffffffffffffffffffffffffffff16906020019092919050505061048d565b005b6101cf600480360360208110156101a057600080fd5b81019080803575ffffffffffffffffffffffffffffffffffffffffffff19169060200190929190505050610613565b005b600080600090505b600180549050811015610268578273ffffffffffffffffffffffffffffffffffffffff166001828154811061020a57fe5b9060005260206000200160009054906101000a900473ffffffffffffffffffffffffffffffffffffffff1673ffffffffffffffffffffffffffffffffffffffff16141561025b57600191505061026e565b80806001019150506101d9565b50600090505b919050565b600080600260003373ffffffffffffffffffffffffffffffffffffffff1673ffffffffffffffffffffffffffffffffffffffff16815260200190815260200160002060006101000a81548173ffffffffffffffffffffffffffffffffffffffff021916908373ffffffffffffffffffffffffffffffffffffffff16021790555060008090505b600180549050811015610456573373ffffffffffffffffffffffffffffffffffffffff166001828154811061032a57fe5b9060005260206000200160009054906101000a900473ffffffffffffffffffffffffffffffffffffffff1673ffffffffffffffffffffffffffffffffffffffff161415610449576001808080549050038154811061038457fe5b9060005260206000200160009054906101000a900473ffffffffffffffffffffffffffffffffffffffff16600182815481106103bc57fe5b9060005260206000200160006101000a81548173ffffffffffffffffffffffffffffffffffffffff021916908373ffffffffffffffffffffffffffffffffffffffff160217905550600180548061040f57fe5b6001900381819060005260206000200160006101000a81549073ffffffffffffffffffffffffffffffffffffffff02191690559055610456565b80806001019150506102f9565b5050565b60026020528060005260406000206000915054906101000a900473ffffffffffffffffffffffffffffffffffffffff1681565b60008073ffffffffffffffffffffffffffffffffffffffff166000809054906101000a900473ffffffffffffffffffffffffffffffffffffffff1673ffffffffffffffffffffffffffffffffffffffff16141561052957816000806101000a81548173ffffffffffffffffffffffffffffffffffffffff021916908373ffffffffffffffffffffffffffffffffffffffff16021790555061060f565b6000809054906101000a900473ffffffffffffffffffffffffffffffffffffffff1673ffffffffffffffffffffffffffffffffffffffff163373ffffffffffffffffffffffffffffffffffffffff16146105ce576040517f08c379a000000000000000000000000000000000000000000000000000000000815260040180806020018281038252602281526020018061408a6022913960400191505060405180910390fd5b816000806101000a81548173ffffffffffffffffffffffffffffffffffffffff021916908373ffffffffffffffffffffffffffffffffffffffff1602179055505b5050565b803360405161062190610793565b808375ffffffffffffffffffffffffffffffffffffffffffff191675ffffffffffffffffffffffffffffffffffffffffffff191681526020018273ffffffffffffffffffffffffffffffffffffffff1673ffffffffffffffffffffffffffffffffffffffff16815260200192505050604051809103906000f0801580156106ac573d6000803e3d6000fd5b50600260003373ffffffffffffffffffffffffffffffffffffffff1673ffffffffffffffffffffffffffffffffffffffff16815260200190815260200160002060006101000a81548173ffffffffffffffffffffffffffffffffffffffff021916908373ffffffffffffffffffffffffffffffffffffffff16021790555060013390806001815401808255809150509060018203906000526020600020016000909192909190916101000a81548173ffffffffffffffffffffffffffffffffffffffff021916908373ffffffffffffffffffffffffffffffffffffffff1602179055505050565b6138e9806107a18339019056fe608060405234801561001057600080fd5b506040516138e93803806138e98339818101604052604081101561003357600080fd5b81019080805190602001909291908051906020019092919050505081600060146101000a81548169ffffffffffffffffffff021916908360b01c0217905550806000806101000a81548173ffffffffffffffffffffffffffffffffffffffff021916908373ffffffffffffffffffffffffffffffffffffffff1602179055505050613826806100c36000396000f3fe608060405234801561001057600080fd5b506004361061014d5760003560e01c806371c77906116100c3578063e21f37ce1161007c578063e21f37ce14610bf4578063e71752d514610c77578063fb9a07cc14610cbb578063fc0b4aed14610cc5578063fde5382914610d09578063ff6cd33e14610d4d5761014d565b806371c779061461083d5780638f4bd32614610881578063950e89d61461088b578063caee18cd14610aac578063d138306614610ab6578063d68387c714610b715761014d565b80632868ca3c116101155780632868ca3c1461040957806333857a0114610427578063368b8772146104315780633a98a722146104ec578063573e01fc146105305780635d8d1585146106e25761014d565b806306fdde03146101525780630e36f686146101a257806311816997146101e65780631a9cf52c146103cf5780631fe142bd146103ff575b600080fd5b61015a610d6f565b604051808275ffffffffffffffffffffffffffffffffffffffffffff191675ffffffffffffffffffffffffffffffffffffffffffff1916815260200191505060405180910390f35b6101e4600480360360208110156101b857600080fd5b81019080803573ffffffffffffffffffffffffffffffffffffffff169060200190929190505050610d82565b005b6103cd600480360360608110156101fc57600080fd5b810190808035906020019064010000000081111561021957600080fd5b82018360208201111561022b57600080fd5b8035906020019184600183028401116401000000008311171561024d57600080fd5b91908080601f016020809104026020016040519081016040528093929190818152602001838380828437600081840152601f19601f820116905080830192505050505050509192919290803590602001906401000000008111156102b057600080fd5b8201836020820111156102c257600080fd5b803590602001918460018302840111640100000000831117156102e457600080fd5b91908080601f016020809104026020016040519081016040528093929190818152602001838380828437600081840152601f19601f8201169050808301925050505050505091929192908035906020019064010000000081111561034757600080fd5b82018360208201111561035957600080fd5b8035906020019184600183028401116401000000008311171561037b57600080fd5b91908080601f016020809104026020016040519081016040528093929190818152602001838380828437600081840152601f19601f820116905080830192505050505050509192919290505050610fad565b005b6103fd600480360360208110156103e557600080fd5b810190808035151590602001909291905050506112a6565b005b610407611385565b005b61041161144f565b6040518082815260200191505060405180910390f35b61042f61151e565b005b6104ea6004803603602081101561044757600080fd5b810190808035906020019064010000000081111561046457600080fd5b82018360208201111561047657600080fd5b8035906020019184600183028401116401000000008311171561049857600080fd5b91908080601f016020809104026020016040519081016040528093929190818152602001838380828437600081840152601f19601f8201169050808301925050505050505091929192905050506115e8565b005b61052e6004803603602081101561050257600080fd5b81019080803573ffffffffffffffffffffffffffffffffffffffff1690602001909291905050506116c4565b005b61055c6004803603602081101561054657600080fd5b8101908080359060200190929190505050611a61565b604051808573ffffffffffffffffffffffffffffffffffffffff1673ffffffffffffffffffffffffffffffffffffffff168152602001806020018060200180602001848103845287818151815260200191508051906020019080838360005b838110156105d65780820151818401526020810190506105bb565b50505050905090810190601f1680156106035780820380516001836020036101000a031916815260200191505b50848103835286818151815260200191508051906020019080838360005b8381101561063c578082015181840152602081019050610621565b50505050905090810190601f1680156106695780820380516001836020036101000a031916815260200191505b50848103825285818151815260200191508051906020019080838360005b838110156106a2578082015181840152602081019050610687565b50505050905090810190601f1680156106cf5780820380516001836020036101000a031916815260200191505b5097505050505050505060405180910390f35b6106ea611da6565b60405180881515151581526020018767ffffffffffffffff1667ffffffffffffffff1681526020018667ffffffffffffffff1667ffffffffffffffff168152602001806020018581526020018060200180602001848103845288818151815260200191508051906020019080838360005b8381101561077657808201518184015260208101905061075b565b50505050905090810190601f1680156107a35780820380516001836020036101000a031916815260200191505b50848103835286818151815260200191508051906020019060200280838360005b838110156107df5780820151818401526020810190506107c4565b50505050905001848103825285818151815260200191508051906020019060200280838360005b83811015610821578082015181840152602081019050610806565b505050509050019a505050505050505050505060405180910390f35b61087f6004803603602081101561085357600080fd5b81019080803573ffffffffffffffffffffffffffffffffffffffff169060200190929190505050612133565b005b6108896122f1565b005b610aaa600480360360e08110156108a157600080fd5b81019080803515159060200190929190803567ffffffffffffffff169060200190929190803567ffffffffffffffff169060200190929190803590602001906401000000008111156108f257600080fd5b82018360208201111561090457600080fd5b8035906020019184600183028401116401000000008311171561092657600080fd5b91908080601f016020809104026020016040519081016040528093929190818152602001838380828437600081840152601f19601f820116905080830192505050505050509192919290803590602001909291908035906020019064010000000081111561099357600080fd5b8201836020820111156109a557600080fd5b803590602001918460208302840111640100000000831117156109c757600080fd5b919080806020026020016040519081016040528093929190818152602001838360200280828437600081840152601f19601f82011690508083019250505050505050919291929080359060200190640100000000811115610a2757600080fd5b820183602082011115610a3957600080fd5b80359060200191846020830284011164010000000083111715610a5b57600080fd5b919080806020026020016040519081016040528093929190818152602001838360200280828437600081840152601f19601f82011690508083019250505050505050919291929050505061270a565b005b610ab461288d565b005b610b6f60048036036020811015610acc57600080fd5b8101908080359060200190640100000000811115610ae957600080fd5b820183602082011115610afb57600080fd5b80359060200191846001830284011164010000000083111715610b1d57600080fd5b91908080601f016020809104026020016040519081016040528093929190818152602001838380828437600081840152601f19601f820116905080830192505050505050509192919290505050612957565b005b610b79612a33565b6040518080602001828103825283818151815260200191508051906020019080838360005b83811015610bb9578082015181840152602081019050610b9e565b50505050905090810190601f168015610be65780820380516001836020036101000a031916815260200191505b509250505060405180910390f35b610bfc612ad1565b6040518080602001828103825283818151815260200191508051906020019080838360005b83811015610c3c578082015181840152602081019050610c21565b50505050905090810190601f168015610c695780820380516001836020036101000a031916815260200191505b509250505060405180910390f35b610cb960048036036020811015610c8d57600080fd5b81019080803573ffffffffffffffffffffffffffffffffffffffff169060200190929190505050612b6f565b005b610cc3612d2d565b005b610d0760048036036020811015610cdb57600080fd5b81019080803573ffffffffffffffffffffffffffffffffffffffff1690602001909291905050506130e0565b005b610d4b60048036036020811015610d1f57600080fd5b81019080803573ffffffffffffffffffffffffffffffffffffffff16906020019092919050505061320b565b005b610d55613590565b604051808215151515815260200191505060405180910390f35b600060149054906101000a900460b01b81565b6000809054906101000a900473ffffffffffffffffffffffffffffffffffffffff1673ffffffffffffffffffffffffffffffffffffffff163373ffffffffffffffffffffffffffffffffffffffff1614610e44576040517f08c379a00000000000000000000000000000000000000000000000000000000081526004018080602001828103825260158152602001807fe4b88de698afe59088e7baa6e68ba5e69c89e88085000000000000000000000081525060200191505060405180910390fd5b60008090505b600980549050811015610fa9578173ffffffffffffffffffffffffffffffffffffffff1660098281548110610e7b57fe5b9060005260206000200160009054906101000a900473ffffffffffffffffffffffffffffffffffffffff1673ffffffffffffffffffffffffffffffffffffffff161415610f9c57600960016009805490500381548110610ed757fe5b9060005260206000200160009054906101000a900473ffffffffffffffffffffffffffffffffffffffff1660098281548110610f0f57fe5b9060005260206000200160006101000a81548173ffffffffffffffffffffffffffffffffffffffff021916908373ffffffffffffffffffffffffffffffffffffffff1602179055506009805480610f6257fe5b6001900381819060005260206000200160006101000a81549073ffffffffffffffffffffffffffffffffffffffff02191690559055610fa9565b8080600101915050610e4a565b5050565b600860009054906101000a900460ff166110cc57600080905060008090505b600980549050811015611056573373ffffffffffffffffffffffffffffffffffffffff1660098281548110610ffd57fe5b9060005260206000200160009054906101000a900473ffffffffffffffffffffffffffffffffffffffff1673ffffffffffffffffffffffffffffffffffffffff16141561104957600191505b8080600101915050610fcc565b50806110ca576040517f08c379a00000000000000000000000000000000000000000000000000000000081526004018080602001828103825260128152602001807fe6b2a1e69c89e7a781e4bfa1e69d83e99990000000000000000000000000000081525060200191505060405180910390fd5b505b600e60405180608001604052803373ffffffffffffffffffffffffffffffffffffffff168152602001848152602001858152602001838152509080600181540180825580915050906001820390600052602060002090600402016000909192909190915060008201518160000160006101000a81548173ffffffffffffffffffffffffffffffffffffffff021916908373ffffffffffffffffffffffffffffffffffffffff1602179055506020820151816001019080519060200190611193929190613630565b5060408201518160020190805190602001906111b0929190613630565b5060608201518160030190805190602001906111cd929190613630565b505050507f16c3148f0fd7f301e8be3b552e5cb33fe6750974855cc646132f7777b6aa710f823360405180806020018373ffffffffffffffffffffffffffffffffffffffff1673ffffffffffffffffffffffffffffffffffffffff168152602001828103825284818151815260200191508051906020019080838360005b8381101561126657808201518184015260208101905061124b565b50505050905090810190601f1680156112935780820380516001836020036101000a031916815260200191505b50935050505060405180910390a1505050565b6000809054906101000a900473ffffffffffffffffffffffffffffffffffffffff1673ffffffffffffffffffffffffffffffffffffffff163373ffffffffffffffffffffffffffffffffffffffff1614611368576040517f08c379a00000000000000000000000000000000000000000000000000000000081526004018080602001828103825260158152602001807fe4b88de698afe59088e7baa6e68ba5e69c89e88085000000000000000000000081525060200191505060405180910390fd5b80600860006101000a81548160ff02191690831515021790555050565b60008090505b600d8054905081101561144c573373ffffffffffffffffffffffffffffffffffffffff16600d82815481106113bc57fe5b9060005260206000200160000160009054906101000a900473ffffffffffffffffffffffffffffffffffffffff1673ffffffffffffffffffffffffffffffffffffffff16141561143f576002600d828154811061141557fe5b9060005260206000200160000160146101000a81548160ff021916908360ff16021790555061144c565b808060010191505061138b565b50565b60008060009054906101000a900473ffffffffffffffffffffffffffffffffffffffff1673ffffffffffffffffffffffffffffffffffffffff163373ffffffffffffffffffffffffffffffffffffffff1614611513576040517f08c379a00000000000000000000000000000000000000000000000000000000081526004018080602001828103825260158152602001807fe4b88de698afe59088e7baa6e68ba5e69c89e88085000000000000000000000081525060200191505060405180910390fd5b600e80549050905090565b60008090505b600d805490508110156115e5573373ffffffffffffffffffffffffffffffffffffffff16600d828154811061155557fe5b9060005260206000200160000160009054906101000a900473ffffffffffffffffffffffffffffffffffffffff1673ffffffffffffffffffffffffffffffffffffffff1614156115d8576000600d82815481106115ae57fe5b9060005260206000200160000160146101000a81548160ff021916908360ff1602179055506115e5565b8080600101915050611524565b50565b6000809054906101000a900473ffffffffffffffffffffffffffffffffffffffff1673ffffffffffffffffffffffffffffffffffffffff163373ffffffffffffffffffffffffffffffffffffffff16146116aa576040517f08c379a00000000000000000000000000000000000000000000000000000000081526004018080602001828103825260158152602001807fe4b88de698afe59088e7baa6e68ba5e69c89e88085000000000000000000000081525060200191505060405180910390fd5b80600290805190602001906116c09291906136b0565b5050565b600080905060008090505b6001600a8054905003811015611835573373ffffffffffffffffffffffffffffffffffffffff16600a828154811061170357fe5b9060005260206000200160009054906101000a900473ffffffffffffffffffffffffffffffffffffffff1673ffffffffffffffffffffffffffffffffffffffff1614156118285760019150600a6001600a80549050038154811061176357fe5b9060005260206000200160009054906101000a900473ffffffffffffffffffffffffffffffffffffffff16600a828154811061179b57fe5b9060005260206000200160006101000a81548173ffffffffffffffffffffffffffffffffffffffff021916908373ffffffffffffffffffffffffffffffffffffffff160217905550600a8054806117ee57fe5b6001900381819060005260206000200160006101000a81549073ffffffffffffffffffffffffffffffffffffffff02191690559055611835565b80806001019150506116cf565b506000809054906101000a900473ffffffffffffffffffffffffffffffffffffffff1673ffffffffffffffffffffffffffffffffffffffff163373ffffffffffffffffffffffffffffffffffffffff16148061188e5750805b611900576040517f08c379a00000000000000000000000000000000000000000000000000000000081526004018080602001828103825260128152602001807fe697a0e69d83e6b7bbe58aa0e7a4bee59ba2000000000000000000000000000081525060200191505060405180910390fd5b60008090505b600c80549050811015611992578273ffffffffffffffffffffffffffffffffffffffff16600c828154811061193757fe5b9060005260206000200160009054906101000a900473ffffffffffffffffffffffffffffffffffffffff1673ffffffffffffffffffffffffffffffffffffffff161415611985575050611a5e565b8080600101915050611906565b50600c8290806001815401808255809150509060018203906000526020600020016000909192909190916101000a81548173ffffffffffffffffffffffffffffffffffffffff021916908373ffffffffffffffffffffffffffffffffffffffff160217905550507f24a54f681089df154376249450aa3f412c01854bbc6ba084e8af0bb5a9d607cf82604051808273ffffffffffffffffffffffffffffffffffffffff1673ffffffffffffffffffffffffffffffffffffffff16815260200191505060405180910390a1505b50565b600060608060606000809054906101000a900473ffffffffffffffffffffffffffffffffffffffff1673ffffffffffffffffffffffffffffffffffffffff163373ffffffffffffffffffffffffffffffffffffffff1614611b2a576040517f08c379a00000000000000000000000000000000000000000000000000000000081526004018080602001828103825260158152602001807fe4b88de698afe59088e7baa6e68ba5e69c89e88085000000000000000000000081525060200191505060405180910390fd5b600e8581548110611b3757fe5b906000526020600020906004020160000160009054906101000a900473ffffffffffffffffffffffffffffffffffffffff16600e8681548110611b7657fe5b9060005260206000209060040201600101600e8781548110611b9457fe5b9060005260206000209060040201600201600e8881548110611bb257fe5b9060005260206000209060040201600301828054600181600116156101000203166002900480601f016020809104026020016040519081016040528092919081815260200182805460018160011615610100020316600290048015611c585780601f10611c2d57610100808354040283529160200191611c58565b820191906000526020600020905b815481529060010190602001808311611c3b57829003601f168201915b50505050509250818054600181600116156101000203166002900480601f016020809104026020016040519081016040528092919081815260200182805460018160011615610100020316600290048015611cf45780601f10611cc957610100808354040283529160200191611cf4565b820191906000526020600020905b815481529060010190602001808311611cd757829003601f168201915b50505050509150808054600181600116156101000203166002900480601f016020809104026020016040519081016040528092919081815260200182805460018160011615610100020316600290048015611d905780601f10611d6557610100808354040283529160200191611d90565b820191906000526020600020905b815481529060010190602001808311611d7357829003601f168201915b5050505050905093509350935093509193509193565b600080600060606000606080600080905060008090505b600c80549050811015611e4b573373ffffffffffffffffffffffffffffffffffffffff16600c8281548110611dee57fe5b9060005260206000200160009054906101000a900473ffffffffffffffffffffffffffffffffffffffff1673ffffffffffffffffffffffffffffffffffffffff161415611e3e5760019150611e4b565b8080600101915050611dbd565b5080611ee75760008090505b600b80549050811015611ee5573373ffffffffffffffffffffffffffffffffffffffff16600b8281548110611e8857fe5b9060005260206000200160009054906101000a900473ffffffffffffffffffffffffffffffffffffffff1673ffffffffffffffffffffffffffffffffffffffff161415611ed85760019150611ee5565b8080600101915050611e57565b505b8080611f3f57506000809054906101000a900473ffffffffffffffffffffffffffffffffffffffff1673ffffffffffffffffffffffffffffffffffffffff163373ffffffffffffffffffffffffffffffffffffffff16145b611f94576040517f08c379a000000000000000000000000000000000000000000000000000000000815260040180806020018281038252602a8152602001806137c8602a913960400191505060405180910390fd5b600360009054906101000a900460ff16600360019054906101000a900467ffffffffffffffff16600360099054906101000a900467ffffffffffffffff16600460055460066007838054600181600116156101000203166002900480601f0160208091040260200160405190810160405280929190818152602001828054600181600116156101000203166002900480156120705780601f1061204557610100808354040283529160200191612070565b820191906000526020600020905b81548152906001019060200180831161205357829003601f168201915b50505050509350818054806020026020016040519081016040528092919081815260200182805480156120c257602002820191906000526020600020905b8154815260200190600101908083116120ae575b505050505091508080548060200260200160405190810160405280929190818152602001828054801561211457602002820191906000526020600020905b815481526020019060010190808311612100575b5050505050905097509750975097509750975097505090919293949596565b6000809054906101000a900473ffffffffffffffffffffffffffffffffffffffff1673ffffffffffffffffffffffffffffffffffffffff163373ffffffffffffffffffffffffffffffffffffffff16146121f5576040517f08c379a00000000000000000000000000000000000000000000000000000000081526004018080602001828103825260158152602001807fe4b88de698afe59088e7baa6e68ba5e69c89e88085000000000000000000000081525060200191505060405180910390fd5b60008090505b600980549050811015612286578173ffffffffffffffffffffffffffffffffffffffff166009828154811061222c57fe5b9060005260206000200160009054906101000a900473ffffffffffffffffffffffffffffffffffffffff1673ffffffffffffffffffffffffffffffffffffffff16141561227957506122ee565b80806001019150506121fb565b5060098190806001815401808255809150509060018203906000526020600020016000909192909190916101000a81548173ffffffffffffffffffffffffffffffffffffffff021916908373ffffffffffffffffffffffffffffffffffffffff160217905550505b50565b6000809050600080600090505b600b8054905081101561238f573373ffffffffffffffffffffffffffffffffffffffff16600b828154811061232f57fe5b9060005260206000200160009054906101000a900473ffffffffffffffffffffffffffffffffffffffff1673ffffffffffffffffffffffffffffffffffffffff161415612382576001925080915061238f565b80806001019150506122fe565b5081612403576040517f08c379a00000000000000000000000000000000000000000000000000000000081526004018080602001828103825260188152602001807fe6b2a1e69c89e794b3e8afb7e58aa0e585a5e7a4bee59ba2000000000000000081525060200191505060405180910390fd5b600c3390806001815401808255809150509060018203906000526020600020016000909192909190916101000a81548173ffffffffffffffffffffffffffffffffffffffff021916908373ffffffffffffffffffffffffffffffffffffffff16021790555050600b6001600b80549050038154811061247e57fe5b9060005260206000200160009054906101000a900473ffffffffffffffffffffffffffffffffffffffff16600b82815481106124b657fe5b9060005260206000200160006101000a81548173ffffffffffffffffffffffffffffffffffffffff021916908373ffffffffffffffffffffffffffffffffffffffff160217905550600b80548061250957fe5b6001900381819060005260206000200160006101000a81549073ffffffffffffffffffffffffffffffffffffffff0219169055905560008090505b6001600a80549050038110156126a2573373ffffffffffffffffffffffffffffffffffffffff16600a828154811061257857fe5b9060005260206000200160009054906101000a900473ffffffffffffffffffffffffffffffffffffffff1673ffffffffffffffffffffffffffffffffffffffff16141561269557600a6001600a8054905003815481106125d457fe5b9060005260206000200160009054906101000a900473ffffffffffffffffffffffffffffffffffffffff16600a828154811061260c57fe5b9060005260206000200160006101000a81548173ffffffffffffffffffffffffffffffffffffffff021916908373ffffffffffffffffffffffffffffffffffffffff160217905550600a80548061265f57fe5b6001900381819060005260206000200160006101000a81549073ffffffffffffffffffffffffffffffffffffffff021916905590555b8080600101915050612544565b507f3bf1685b01f8b2cde2a6dcd3f86da4f69d9deec9fe9dfeab177b59c325b3a9a533604051808273ffffffffffffffffffffffffffffffffffffffff1673ffffffffffffffffffffffffffffffffffffffff16815260200191505060405180910390a15050565b6000809054906101000a900473ffffffffffffffffffffffffffffffffffffffff1673ffffffffffffffffffffffffffffffffffffffff163373ffffffffffffffffffffffffffffffffffffffff16146127cc576040517f08c379a00000000000000000000000000000000000000000000000000000000081526004018080602001828103825260158152602001807fe4b88de698afe59088e7baa6e68ba5e69c89e88085000000000000000000000081525060200191505060405180910390fd5b86600360006101000a81548160ff02191690831515021790555085600360016101000a81548167ffffffffffffffff021916908367ffffffffffffffff16021790555084600360096101000a81548167ffffffffffffffff021916908367ffffffffffffffff160217905550836004908051906020019061284e9291906136b0565b5082600581905550816006908051906020019061286c929190613730565b508060079080519060200190612883929190613730565b5050505050505050565b60008090505b600d80549050811015612954573373ffffffffffffffffffffffffffffffffffffffff16600d82815481106128c457fe5b9060005260206000200160000160009054906101000a900473ffffffffffffffffffffffffffffffffffffffff1673ffffffffffffffffffffffffffffffffffffffff161415612947576001600d828154811061291d57fe5b9060005260206000200160000160146101000a81548160ff021916908360ff160217905550612954565b8080600101915050612893565b50565b6000809054906101000a900473ffffffffffffffffffffffffffffffffffffffff1673ffffffffffffffffffffffffffffffffffffffff163373ffffffffffffffffffffffffffffffffffffffff1614612a19576040517f08c379a00000000000000000000000000000000000000000000000000000000081526004018080602001828103825260158152602001807fe4b88de698afe59088e7baa6e68ba5e69c89e88085000000000000000000000081525060200191505060405180910390fd5b8060019080519060200190612a2f9291906136b0565b5050565b60018054600181600116156101000203166002900480601f016020809104026020016040519081016040528092919081815260200182805460018160011615610100020316600290048015612ac95780601f10612a9e57610100808354040283529160200191612ac9565b820191906000526020600020905b815481529060010190602001808311612aac57829003601f168201915b505050505081565b60028054600181600116156101000203166002900480601f016020809104026020016040519081016040528092919081815260200182805460018160011615610100020316600290048015612b675780601f10612b3c57610100808354040283529160200191612b67565b820191906000526020600020905b815481529060010190602001808311612b4a57829003601f168201915b505050505081565b6000809054906101000a900473ffffffffffffffffffffffffffffffffffffffff1673ffffffffffffffffffffffffffffffffffffffff163373ffffffffffffffffffffffffffffffffffffffff1614612c31576040517f08c379a00000000000000000000000000000000000000000000000000000000081526004018080602001828103825260158152602001807fe4b88de698afe59088e7baa6e68ba5e69c89e88085000000000000000000000081525060200191505060405180910390fd5b60008090505b600b80549050811015612cc2578173ffffffffffffffffffffffffffffffffffffffff16600b8281548110612c6857fe5b9060005260206000200160009054906101000a900473ffffffffffffffffffffffffffffffffffffffff1673ffffffffffffffffffffffffffffffffffffffff161415612cb55750612d2a565b8080600101915050612c37565b50600b8190806001815401808255809150509060018203906000526020600020016000909192909190916101000a81548173ffffffffffffffffffffffffffffffffffffffff021916908373ffffffffffffffffffffffffffffffffffffffff160217905550505b50565b6000809050600080600090505b600b80549050811015612dcb573373ffffffffffffffffffffffffffffffffffffffff16600b8281548110612d6b57fe5b9060005260206000200160009054906101000a900473ffffffffffffffffffffffffffffffffffffffff1673ffffffffffffffffffffffffffffffffffffffff161415612dbe5760019250809150612dcb565b8080600101915050612d3a565b5081612e3f576040517f08c379a00000000000000000000000000000000000000000000000000000000081526004018080602001828103825260188152602001807fe6b2a1e69c89e794b3e8afb7e58aa0e585a5e7a4bee59ba2000000000000000081525060200191505060405180910390fd5b600b6001600b805490500381548110612e5457fe5b9060005260206000200160009054906101000a900473ffffffffffffffffffffffffffffffffffffffff16600b8281548110612e8c57fe5b9060005260206000200160006101000a81548173ffffffffffffffffffffffffffffffffffffffff021916908373ffffffffffffffffffffffffffffffffffffffff160217905550600b805480612edf57fe5b6001900381819060005260206000200160006101000a81549073ffffffffffffffffffffffffffffffffffffffff0219169055905560008090505b6001600a8054905003811015613078573373ffffffffffffffffffffffffffffffffffffffff16600a8281548110612f4e57fe5b9060005260206000200160009054906101000a900473ffffffffffffffffffffffffffffffffffffffff1673ffffffffffffffffffffffffffffffffffffffff16141561306b57600a6001600a805490500381548110612faa57fe5b9060005260206000200160009054906101000a900473ffffffffffffffffffffffffffffffffffffffff16600a8281548110612fe257fe5b9060005260206000200160006101000a81548173ffffffffffffffffffffffffffffffffffffffff021916908373ffffffffffffffffffffffffffffffffffffffff160217905550600a80548061303557fe5b6001900381819060005260206000200160006101000a81549073ffffffffffffffffffffffffffffffffffffffff021916905590555b8080600101915050612f1a565b507f4d4a48abc6bdc72ba6476bc3b5a6a53dff8324847faf1473c82a043cd088fc2b30604051808273ffffffffffffffffffffffffffffffffffffffff1673ffffffffffffffffffffffffffffffffffffffff16815260200191505060405180910390a15050565b6000809054906101000a900473ffffffffffffffffffffffffffffffffffffffff1673ffffffffffffffffffffffffffffffffffffffff163373ffffffffffffffffffffffffffffffffffffffff16146131a2576040517f08c379a00000000000000000000000000000000000000000000000000000000081526004018080602001828103825260158152602001807fe4b88de698afe59088e7baa6e68ba5e69c89e88085000000000000000000000081525060200191505060405180910390fd5b600a8190806001815401808255809150509060018203906000526020600020016000909192909190916101000a81548173ffffffffffffffffffffffffffffffffffffffff021916908373ffffffffffffffffffffffffffffffffffffffff1602179055505050565b6000809054906101000a900473ffffffffffffffffffffffffffffffffffffffff1673ffffffffffffffffffffffffffffffffffffffff163373ffffffffffffffffffffffffffffffffffffffff16146132cd576040517f08c379a00000000000000000000000000000000000000000000000000000000081526004018080602001828103825260158152602001807fe4b88de698afe59088e7baa6e68ba5e69c89e88085000000000000000000000081525060200191505060405180910390fd5b600081905060008173ffffffffffffffffffffffffffffffffffffffff1663c19d93fb6040518163ffffffff1660e01b815260040160206040518083038186803b15801561331a57600080fd5b505afa15801561332e573d6000803e3d6000fd5b505050506040513d602081101561334457600080fd5b8101908080519060200190929190505050905060028160ff16148061336c575060038160ff16145b156133e65760006133e5576040517f08c379a00000000000000000000000000000000000000000000000000000000081526004018080602001828103825260198152602001807fe6b4bbe58aa8e5b7b2e7bb93e69d9f2fe5b7b2e58f96e6b6880000000000000081525060200191505060405180910390fd5b5b600d60405180606001604052808573ffffffffffffffffffffffffffffffffffffffff168152602001600060ff1681526020018360ff1681525090806001815401808255809150509060018203906000526020600020016000909192909190915060008201518160000160006101000a81548173ffffffffffffffffffffffffffffffffffffffff021916908373ffffffffffffffffffffffffffffffffffffffff16021790555060208201518160000160146101000a81548160ff021916908360ff16021790555060408201518160000160156101000a81548160ff021916908360ff1602179055505050508173ffffffffffffffffffffffffffffffffffffffff166328ffe6c86000809054906101000a900473ffffffffffffffffffffffffffffffffffffffff166040518263ffffffff1660e01b8152600401808273ffffffffffffffffffffffffffffffffffffffff1673ffffffffffffffffffffffffffffffffffffffff168152602001915050600060405180830381600087803b15801561357357600080fd5b505af1158015613587573d6000803e3d6000fd5b50505050505050565b600080600090505b600a80549050811015613627573373ffffffffffffffffffffffffffffffffffffffff16600a82815481106135c957fe5b9060005260206000200160009054906101000a900473ffffffffffffffffffffffffffffffffffffffff1673ffffffffffffffffffffffffffffffffffffffff16141561361a57600191505061362d565b8080600101915050613598565b50600090505b90565b828054600181600116156101000203166002900490600052602060002090601f016020900481019282601f1061367157805160ff191683800117855561369f565b8280016001018555821561369f579182015b8281111561369e578251825591602001919060010190613683565b5b5090506136ac919061377d565b5090565b828054600181600116156101000203166002900490600052602060002090601f016020900481019282601f106136f157805160ff191683800117855561371f565b8280016001018555821561371f579182015b8281111561371e578251825591602001919060010190613703565b5b50905061372c919061377d565b5090565b82805482825590600052602060002090810192821561376c579160200282015b8281111561376b578251825591602001919060010190613750565b5b50905061377991906137a2565b5090565b61379f91905b8082111561379b576000816000905550600101613783565b5090565b90565b6137c491905b808211156137c05760008160009055506001016137a8565b5090565b9056fee4b88de698afe5b7b2e58aa0e585a5e79a84e7a4bee59ba2e68896e59088e7baa6e68ba5e69c89e88085a265627a7a72315820bbb1d8cf17e1c75fcb94f184ee17f8560ccb4ef778096d7df4bad450043aa5ae64736f6c63430005100032e697a0e69d83e4bfaee694b96d616e6167657243656e746572e79a84e59cb0e59d80a265627a7a72315820b657b8b7ea9f77ae6405191c69fa03f5f4ae092f2ac887a0a9df4508d34c038664736f6c63430005100032",
  "source": "pragma solidity ^0.5.0;\n\nimport \"../roles/User.sol\";\n\n\ncontract UserManager {\n    address managerCenter;\n\n    address[] usersList; //\n    mapping(address => address) public users; //\n\n    //\n    address masterManager; //MasterManagerusersList\n\n    ////////////////////////////////////\n\n    /**\n    @dev \n    @param name hex\n    */\n    function newUser(bytes10 name) public {\n        users[msg.sender] = address(new User(name, msg.sender));\n        usersList.push(msg.sender);\n    }\n\n    /**\n    @dev \n    */\n    function delUser() public {\n        address blank;\n        users[msg.sender] = blank;\n        for (uint256 i = 0; i < usersList.length; i++) {\n            if (usersList[i] == msg.sender) {\n                usersList[i] = usersList[usersList.length - 1];\n                usersList.pop();\n                break;\n            }\n        }\n    }\n\n    /**\n    @dev \n    */\n    function isUser(address addr) public view returns (bool) {\n        for (uint256 i = 0; i < usersList.length; i++) {\n            if (usersList[i] == addr) {\n                return true;\n            }\n        }\n        return false;\n    }\n\n    ////////////////manager////////////////\n    function setManagerCenter(address center) public {\n        address blank;\n        if (managerCenter == blank) {\n            managerCenter = center;\n        } else {\n            require(msg.sender == managerCenter, \"managerCenter\");\n            managerCenter = center;\n        }\n    }\n}\n",
  "sourcePath": "/home/xuhao/CMS/contracts/managers/UserManager.sol",
  "compiler": {
    "name": "solc",
    "version": "0.5.16+commit.9c3226ce.Emscripten.clang"
  },
  "schemaVersion": "3.0.23",
  "updatedAt": "2020-04-07T08:55:18.847Z",
  "devdoc": {
    "methods": {
      "delUser()": {
        "details": ""
      },
      "isUser(address)": {
        "details": ""
      },
      "newUser(bytes10)": {
        "details": "",
        "params": {
          "name": "hex"
        }
      }
    }
  },
  "userdoc": {
    "methods": {
      "setManagerCenter(address)": {
        "notice": "/////////////manager////////////////"
      }
    }
  }
}