{
  "contractName": "User",
  "abi": [
    {
      "inputs": [
        {
          "internalType": "bytes10",
          "name": "_name",
          "type": "bytes10"
        },
        {
          "internalType": "address",
          "name": "_owner",
          "type": "address"
        }
      ],
      "payable": false,
      "stateMutability": "nonpayable",
      "type": "constructor"
    },
    {
      "constant": true,
      "inputs": [],
      "name": "imgUrl",
      "outputs": [
        {
          "internalType": "string",
          "name": "",
          "type": "string"
        }
      ],
      "payable": false,
      "stateMutability": "view",
      "type": "function"
    },
    {
      "constant": true,
      "inputs": [],
      "name": "message",
      "outputs": [
        {
          "internalType": "string",
          "name": "",
          "type": "string"
        }
      ],
      "payable": false,
      "stateMutability": "view",
      "type": "function"
    },
    {
      "constant": true,
      "inputs": [],
      "name": "name",
      "outputs": [
        {
          "internalType": "bytes10",
          "name": "",
          "type": "bytes10"
        }
      ],
      "payable": false,
      "stateMutability": "view",
      "type": "function"
    },
    {
      "constant": true,
      "inputs": [],
      "name": "tempAuth",
      "outputs": [
        {
          "internalType": "address",
          "name": "",
          "type": "address"
        }
      ],
      "payable": false,
      "stateMutability": "view",
      "type": "function"
    },
    {
      "constant": false,
      "inputs": [
        {
          "internalType": "string",
          "name": "_imgUrl",
          "type": "string"
        }
      ],
      "name": "setImgUrl",
      "outputs": [],
      "payable": false,
      "stateMutability": "nonpayable",
      "type": "function"
    },
    {
      "constant": false,
      "inputs": [
        {
          "internalType": "string",
          "name": "_message",
          "type": "string"
        }
      ],
      "name": "setMessage",
      "outputs": [],
      "payable": false,
      "stateMutability": "nonpayable",
      "type": "function"
    },
    {
      "constant": false,
      "inputs": [
        {
          "internalType": "bool",
          "name": "_gender",
          "type": "bool"
        },
        {
          "internalType": "uint64",
          "name": "_phone",
          "type": "uint64"
        },
        {
          "internalType": "uint64",
          "name": "_qq",
          "type": "uint64"
        },
        {
          "internalType": "string",
          "name": "_email",
          "type": "string"
        },
        {
          "internalType": "bytes32",
          "name": "_location",
          "type": "bytes32"
        },
        {
          "internalType": "bytes32[]",
          "name": "_language",
          "type": "bytes32[]"
        },
        {
          "internalType": "bytes32[]",
          "name": "_hobby",
          "type": "bytes32[]"
        }
      ],
      "name": "setUserInfo",
      "outputs": [],
      "payable": false,
      "stateMutability": "nonpayable",
      "type": "function"
    },
    {
      "constant": true,
      "inputs": [],
      "name": "getUserInfo",
      "outputs": [
        {
          "internalType": "bool",
          "name": "_gender",
          "type": "bool"
        },
        {
          "internalType": "uint64",
          "name": "_phone",
          "type": "uint64"
        },
        {
          "internalType": "uint64",
          "name": "_qq",
          "type": "uint64"
        },
        {
          "internalType": "string",
          "name": "_email",
          "type": "string"
        },
        {
          "internalType": "bytes32",
          "name": "_location",
          "type": "bytes32"
        },
        {
          "internalType": "bytes32[]",
          "name": "_language",
          "type": "bytes32[]"
        },
        {
          "internalType": "bytes32[]",
          "name": "_hobby",
          "type": "bytes32[]"
        }
      ],
      "payable": false,
      "stateMutability": "view",
      "type": "function"
    },
    {
      "constant": false,
      "inputs": [
        {
          "internalType": "string",
          "name": "mtype",
          "type": "string"
        },
        {
          "internalType": "address",
          "name": "_from",
          "type": "address"
        },
        {
          "internalType": "string",
          "name": "_time",
          "type": "string"
        },
        {
          "internalType": "string",
          "name": "_message",
          "type": "string"
        }
      ],
      "name": "newNotice",
      "outputs": [],
      "payable": false,
      "stateMutability": "nonpayable",
      "type": "function"
    },
    {
      "constant": false,
      "inputs": [
        {
          "internalType": "address",
          "name": "addr",
          "type": "address"
        }
      ],
      "name": "setTempAuth",
      "outputs": [],
      "payable": false,
      "stateMutability": "nonpayable",
      "type": "function"
    }
  ],
  "bytecode": "0x608060405234801561001057600080fd5b506040516115f23803806115f28339818101604052604081101561003357600080fd5b810190808051906020019092919080519060200190929190505050816000806101000a81548169ffffffffffffffffffff021916908360b01c021790555080600860006101000a81548173ffffffffffffffffffffffffffffffffffffffff021916908373ffffffffffffffffffffffffffffffffffffffff160217905550505061152f806100c36000396000f3fe608060405234801561001057600080fd5b506004361061009e5760003560e01c8063950e89d611610066578063950e89d61461055c578063d13830661461077d578063d68387c714610838578063e21f37ce146108bb578063fc0b4aed1461093e5761009e565b806306fdde03146100a3578063368b8772146100f35780635d8d1585146101ae578063823e6fbc146103095780638e8df1ed14610512575b600080fd5b6100ab610982565b604051808275ffffffffffffffffffffffffffffffffffffffffffff191675ffffffffffffffffffffffffffffffffffffffffffff1916815260200191505060405180910390f35b6101ac6004803603602081101561010957600080fd5b810190808035906020019064010000000081111561012657600080fd5b82018360208201111561013857600080fd5b8035906020019184600183028401116401000000008311171561015a57600080fd5b91908080601f016020809104026020016040519081016040528093929190818152602001838380828437600081840152601f19601f820116905080830192505050505050509192919290505050610994565b005b6101b6610a71565b60405180881515151581526020018767ffffffffffffffff1667ffffffffffffffff1681526020018667ffffffffffffffff1667ffffffffffffffff168152602001806020018581526020018060200180602001848103845288818151815260200191508051906020019080838360005b83811015610242578082015181840152602081019050610227565b50505050905090810190601f16801561026f5780820380516001836020036101000a031916815260200191505b50848103835286818151815260200191508051906020019060200280838360005b838110156102ab578082015181840152602081019050610290565b50505050905001848103825285818151815260200191508051906020019060200280838360005b838110156102ed5780820151818401526020810190506102d2565b505050509050019a505050505050505050505060405180910390f35b6105106004803603608081101561031f57600080fd5b810190808035906020019064010000000081111561033c57600080fd5b82018360208201111561034e57600080fd5b8035906020019184600183028401116401000000008311171561037057600080fd5b91908080601f016020809104026020016040519081016040528093929190818152602001838380828437600081840152601f19601f820116905080830192505050505050509192919290803573ffffffffffffffffffffffffffffffffffffffff169060200190929190803590602001906401000000008111156103f357600080fd5b82018360208201111561040557600080fd5b8035906020019184600183028401116401000000008311171561042757600080fd5b91908080601f016020809104026020016040519081016040528093929190818152602001838380828437600081840152601f19601f8201169050808301925050505050505091929192908035906020019064010000000081111561048a57600080fd5b82018360208201111561049c57600080fd5b803590602001918460018302840111640100000000831117156104be57600080fd5b91908080601f016020809104026020016040519081016040528093929190818152602001838380828437600081840152601f19601f820116905080830192505050505050509192919290505050610d64565b005b61051a610e6f565b604051808273ffffffffffffffffffffffffffffffffffffffff1673ffffffffffffffffffffffffffffffffffffffff16815260200191505060405180910390f35b61077b600480360360e081101561057257600080fd5b81019080803515159060200190929190803567ffffffffffffffff169060200190929190803567ffffffffffffffff169060200190929190803590602001906401000000008111156105c357600080fd5b8201836020820111156105d557600080fd5b803590602001918460018302840111640100000000831117156105f757600080fd5b91908080601f016020809104026020016040519081016040528093929190818152602001838380828437600081840152601f19601f820116905080830192505050505050509192919290803590602001909291908035906020019064010000000081111561066457600080fd5b82018360208201111561067657600080fd5b8035906020019184602083028401116401000000008311171561069857600080fd5b919080806020026020016040519081016040528093929190818152602001838360200280828437600081840152601f19601f820116905080830192505050505050509192919290803590602001906401000000008111156106f857600080fd5b82018360208201111561070a57600080fd5b8035906020019184602083028401116401000000008311171561072c57600080fd5b919080806020026020016040519081016040528093929190818152602001838360200280828437600081840152601f19601f820116905080830192505050505050509192919290505050610e95565b005b6108366004803603602081101561079357600080fd5b81019080803590602001906401000000008111156107b057600080fd5b8201836020820111156107c257600080fd5b803590602001918460018302840111640100000000831117156107e457600080fd5b91908080601f016020809104026020016040519081016040528093929190818152602001838380828437600081840152601f19601f820116905080830192505050505050509192919290505050611019565b005b6108406110f6565b6040518080602001828103825283818151815260200191508051906020019080838360005b83811015610880578082015181840152602081019050610865565b50505050905090810190601f1680156108ad5780820380516001836020036101000a031916815260200191505b509250505060405180910390f35b6108c3611194565b6040518080602001828103825283818151815260200191508051906020019080838360005b838110156109035780820151818401526020810190506108e8565b50505050905090810190601f1680156109305780820380516001836020036101000a031916815260200191505b509250505060405180910390f35b6109806004803603602081101561095457600080fd5b81019080803573ffffffffffffffffffffffffffffffffffffffff169060200190929190505050611232565b005b6000809054906101000a900460b01b81565b600860009054906101000a900473ffffffffffffffffffffffffffffffffffffffff1673ffffffffffffffffffffffffffffffffffffffff163373ffffffffffffffffffffffffffffffffffffffff1614610a57576040517f08c379a00000000000000000000000000000000000000000000000000000000081526004018080602001828103825260158152602001807fe4b88de698afe59088e7baa6e68ba5e69c89e88085000000000000000000000081525060200191505060405180910390fd5b8060029080519060200190610a6d929190611339565b5050565b600080600060606000606080600080905060008090505b600980549050811015610b16573373ffffffffffffffffffffffffffffffffffffffff1660098281548110610ab957fe5b9060005260206000200160009054906101000a900473ffffffffffffffffffffffffffffffffffffffff1673ffffffffffffffffffffffffffffffffffffffff161415610b095760019150610b16565b8080600101915050610a88565b508080610b705750600860009054906101000a900473ffffffffffffffffffffffffffffffffffffffff1673ffffffffffffffffffffffffffffffffffffffff163373ffffffffffffffffffffffffffffffffffffffff16145b610bc5576040517f08c379a000000000000000000000000000000000000000000000000000000000815260040180806020018281038252602a8152602001806114d1602a913960400191505060405180910390fd5b600360009054906101000a900460ff16600360019054906101000a900467ffffffffffffffff16600360099054906101000a900467ffffffffffffffff16600460055460066007838054600181600116156101000203166002900480601f016020809104026020016040519081016040528092919081815260200182805460018160011615610100020316600290048015610ca15780601f10610c7657610100808354040283529160200191610ca1565b820191906000526020600020905b815481529060010190602001808311610c8457829003601f168201915b5050505050935081805480602002602001604051908101604052809291908181526020018280548015610cf357602002820191906000526020600020905b815481526020019060010190808311610cdf575b5050505050915080805480602002602001604051908101604052809291908181526020018280548015610d4557602002820191906000526020600020905b815481526020019060010190808311610d31575b5050505050905097509750975097509750975097505090919293949596565b600b60405180608001604052808681526020018573ffffffffffffffffffffffffffffffffffffffff16815260200184815260200183815250908060018154018082558091505090600182039060005260206000209060040201600090919290919091506000820151816000019080519060200190610de49291906113b9565b5060208201518160010160006101000a81548173ffffffffffffffffffffffffffffffffffffffff021916908373ffffffffffffffffffffffffffffffffffffffff1602179055506040820151816002019080519060200190610e489291906113b9565b506060820151816003019080519060200190610e659291906113b9565b5050505050505050565b600a60009054906101000a900473ffffffffffffffffffffffffffffffffffffffff1681565b600860009054906101000a900473ffffffffffffffffffffffffffffffffffffffff1673ffffffffffffffffffffffffffffffffffffffff163373ffffffffffffffffffffffffffffffffffffffff1614610f58576040517f08c379a00000000000000000000000000000000000000000000000000000000081526004018080602001828103825260158152602001807fe4b88de698afe59088e7baa6e68ba5e69c89e88085000000000000000000000081525060200191505060405180910390fd5b86600360006101000a81548160ff02191690831515021790555085600360016101000a81548167ffffffffffffffff021916908367ffffffffffffffff16021790555084600360096101000a81548167ffffffffffffffff021916908367ffffffffffffffff1602179055508360049080519060200190610fda929190611339565b50826005819055508160069080519060200190610ff8929190611439565b50806007908051906020019061100f929190611439565b5050505050505050565b600860009054906101000a900473ffffffffffffffffffffffffffffffffffffffff1673ffffffffffffffffffffffffffffffffffffffff163373ffffffffffffffffffffffffffffffffffffffff16146110dc576040517f08c379a00000000000000000000000000000000000000000000000000000000081526004018080602001828103825260158152602001807fe4b88de698afe59088e7baa6e68ba5e69c89e88085000000000000000000000081525060200191505060405180910390fd5b80600190805190602001906110f2929190611339565b5050565b60018054600181600116156101000203166002900480601f01602080910402602001604051908101604052809291908181526020018280546001816001161561010002031660029004801561118c5780601f106111615761010080835404028352916020019161118c565b820191906000526020600020905b81548152906001019060200180831161116f57829003601f168201915b505050505081565b60028054600181600116156101000203166002900480601f01602080910402602001604051908101604052809291908181526020018280546001816001161561010002031660029004801561122a5780601f106111ff5761010080835404028352916020019161122a565b820191906000526020600020905b81548152906001019060200180831161120d57829003601f168201915b505050505081565b600860009054906101000a900473ffffffffffffffffffffffffffffffffffffffff1673ffffffffffffffffffffffffffffffffffffffff163373ffffffffffffffffffffffffffffffffffffffff16146112f5576040517f08c379a00000000000000000000000000000000000000000000000000000000081526004018080602001828103825260158152602001807fe4b88de698afe59088e7baa6e68ba5e69c89e88085000000000000000000000081525060200191505060405180910390fd5b80600a60006101000a81548173ffffffffffffffffffffffffffffffffffffffff021916908373ffffffffffffffffffffffffffffffffffffffff16021790555050565b828054600181600116156101000203166002900490600052602060002090601f016020900481019282601f1061137a57805160ff19168380011785556113a8565b828001600101855582156113a8579182015b828111156113a757825182559160200191906001019061138c565b5b5090506113b59190611486565b5090565b828054600181600116156101000203166002900490600052602060002090601f016020900481019282601f106113fa57805160ff1916838001178555611428565b82800160010185558215611428579182015b8281111561142757825182559160200191906001019061140c565b5b5090506114359190611486565b5090565b828054828255906000526020600020908101928215611475579160200282015b82811115611474578251825591602001919060010190611459565b5b50905061148291906114ab565b5090565b6114a891905b808211156114a457600081600090555060010161148c565b5090565b90565b6114cd91905b808211156114c95760008160009055506001016114b1565b5090565b9056fee4b88de698afe5b7b2e58aa0e585a5e79a84e7a4bee59ba2e68896e59088e7baa6e68ba5e69c89e88085a265627a7a72315820f4341f37e82506fc247c6f72a3fc0218f273bd2200765940e75dfad972a8be0464736f6c63430005100032",
  "source": "pragma solidity ^0.5.0;\n\ncontract User {\n    /////用户个人信息//////\n    //基本信息\n    bytes10 public name; //真实姓名，通过bytes10限制长度\n    string public imgUrl; //头像url\n    string public message; //个人留言\n    //附加信息\n    bool gender; //0 女 1 男\n    uint64 phone; //电话号码，避免维护困难，使用整数位存储\n    uint64 qq; //QQ\n    string email; //邮件地址\n    bytes32 location; //使用明文保存地址信息，避免地区代码带来的转换问题\n    bytes32[] language; //使用的语言\n    bytes32[] hobby; //个人爱好\n    ////////权限验证/////////\n\n    //个人地址\n    address owner;\n\n    //加入的社团\n    address[] myClubs;\n    //临时授权允许写myClubs列表\n    address public tempAuth;  //设置为public，这样在申请创建社团后就可以检查是否授予了临时权限\n\n    //通知\n    notification[] notices; //通知列表\n    struct notification {\n        string _type; //比如社团通知，学校通知，用户私信等\n        address from;\n        string time; //由于内置时间格式支持缺失，使用string存储\n        string message;\n    }\n\n    modifier onlyOwner {\n        require(msg.sender == owner, \"不是合约拥有者\");\n        _;\n    }\n\n    modifier onlyMyClubs {\n        bool flag = false;\n        for (uint256 i = 0; i < myClubs.length; i++) {\n            if (myClubs[i] == msg.sender) {\n                flag = true;\n                break;\n            }\n        }\n        require(flag, \"不是已加入的社团\");\n        _;\n    }\n\n    modifier clubsOrSelf {\n        bool flag = false;\n        for (uint256 i = 0; i < myClubs.length; i++) {\n            if (myClubs[i] == msg.sender) {\n                flag = true;\n                break;\n            }\n        }\n        require(flag || msg.sender == owner, \"不是已加入的社团或合约拥有者\");\n        _;\n    }\n\n    ////////方法/////////////\n\n    /**\n    构造函数，只传入姓名，其余信息单独设置\n    */\n    constructor(bytes10 _name, address _owner) public {\n        name = _name;\n        owner = _owner;\n    }\n\n    function setImgUrl(string memory _imgUrl) public onlyOwner {\n        imgUrl = _imgUrl;\n    }\n\n    function setMessage(string memory _message) public onlyOwner {\n        message = _message;\n    }\n\n    function setUserInfo(\n        bool _gender,\n        uint64 _phone,\n        uint64 _qq,\n        string memory _email,\n        bytes32 _location,\n        bytes32[] memory _language,\n        bytes32[] memory _hobby\n    ) public onlyOwner {\n        gender = _gender;\n        phone = _phone;\n        qq = _qq;\n        email = _email;\n        location = _location;\n        language = _language;\n        hobby = _hobby;\n    }\n\n    /**\n    需要通过授权的社团通过合约调用，\n    调用对应的interface方法，不要直接调用本方法（权限检定不会通过）\n    */\n    function getUserInfo()\n        public\n        view\n        clubsOrSelf\n        returns (\n            bool _gender,\n            uint64 _phone,\n            uint64 _qq,\n            string memory _email,\n            bytes32 _location,\n            bytes32[] memory _language,\n            bytes32[] memory _hobby\n        )\n    {\n        return (gender, phone, qq, email, location, language, hobby);\n    }\n\n    function newNotice(\n        string memory mtype,\n        address _from,\n        string memory _time,\n        string memory _message\n    ) public {\n        notices.push(\n            notification({\n                _type: mtype,\n                from: _from,\n                time: _time,\n                message: _message\n            })\n        );\n    }\n\n    //授予临时权限，用于创建社团后ClubManager将社团信息写入myClubs\n    function setTempAuth(address addr) public onlyOwner {\n        tempAuth = addr;\n    }\n\n}\n",
  "sourcePath": "/Users/xuhao/dapps/CMS/contracts/roles/User.sol",
  "compiler": {
    "name": "solc",
    "version": "0.5.16+commit.9c3226ce.Emscripten.clang"
  },
  "schemaVersion": "3.0.23",
  "updatedAt": "2020-03-25T08:16:40.617Z",
  "devdoc": {
    "methods": {}
  },
  "userdoc": {
    "methods": {
      "constructor": "构造函数，只传入姓名，其余信息单独设置",
      "getUserInfo()": {
        "notice": "需要通过授权的社团通过合约调用， 调用对应的interface方法，不要直接调用本方法（权限检定不会通过）"
      }
    }
  }
}