{
  "contractName": "User",
  "abi": [
    {
      "inputs": [
        {
          "internalType": "bytes10",
          "name": "_name",
          "type": "bytes10"
        },
        {
          "internalType": "address",
          "name": "_owner",
          "type": "address"
        }
      ],
      "payable": false,
      "stateMutability": "nonpayable",
      "type": "constructor"
    },
    {
      "anonymous": false,
      "inputs": [
        {
          "indexed": false,
          "internalType": "address",
          "name": "club",
          "type": "address"
        }
      ],
      "name": "applyPassEvent",
      "type": "event"
    },
    {
      "anonymous": false,
      "inputs": [
        {
          "indexed": false,
          "internalType": "string",
          "name": "mtype",
          "type": "string"
        },
        {
          "indexed": false,
          "internalType": "address",
          "name": "_from",
          "type": "address"
        },
        {
          "indexed": false,
          "internalType": "string",
          "name": "time",
          "type": "string"
        },
        {
          "indexed": false,
          "internalType": "string",
          "name": "message",
          "type": "string"
        }
      ],
      "name": "newNotification",
      "type": "event"
    },
    {
      "constant": true,
      "inputs": [],
      "name": "imgUrl",
      "outputs": [
        {
          "internalType": "string",
          "name": "",
          "type": "string"
        }
      ],
      "payable": false,
      "stateMutability": "view",
      "type": "function"
    },
    {
      "constant": true,
      "inputs": [],
      "name": "message",
      "outputs": [
        {
          "internalType": "string",
          "name": "",
          "type": "string"
        }
      ],
      "payable": false,
      "stateMutability": "view",
      "type": "function"
    },
    {
      "constant": true,
      "inputs": [],
      "name": "name",
      "outputs": [
        {
          "internalType": "bytes10",
          "name": "",
          "type": "bytes10"
        }
      ],
      "payable": false,
      "stateMutability": "view",
      "type": "function"
    },
    {
      "constant": true,
      "inputs": [],
      "name": "tempAuth",
      "outputs": [
        {
          "internalType": "address",
          "name": "",
          "type": "address"
        }
      ],
      "payable": false,
      "stateMutability": "view",
      "type": "function"
    },
    {
      "constant": false,
      "inputs": [
        {
          "internalType": "string",
          "name": "_imgUrl",
          "type": "string"
        }
      ],
      "name": "setImgUrl",
      "outputs": [],
      "payable": false,
      "stateMutability": "nonpayable",
      "type": "function"
    },
    {
      "constant": false,
      "inputs": [
        {
          "internalType": "string",
          "name": "_message",
          "type": "string"
        }
      ],
      "name": "setMessage",
      "outputs": [],
      "payable": false,
      "stateMutability": "nonpayable",
      "type": "function"
    },
    {
      "constant": false,
      "inputs": [
        {
          "internalType": "bool",
          "name": "_gender",
          "type": "bool"
        },
        {
          "internalType": "uint64",
          "name": "_phone",
          "type": "uint64"
        },
        {
          "internalType": "uint64",
          "name": "_qq",
          "type": "uint64"
        },
        {
          "internalType": "string",
          "name": "_email",
          "type": "string"
        },
        {
          "internalType": "bytes32",
          "name": "_location",
          "type": "bytes32"
        },
        {
          "internalType": "bytes32[]",
          "name": "_language",
          "type": "bytes32[]"
        },
        {
          "internalType": "bytes32[]",
          "name": "_hobby",
          "type": "bytes32[]"
        }
      ],
      "name": "setUserInfo",
      "outputs": [],
      "payable": false,
      "stateMutability": "nonpayable",
      "type": "function"
    },
    {
      "constant": true,
      "inputs": [],
      "name": "getUserInfo",
      "outputs": [
        {
          "internalType": "bool",
          "name": "_gender",
          "type": "bool"
        },
        {
          "internalType": "uint64",
          "name": "_phone",
          "type": "uint64"
        },
        {
          "internalType": "uint64",
          "name": "_qq",
          "type": "uint64"
        },
        {
          "internalType": "string",
          "name": "_email",
          "type": "string"
        },
        {
          "internalType": "bytes32",
          "name": "_location",
          "type": "bytes32"
        },
        {
          "internalType": "bytes32[]",
          "name": "_language",
          "type": "bytes32[]"
        },
        {
          "internalType": "bytes32[]",
          "name": "_hobby",
          "type": "bytes32[]"
        }
      ],
      "payable": false,
      "stateMutability": "view",
      "type": "function"
    },
    {
      "constant": false,
      "inputs": [
        {
          "internalType": "string",
          "name": "mtype",
          "type": "string"
        },
        {
          "internalType": "address",
          "name": "_from",
          "type": "address"
        },
        {
          "internalType": "string",
          "name": "_time",
          "type": "string"
        },
        {
          "internalType": "string",
          "name": "_message",
          "type": "string"
        }
      ],
      "name": "newNotice",
      "outputs": [],
      "payable": false,
      "stateMutability": "nonpayable",
      "type": "function"
    },
    {
      "constant": false,
      "inputs": [
        {
          "internalType": "address",
          "name": "addr",
          "type": "address"
        }
      ],
      "name": "setTempAuth",
      "outputs": [],
      "payable": false,
      "stateMutability": "nonpayable",
      "type": "function"
    },
    {
      "constant": false,
      "inputs": [
        {
          "internalType": "address",
          "name": "club",
          "type": "address"
        }
      ],
      "name": "addClub",
      "outputs": [],
      "payable": false,
      "stateMutability": "nonpayable",
      "type": "function"
    },
    {
      "constant": false,
      "inputs": [
        {
          "internalType": "address",
          "name": "club",
          "type": "address"
        }
      ],
      "name": "addApplyClub",
      "outputs": [],
      "payable": false,
      "stateMutability": "nonpayable",
      "type": "function"
    },
    {
      "constant": false,
      "inputs": [],
      "name": "applyPass",
      "outputs": [],
      "payable": false,
      "stateMutability": "nonpayable",
      "type": "function"
    },
    {
      "constant": false,
      "inputs": [],
      "name": "applyRefus",
      "outputs": [],
      "payable": false,
      "stateMutability": "nonpayable",
      "type": "function"
    }
  ],
  "bytecode": "0x608060405234801561001057600080fd5b5060405161227d38038061227d8339818101604052604081101561003357600080fd5b810190808051906020019092919080519060200190929190505050816000806101000a81548169ffffffffffffffffffff021916908360b01c021790555080600860006101000a81548173ffffffffffffffffffffffffffffffffffffffff021916908373ffffffffffffffffffffffffffffffffffffffff16021790555050506121ba806100c36000396000f3fe608060405234801561001057600080fd5b50600436106100ea5760003560e01c8063950e89d61161008c578063e21f37ce11610066578063e21f37ce14610955578063e71752d5146109d8578063fb9a07cc14610a1c578063fc0b4aed14610a26576100ea565b8063950e89d6146105f6578063d138306614610817578063d68387c7146108d2576100ea565b80635d8d1585116100c85780635d8d15851461023e578063823e6fbc146103995780638e8df1ed146105a25780638f4bd326146105ec576100ea565b806306fdde03146100ef578063368b87721461013f5780633a98a722146101fa575b600080fd5b6100f7610a6a565b604051808275ffffffffffffffffffffffffffffffffffffffffffff191675ffffffffffffffffffffffffffffffffffffffffffff1916815260200191505060405180910390f35b6101f86004803603602081101561015557600080fd5b810190808035906020019064010000000081111561017257600080fd5b82018360208201111561018457600080fd5b803590602001918460018302840111640100000000831117156101a657600080fd5b91908080601f016020809104026020016040519081016040528093929190818152602001838380828437600081840152601f19601f820116905080830192505050505050509192919290505050610a7c565b005b61023c6004803603602081101561021057600080fd5b81019080803573ffffffffffffffffffffffffffffffffffffffff169060200190929190505050610b59565b005b610246610d70565b60405180881515151581526020018767ffffffffffffffff1667ffffffffffffffff1681526020018667ffffffffffffffff1667ffffffffffffffff168152602001806020018581526020018060200180602001848103845288818151815260200191508051906020019080838360005b838110156102d25780820151818401526020810190506102b7565b50505050905090810190601f1680156102ff5780820380516001836020036101000a031916815260200191505b50848103835286818151815260200191508051906020019060200280838360005b8381101561033b578082015181840152602081019050610320565b50505050905001848103825285818151815260200191508051906020019060200280838360005b8381101561037d578082015181840152602081019050610362565b505050509050019a505050505050505050505060405180910390f35b6105a0600480360360808110156103af57600080fd5b81019080803590602001906401000000008111156103cc57600080fd5b8201836020820111156103de57600080fd5b8035906020019184600183028401116401000000008311171561040057600080fd5b91908080601f016020809104026020016040519081016040528093929190818152602001838380828437600081840152601f19601f820116905080830192505050505050509192919290803573ffffffffffffffffffffffffffffffffffffffff1690602001909291908035906020019064010000000081111561048357600080fd5b82018360208201111561049557600080fd5b803590602001918460018302840111640100000000831117156104b757600080fd5b91908080601f016020809104026020016040519081016040528093929190818152602001838380828437600081840152601f19601f8201169050808301925050505050505091929192908035906020019064010000000081111561051a57600080fd5b82018360208201111561052c57600080fd5b8035906020019184600183028401116401000000008311171561054e57600080fd5b91908080601f016020809104026020016040519081016040528093929190818152602001838380828437600081840152601f19601f8201169050808301925050505050505091929192905050506110fe565b005b6105aa6113b3565b604051808273ffffffffffffffffffffffffffffffffffffffff1673ffffffffffffffffffffffffffffffffffffffff16815260200191505060405180910390f35b6105f46113d9565b005b610815600480360360e081101561060c57600080fd5b81019080803515159060200190929190803567ffffffffffffffff169060200190929190803567ffffffffffffffff1690602001909291908035906020019064010000000081111561065d57600080fd5b82018360208201111561066f57600080fd5b8035906020019184600183028401116401000000008311171561069157600080fd5b91908080601f016020809104026020016040519081016040528093929190818152602001838380828437600081840152601f19601f82011690508083019250505050505050919291929080359060200190929190803590602001906401000000008111156106fe57600080fd5b82018360208201111561071057600080fd5b8035906020019184602083028401116401000000008311171561073257600080fd5b919080806020026020016040519081016040528093929190818152602001838360200280828437600081840152601f19601f8201169050808301925050505050505091929192908035906020019064010000000081111561079257600080fd5b8201836020820111156107a457600080fd5b803590602001918460208302840111640100000000831117156107c657600080fd5b919080806020026020016040519081016040528093929190818152602001838360200280828437600081840152601f19601f82011690508083019250505050505050919291929050505061168d565b005b6108d06004803603602081101561082d57600080fd5b810190808035906020019064010000000081111561084a57600080fd5b82018360208201111561085c57600080fd5b8035906020019184600183028401116401000000008311171561087e57600080fd5b91908080601f016020809104026020016040519081016040528093929190818152602001838380828437600081840152601f19601f820116905080830192505050505050509192919290505050611811565b005b6108da6118ee565b6040518080602001828103825283818151815260200191508051906020019080838360005b8381101561091a5780820151818401526020810190506108ff565b50505050905090810190601f1680156109475780820380516001836020036101000a031916815260200191505b509250505060405180910390f35b61095d61198c565b6040518080602001828103825283818151815260200191508051906020019080838360005b8381101561099d578082015181840152602081019050610982565b50505050905090810190601f1680156109ca5780820380516001836020036101000a031916815260200191505b509250505060405180910390f35b610a1a600480360360208110156109ee57600080fd5b81019080803573ffffffffffffffffffffffffffffffffffffffff169060200190929190505050611a2a565b005b610a24611be9565b005b610a6860048036036020811015610a3c57600080fd5b81019080803573ffffffffffffffffffffffffffffffffffffffff169060200190929190505050611ebd565b005b6000809054906101000a900460b01b81565b600860009054906101000a900473ffffffffffffffffffffffffffffffffffffffff1673ffffffffffffffffffffffffffffffffffffffff163373ffffffffffffffffffffffffffffffffffffffff1614610b3f576040517f08c379a00000000000000000000000000000000000000000000000000000000081526004018080602001828103825260158152602001807fe4b88de698afe59088e7baa6e68ba5e69c89e88085000000000000000000000081525060200191505060405180910390fd5b8060029080519060200190610b55929190611fc4565b5050565b600860009054906101000a900473ffffffffffffffffffffffffffffffffffffffff1673ffffffffffffffffffffffffffffffffffffffff163373ffffffffffffffffffffffffffffffffffffffff161480610c025750600b60009054906101000a900473ffffffffffffffffffffffffffffffffffffffff1673ffffffffffffffffffffffffffffffffffffffff163373ffffffffffffffffffffffffffffffffffffffff16145b610c74576040517f08c379a000000000000000000000000000000000000000000000000000000000815260040180806020018281038252600c8152602001807fe697a0e69d83e6938de4bd9c000000000000000000000000000000000000000081525060200191505060405180910390fd5b60008090505b600a80549050811015610d05578173ffffffffffffffffffffffffffffffffffffffff16600a8281548110610cab57fe5b9060005260206000200160009054906101000a900473ffffffffffffffffffffffffffffffffffffffff1673ffffffffffffffffffffffffffffffffffffffff161415610cf85750610d6d565b8080600101915050610c7a565b50600a8190806001815401808255809150509060018203906000526020600020016000909192909190916101000a81548173ffffffffffffffffffffffffffffffffffffffff021916908373ffffffffffffffffffffffffffffffffffffffff160217905550505b50565b600080600060606000606080600080905060008090505b600a80549050811015610e15573373ffffffffffffffffffffffffffffffffffffffff16600a8281548110610db857fe5b9060005260206000200160009054906101000a900473ffffffffffffffffffffffffffffffffffffffff1673ffffffffffffffffffffffffffffffffffffffff161415610e085760019150610e15565b8080600101915050610d87565b5080610eb15760008090505b600980549050811015610eaf573373ffffffffffffffffffffffffffffffffffffffff1660098281548110610e5257fe5b9060005260206000200160009054906101000a900473ffffffffffffffffffffffffffffffffffffffff1673ffffffffffffffffffffffffffffffffffffffff161415610ea25760019150610eaf565b8080600101915050610e21565b505b8080610f0a5750600860009054906101000a900473ffffffffffffffffffffffffffffffffffffffff1673ffffffffffffffffffffffffffffffffffffffff163373ffffffffffffffffffffffffffffffffffffffff16145b610f5f576040517f08c379a000000000000000000000000000000000000000000000000000000000815260040180806020018281038252602a81526020018061215c602a913960400191505060405180910390fd5b600360009054906101000a900460ff16600360019054906101000a900467ffffffffffffffff16600360099054906101000a900467ffffffffffffffff16600460055460066007838054600181600116156101000203166002900480601f01602080910402602001604051908101604052809291908181526020018280546001816001161561010002031660029004801561103b5780601f106110105761010080835404028352916020019161103b565b820191906000526020600020905b81548152906001019060200180831161101e57829003601f168201915b505050505093508180548060200260200160405190810160405280929190818152602001828054801561108d57602002820191906000526020600020905b815481526020019060010190808311611079575b50505050509150808054806020026020016040519081016040528092919081815260200182805480156110df57602002820191906000526020600020905b8154815260200190600101908083116110cb575b5050505050905097509750975097509750975097505090919293949596565b600c60405180608001604052808681526020018573ffffffffffffffffffffffffffffffffffffffff1681526020018481526020018381525090806001815401808255809150509060018203906000526020600020906004020160009091929091909150600082015181600001908051906020019061117e929190612044565b5060208201518160010160006101000a81548173ffffffffffffffffffffffffffffffffffffffff021916908373ffffffffffffffffffffffffffffffffffffffff16021790555060408201518160020190805190602001906111e2929190612044565b5060608201518160030190805190602001906111ff929190612044565b505050507f3f4fb874e71a35042e58ef96f2df80c05286b7f6dcbe26e0d5dda31f18e5baf38484848460405180806020018573ffffffffffffffffffffffffffffffffffffffff1673ffffffffffffffffffffffffffffffffffffffff1681526020018060200180602001848103845288818151815260200191508051906020019080838360005b838110156112a2578082015181840152602081019050611287565b50505050905090810190601f1680156112cf5780820380516001836020036101000a031916815260200191505b50848103835286818151815260200191508051906020019080838360005b838110156113085780820151818401526020810190506112ed565b50505050905090810190601f1680156113355780820380516001836020036101000a031916815260200191505b50848103825285818151815260200191508051906020019080838360005b8381101561136e578082015181840152602081019050611353565b50505050905090810190601f16801561139b5780820380516001836020036101000a031916815260200191505b5097505050505050505060405180910390a150505050565b600b60009054906101000a900473ffffffffffffffffffffffffffffffffffffffff1681565b6000809050600080600090505b600980549050811015611477573373ffffffffffffffffffffffffffffffffffffffff166009828154811061141757fe5b9060005260206000200160009054906101000a900473ffffffffffffffffffffffffffffffffffffffff1673ffffffffffffffffffffffffffffffffffffffff16141561146a5760019250809150611477565b80806001019150506113e6565b50816114eb576040517f08c379a00000000000000000000000000000000000000000000000000000000081526004018080602001828103825260188152602001807fe6b2a1e69c89e794b3e8afb7e58aa0e585a5e7a4bee59ba2000000000000000081525060200191505060405180910390fd5b600a3390806001815401808255809150509060018203906000526020600020016000909192909190916101000a81548173ffffffffffffffffffffffffffffffffffffffff021916908373ffffffffffffffffffffffffffffffffffffffff1602179055505060096001600980549050038154811061156657fe5b9060005260206000200160009054906101000a900473ffffffffffffffffffffffffffffffffffffffff166009828154811061159e57fe5b9060005260206000200160006101000a81548173ffffffffffffffffffffffffffffffffffffffff021916908373ffffffffffffffffffffffffffffffffffffffff16021790555060098054806115f157fe5b6001900381819060005260206000200160006101000a81549073ffffffffffffffffffffffffffffffffffffffff021916905590557f3bf1685b01f8b2cde2a6dcd3f86da4f69d9deec9fe9dfeab177b59c325b3a9a533604051808273ffffffffffffffffffffffffffffffffffffffff1673ffffffffffffffffffffffffffffffffffffffff16815260200191505060405180910390a15050565b600860009054906101000a900473ffffffffffffffffffffffffffffffffffffffff1673ffffffffffffffffffffffffffffffffffffffff163373ffffffffffffffffffffffffffffffffffffffff1614611750576040517f08c379a00000000000000000000000000000000000000000000000000000000081526004018080602001828103825260158152602001807fe4b88de698afe59088e7baa6e68ba5e69c89e88085000000000000000000000081525060200191505060405180910390fd5b86600360006101000a81548160ff02191690831515021790555085600360016101000a81548167ffffffffffffffff021916908367ffffffffffffffff16021790555084600360096101000a81548167ffffffffffffffff021916908367ffffffffffffffff16021790555083600490805190602001906117d2929190611fc4565b508260058190555081600690805190602001906117f09291906120c4565b5080600790805190602001906118079291906120c4565b5050505050505050565b600860009054906101000a900473ffffffffffffffffffffffffffffffffffffffff1673ffffffffffffffffffffffffffffffffffffffff163373ffffffffffffffffffffffffffffffffffffffff16146118d4576040517f08c379a00000000000000000000000000000000000000000000000000000000081526004018080602001828103825260158152602001807fe4b88de698afe59088e7baa6e68ba5e69c89e88085000000000000000000000081525060200191505060405180910390fd5b80600190805190602001906118ea929190611fc4565b5050565b60018054600181600116156101000203166002900480601f0160208091040260200160405190810160405280929190818152602001828054600181600116156101000203166002900480156119845780601f1061195957610100808354040283529160200191611984565b820191906000526020600020905b81548152906001019060200180831161196757829003601f168201915b505050505081565b60028054600181600116156101000203166002900480601f016020809104026020016040519081016040528092919081815260200182805460018160011615610100020316600290048015611a225780601f106119f757610100808354040283529160200191611a22565b820191906000526020600020905b815481529060010190602001808311611a0557829003601f168201915b505050505081565b600860009054906101000a900473ffffffffffffffffffffffffffffffffffffffff1673ffffffffffffffffffffffffffffffffffffffff163373ffffffffffffffffffffffffffffffffffffffff1614611aed576040517f08c379a00000000000000000000000000000000000000000000000000000000081526004018080602001828103825260158152602001807fe4b88de698afe59088e7baa6e68ba5e69c89e88085000000000000000000000081525060200191505060405180910390fd5b60008090505b600980549050811015611b7e578173ffffffffffffffffffffffffffffffffffffffff1660098281548110611b2457fe5b9060005260206000200160009054906101000a900473ffffffffffffffffffffffffffffffffffffffff1673ffffffffffffffffffffffffffffffffffffffff161415611b715750611be6565b8080600101915050611af3565b5060098190806001815401808255809150509060018203906000526020600020016000909192909190916101000a81548173ffffffffffffffffffffffffffffffffffffffff021916908373ffffffffffffffffffffffffffffffffffffffff160217905550505b50565b6000809050600080600090505b600980549050811015611c87573373ffffffffffffffffffffffffffffffffffffffff1660098281548110611c2757fe5b9060005260206000200160009054906101000a900473ffffffffffffffffffffffffffffffffffffffff1673ffffffffffffffffffffffffffffffffffffffff161415611c7a5760019250809150611c87565b8080600101915050611bf6565b5081611cfb576040517f08c379a00000000000000000000000000000000000000000000000000000000081526004018080602001828103825260188152602001807fe6b2a1e69c89e794b3e8afb7e58aa0e585a5e7a4bee59ba2000000000000000081525060200191505060405180910390fd5b600960016009805490500381548110611d1057fe5b9060005260206000200160009054906101000a900473ffffffffffffffffffffffffffffffffffffffff1660098281548110611d4857fe5b9060005260206000200160006101000a81548173ffffffffffffffffffffffffffffffffffffffff021916908373ffffffffffffffffffffffffffffffffffffffff1602179055506009805480611d9b57fe5b6001900381819060005260206000200160006101000a81549073ffffffffffffffffffffffffffffffffffffffff021916905590557f3f4fb874e71a35042e58ef96f2df80c05286b7f6dcbe26e0d5dda31f18e5baf33060405180806020018373ffffffffffffffffffffffffffffffffffffffff1673ffffffffffffffffffffffffffffffffffffffff16815260200180602001806020018481038452600c8152602001807fe7a4bee59ba2e6b688e681af00000000000000000000000000000000000000008152506020018481038352600081526020016020018481038252601b8152602001807fe7a4bee59ba2e58aa0e585a5e794b3e8afb7e8a2abe68b92e7bb9d000000000081525060200194505050505060405180910390a15050565b600860009054906101000a900473ffffffffffffffffffffffffffffffffffffffff1673ffffffffffffffffffffffffffffffffffffffff163373ffffffffffffffffffffffffffffffffffffffff1614611f80576040517f08c379a00000000000000000000000000000000000000000000000000000000081526004018080602001828103825260158152602001807fe4b88de698afe59088e7baa6e68ba5e69c89e88085000000000000000000000081525060200191505060405180910390fd5b80600b60006101000a81548173ffffffffffffffffffffffffffffffffffffffff021916908373ffffffffffffffffffffffffffffffffffffffff16021790555050565b828054600181600116156101000203166002900490600052602060002090601f016020900481019282601f1061200557805160ff1916838001178555612033565b82800160010185558215612033579182015b82811115612032578251825591602001919060010190612017565b5b5090506120409190612111565b5090565b828054600181600116156101000203166002900490600052602060002090601f016020900481019282601f1061208557805160ff19168380011785556120b3565b828001600101855582156120b3579182015b828111156120b2578251825591602001919060010190612097565b5b5090506120c09190612111565b5090565b828054828255906000526020600020908101928215612100579160200282015b828111156120ff5782518255916020019190600101906120e4565b5b50905061210d9190612136565b5090565b61213391905b8082111561212f576000816000905550600101612117565b5090565b90565b61215891905b8082111561215457600081600090555060010161213c565b5090565b9056fee4b88de698afe5b7b2e58aa0e585a5e79a84e7a4bee59ba2e68896e59088e7baa6e68ba5e69c89e88085a265627a7a7231582035d32086fb8b8608d1650bdc8956eb864ac6cbd2c7eb5fe7309f17344ae2403764736f6c63430005100032",
  "source": "pragma solidity ^0.5.0;\n\ncontract User {\n    ///////////\n    //\n    bytes10 public name; //bytes10\n    string public imgUrl; //url\n    string public message; //\n    //\n    bool gender; //0  1 \n    uint64 phone; //\n    uint64 qq; //QQ\n    string email; //\n    bytes32 location; //\n    bytes32[] language; //\n    bytes32[] hobby; //\n    /////////////////\n\n    //\n    address owner;\n\n    //\n    address[] applyClubs; //\n    //\n    address[] myClubs;\n    //myClubs\n    address public tempAuth; //public\n\n    //\n    notification[] notices; //\n    struct notification {\n        string _type; //\n        address from;\n        string time; //string\n        string message;\n    }\n\n    modifier onlyOwner {\n        require(msg.sender == owner, \"\");\n        _;\n    }\n\n    modifier onlyMyClubs {\n        bool flag = false;\n        for (uint256 i = 0; i < myClubs.length; i++) {\n            if (myClubs[i] == msg.sender) {\n                flag = true;\n                break;\n            }\n        }\n        if (!flag) {\n            for (uint256 i = 0; i < applyClubs.length; i++) {\n                if (applyClubs[i] == msg.sender) {\n                    flag = true;\n                    break;\n                }\n            }\n        }\n        require(flag, \"\");\n        _;\n    }\n\n    modifier clubsOrSelf {\n        bool flag = false;\n        for (uint256 i = 0; i < myClubs.length; i++) {\n            if (myClubs[i] == msg.sender) {\n                flag = true;\n                break;\n            }\n        }\n        if (!flag) {\n            for (uint256 i = 0; i < applyClubs.length; i++) {\n                if (applyClubs[i] == msg.sender) {\n                    flag = true;\n                    break;\n                }\n            }\n        }\n        require(flag || msg.sender == owner, \"\");\n        _;\n    }\n    ////////////////////\n\n    event applyPassEvent(address club); //\n\n    event newNotification(\n        string mtype,\n        address _from,\n        string time,\n        string message\n    );\n\n    /////////////////////\n\n    /**\n    \n    */\n    constructor(bytes10 _name, address _owner) public {\n        name = _name;\n        owner = _owner;\n    }\n\n    function setImgUrl(string memory _imgUrl) public onlyOwner {\n        imgUrl = _imgUrl;\n    }\n\n    function setMessage(string memory _message) public onlyOwner {\n        message = _message;\n    }\n\n    function setUserInfo(\n        bool _gender,\n        uint64 _phone,\n        uint64 _qq,\n        string memory _email,\n        bytes32 _location,\n        bytes32[] memory _language,\n        bytes32[] memory _hobby\n    ) public onlyOwner {\n        gender = _gender;\n        phone = _phone;\n        qq = _qq;\n        email = _email;\n        location = _location;\n        language = _language;\n        hobby = _hobby;\n    }\n\n    /**\n    \n    interface\n    */\n    function getUserInfo()\n        public\n        view\n        clubsOrSelf\n        returns (\n            bool _gender,\n            uint64 _phone,\n            uint64 _qq,\n            string memory _email,\n            bytes32 _location,\n            bytes32[] memory _language,\n            bytes32[] memory _hobby\n        )\n    {\n        return (gender, phone, qq, email, location, language, hobby);\n    }\n\n    function newNotice(\n        string memory mtype,\n        address _from,\n        string memory _time,\n        string memory _message\n    ) public {\n        notices.push(\n            notification({\n                _type: mtype,\n                from: _from,\n                time: _time,\n                message: _message\n            })\n        );\n\n        emit newNotification(mtype, _from, _time, _message);\n    }\n\n    //ClubManagermyClubs\n    function setTempAuth(address addr) public onlyOwner {\n        tempAuth = addr;\n    }\n\n    function addClub(address club) public {\n        require(msg.sender == owner || msg.sender == tempAuth, \"\");\n        //\n        for (uint256 i = 0; i < myClubs.length; i++) {\n            if (myClubs[i] == club) {\n                return;\n            }\n        }\n        myClubs.push(club);\n    }\n\n    function addApplyClub(address club) public onlyOwner {\n        for (uint256 i = 0; i < applyClubs.length; i++) {\n            if (applyClubs[i] == club) {\n                return;\n            }\n        }\n        //applyClubs\n        applyClubs.push(club);\n    }\n\n    function applyPass() public {\n        //\n        bool flag = false;\n        uint256 index;\n        for (uint256 i = 0; i < applyClubs.length; i++) {\n            if (applyClubs[i] == msg.sender) {\n                flag = true;\n                index = i;\n                break;\n            }\n        }\n        require(flag, \"\");\n        //myClubs\n        myClubs.push(msg.sender);\n        //\n        applyClubs[index] = applyClubs[applyClubs.length - 1];\n        applyClubs.pop();\n\n        emit applyPassEvent(msg.sender);\n    }\n\n    function applyRefus() public {\n        //\n        bool flag = false;\n        uint256 index;\n        for (uint256 i = 0; i < applyClubs.length; i++) {\n            if (applyClubs[i] == msg.sender) {\n                flag = true;\n                index = i;\n                break;\n            }\n        }\n        require(flag, \"\");\n        //\n        //\n        applyClubs[index] = applyClubs[applyClubs.length - 1];\n        applyClubs.pop();\n\n        //\n        emit newNotification(\"\", address(this), \"\", \"\");\n    }\n}\n",
  "sourcePath": "/Users/xuhao/dapps/CMS/contracts/roles/User.sol",
  "compiler": {
    "name": "solc",
    "version": "0.5.16+commit.9c3226ce.Emscripten.clang"
  },
  "schemaVersion": "3.0.23",
  "updatedAt": "2020-03-26T07:30:21.014Z",
  "devdoc": {
    "methods": {}
  },
  "userdoc": {
    "methods": {
      "constructor": "",
      "getUserInfo()": {
        "notice": " interface"
      }
    }
  }
}