{
  "contractName": "Vote",
  "abi": [
    {
      "inputs": [
        {
          "internalType": "string",
          "name": "_name",
          "type": "string"
        },
        {
          "internalType": "bool",
          "name": "_open",
          "type": "bool"
        },
        {
          "internalType": "address[]",
          "name": "_voter",
          "type": "address[]"
        }
      ],
      "payable": false,
      "stateMutability": "nonpayable",
      "type": "constructor"
    },
    {
      "anonymous": false,
      "inputs": [],
      "name": "newNotification",
      "type": "event"
    },
    {
      "constant": true,
      "inputs": [],
      "name": "name",
      "outputs": [
        {
          "internalType": "string",
          "name": "",
          "type": "string"
        }
      ],
      "payable": false,
      "stateMutability": "view",
      "type": "function"
    },
    {
      "constant": true,
      "inputs": [],
      "name": "owner",
      "outputs": [
        {
          "internalType": "address",
          "name": "",
          "type": "address"
        }
      ],
      "payable": false,
      "stateMutability": "view",
      "type": "function"
    },
    {
      "constant": false,
      "inputs": [
        {
          "internalType": "string",
          "name": "_description",
          "type": "string"
        }
      ],
      "name": "addItem",
      "outputs": [],
      "payable": false,
      "stateMutability": "nonpayable",
      "type": "function"
    },
    {
      "constant": false,
      "inputs": [],
      "name": "startVoting",
      "outputs": [],
      "payable": false,
      "stateMutability": "nonpayable",
      "type": "function"
    },
    {
      "constant": false,
      "inputs": [],
      "name": "endVoting",
      "outputs": [],
      "payable": false,
      "stateMutability": "nonpayable",
      "type": "function"
    },
    {
      "constant": true,
      "inputs": [],
      "name": "getItemsCount",
      "outputs": [
        {
          "internalType": "uint256",
          "name": "count",
          "type": "uint256"
        }
      ],
      "payable": false,
      "stateMutability": "view",
      "type": "function"
    },
    {
      "constant": true,
      "inputs": [
        {
          "internalType": "uint256",
          "name": "index",
          "type": "uint256"
        }
      ],
      "name": "getItem",
      "outputs": [
        {
          "internalType": "string",
          "name": "desc",
          "type": "string"
        }
      ],
      "payable": false,
      "stateMutability": "view",
      "type": "function"
    },
    {
      "constant": true,
      "inputs": [
        {
          "internalType": "uint256",
          "name": "index",
          "type": "uint256"
        }
      ],
      "name": "getItemResult",
      "outputs": [
        {
          "internalType": "string",
          "name": "desc",
          "type": "string"
        },
        {
          "internalType": "uint256",
          "name": "y",
          "type": "uint256"
        },
        {
          "internalType": "uint256",
          "name": "n",
          "type": "uint256"
        },
        {
          "internalType": "uint256",
          "name": "abs",
          "type": "uint256"
        }
      ],
      "payable": false,
      "stateMutability": "view",
      "type": "function"
    },
    {
      "constant": false,
      "inputs": [
        {
          "internalType": "uint256",
          "name": "index",
          "type": "uint256"
        },
        {
          "internalType": "uint256",
          "name": "result",
          "type": "uint256"
        }
      ],
      "name": "voteForItem",
      "outputs": [],
      "payable": false,
      "stateMutability": "nonpayable",
      "type": "function"
    },
    {
      "constant": false,
      "inputs": [
        {
          "internalType": "string",
          "name": "_title",
          "type": "string"
        },
        {
          "internalType": "string",
          "name": "_date",
          "type": "string"
        },
        {
          "internalType": "string",
          "name": "_info",
          "type": "string"
        }
      ],
      "name": "addNotifi",
      "outputs": [],
      "payable": false,
      "stateMutability": "nonpayable",
      "type": "function"
    },
    {
      "constant": true,
      "inputs": [],
      "name": "getNotifiCount",
      "outputs": [
        {
          "internalType": "uint256",
          "name": "count",
          "type": "uint256"
        }
      ],
      "payable": false,
      "stateMutability": "view",
      "type": "function"
    },
    {
      "constant": true,
      "inputs": [
        {
          "internalType": "uint256",
          "name": "index",
          "type": "uint256"
        }
      ],
      "name": "getNotifi",
      "outputs": [
        {
          "internalType": "string",
          "name": "_title",
          "type": "string"
        },
        {
          "internalType": "string",
          "name": "_date",
          "type": "string"
        },
        {
          "internalType": "string",
          "name": "_info",
          "type": "string"
        }
      ],
      "payable": false,
      "stateMutability": "view",
      "type": "function"
    }
  ],
  "bytecode": "0x60806040523480156200001157600080fd5b5060405162001f7c38038062001f7c833981810160405260608110156200003757600080fd5b81019080805160405193929190846401000000008211156200005857600080fd5b838201915060208201858111156200006f57600080fd5b82518660018202830111640100000000821117156200008d57600080fd5b8083526020830192505050908051906020019080838360005b83811015620000c3578082015181840152602081019050620000a6565b50505050905090810190601f168015620000f15780820380516001836020036101000a031916815260200191505b5060405260200180519060200190929190805160405193929190846401000000008211156200011f57600080fd5b838201915060208201858111156200013657600080fd5b82518660208202830111640100000000821117156200015457600080fd5b8083526020830192505050908051906020019060200280838360005b838110156200018d57808201518184015260208101905062000170565b5050505090500160405250505033600160006101000a81548173ffffffffffffffffffffffffffffffffffffffff021916908373ffffffffffffffffffffffffffffffffffffffff1602179055508260009080519060200190620001f39291906200024c565b5080600290805190602001906200020c929190620002d3565b5081600160146101000a81548160ff0219169083151502179055506000600560006101000a81548160ff021916908360ff160217905550505050620003d0565b828054600181600116156101000203166002900490600052602060002090601f016020900481019282601f106200028f57805160ff1916838001178555620002c0565b82800160010185558215620002c0579182015b82811115620002bf578251825591602001919060010190620002a2565b5b509050620002cf919062000362565b5090565b8280548282559060005260206000209081019282156200034f579160200282015b828111156200034e5782518260006101000a81548173ffffffffffffffffffffffffffffffffffffffff021916908373ffffffffffffffffffffffffffffffffffffffff16021790555091602001919060010190620002f4565b5b5090506200035e91906200038a565b5090565b6200038791905b808211156200038357600081600090555060010162000369565b5090565b90565b620003cd91905b80821115620003c957600081816101000a81549073ffffffffffffffffffffffffffffffffffffffff02191690555060010162000391565b5090565b90565b611b9c80620003e06000396000f3fe608060405234801561001057600080fd5b50600436106100b45760003560e01c8063512dd02011610071578063512dd020146104af578063633df09e146104cd5780638da5cb5b14610505578063a3f8fb161461054f578063c3403ddf1461060b578063e764fe0614610615576100b4565b806303c87f77146100b957806306fdde03146100d7578063169a1d711461015a5780631ec6b60a1461034357806327e9f2941461034d5780633129e77314610408575b600080fd5b6100c1610794565b6040518082815260200191505060405180910390f35b6100df6108c6565b6040518080602001828103825283818151815260200191508051906020019080838360005b8381101561011f578082015181840152602081019050610104565b50505050905090810190601f16801561014c5780820380516001836020036101000a031916815260200191505b509250505060405180910390f35b6103416004803603606081101561017057600080fd5b810190808035906020019064010000000081111561018d57600080fd5b82018360208201111561019f57600080fd5b803590602001918460018302840111640100000000831117156101c157600080fd5b91908080601f016020809104026020016040519081016040528093929190818152602001838380828437600081840152601f19601f8201169050808301925050505050505091929192908035906020019064010000000081111561022457600080fd5b82018360208201111561023657600080fd5b8035906020019184600183028401116401000000008311171561025857600080fd5b91908080601f016020809104026020016040519081016040528093929190818152602001838380828437600081840152601f19601f820116905080830192505050505050509192919290803590602001906401000000008111156102bb57600080fd5b8201836020820111156102cd57600080fd5b803590602001918460018302840111640100000000831117156102ef57600080fd5b91908080601f016020809104026020016040519081016040528093929190818152602001838380828437600081840152601f19601f820116905080830192505050505050509192919290505050610964565b005b61034b610afa565b005b6104066004803603602081101561036357600080fd5b810190808035906020019064010000000081111561038057600080fd5b82018360208201111561039257600080fd5b803590602001918460018302840111640100000000831117156103b457600080fd5b91908080601f016020809104026020016040519081016040528093929190818152602001838380828437600081840152601f19601f820116905080830192505050505050509192919290505050610bdb565b005b6104346004803603602081101561041e57600080fd5b8101908080359060200190929190505050610d30565b6040518080602001828103825283818151815260200191508051906020019080838360005b83811015610474578082015181840152602081019050610459565b50505050905090810190601f1680156104a15780820380516001836020036101000a031916815260200191505b509250505060405180910390f35b6104b7610f15565b6040518082815260200191505060405180910390f35b610503600480360360408110156104e357600080fd5b810190808035906020019092919080359060200190929190505050611047565b005b61050d61138d565b604051808273ffffffffffffffffffffffffffffffffffffffff1673ffffffffffffffffffffffffffffffffffffffff16815260200191505060405180910390f35b61057b6004803603602081101561056557600080fd5b81019080803590602001909291905050506113b3565b6040518080602001858152602001848152602001838152602001828103825286818151815260200191508051906020019080838360005b838110156105cd5780820151818401526020810190506105b2565b50505050905090810190601f1680156105fa5780820380516001836020036101000a031916815260200191505b509550505050505060405180910390f35b61061361165b565b005b6106416004803603602081101561062b57600080fd5b810190808035906020019092919050505061173c565b60405180806020018060200180602001848103845287818151815260200191508051906020019080838360005b8381101561068957808201518184015260208101905061066e565b50505050905090810190601f1680156106b65780820380516001836020036101000a031916815260200191505b50848103835286818151815260200191508051906020019080838360005b838110156106ef5780820151818401526020810190506106d4565b50505050905090810190601f16801561071c5780820380516001836020036101000a031916815260200191505b50848103825285818151815260200191508051906020019080838360005b8381101561075557808201518184015260208101905061073a565b50505050905090810190601f1680156107825780820380516001836020036101000a031916815260200191505b50965050505050505060405180910390f35b600033600160149054906101000a900460ff166108ba57600080905060008090505b600280549050811015610844578273ffffffffffffffffffffffffffffffffffffffff16600282815481106107e757fe5b9060005260206000200160009054906101000a900473ffffffffffffffffffffffffffffffffffffffff1673ffffffffffffffffffffffffffffffffffffffff1614156108375760019150610844565b80806001019150506107b6565b50806108b8576040517f08c379a000000000000000000000000000000000000000000000000000000000815260040180806020018281038252601b8152602001807fe4b88de698afe68e88e69d83e79a84e68a95e7a5a8e4babae59198000000000081525060200191505060405180910390fd5b505b60068054905091505090565b60008054600181600116156101000203166002900480601f01602080910402602001604051908101604052809291908181526020018280546001816001161561010002031660029004801561095c5780601f106109315761010080835404028352916020019161095c565b820191906000526020600020905b81548152906001019060200180831161093f57829003601f168201915b505050505081565b600160009054906101000a900473ffffffffffffffffffffffffffffffffffffffff1673ffffffffffffffffffffffffffffffffffffffff163373ffffffffffffffffffffffffffffffffffffffff1614610a27576040517f08c379a00000000000000000000000000000000000000000000000000000000081526004018080602001828103825260158152602001807fe697a0e69d83e99990e58f91e98081e9809ae79fa5000000000000000000000081525060200191505060405180910390fd5b6006604051806060016040528085815260200184815260200183815250908060018154018082558091505090600182039060005260206000209060030201600090919290919091506000820151816000019080519060200190610a8b929190611aa1565b506020820151816001019080519060200190610aa8929190611aa1565b506040820151816002019080519060200190610ac5929190611aa1565b505050507f3abd65ac4fbe27ecec054c2af16912bad4356d4c4c552f14719550ae4276248860405160405180910390a1505050565b600160009054906101000a900473ffffffffffffffffffffffffffffffffffffffff1673ffffffffffffffffffffffffffffffffffffffff163373ffffffffffffffffffffffffffffffffffffffff1614610bbd576040517f08c379a00000000000000000000000000000000000000000000000000000000081526004018080602001828103825260098152602001807fe697a0e69d83e99990000000000000000000000000000000000000000000000081525060200191505060405180910390fd5b6001600560006101000a81548160ff021916908360ff160217905550565b600160009054906101000a900473ffffffffffffffffffffffffffffffffffffffff1673ffffffffffffffffffffffffffffffffffffffff163373ffffffffffffffffffffffffffffffffffffffff1614610c9e576040517f08c379a00000000000000000000000000000000000000000000000000000000081526004018080602001828103825260098152602001807fe697a0e69d83e99990000000000000000000000000000000000000000000000081525060200191505060405180910390fd5b6004604051806080016040528083815260200160008152602001600081526020016000815250908060018154018082558091505090600182039060005260206000209060040201600090919290919091506000820151816000019080519060200190610d0b929190611aa1565b5060208201518160010155604082015181600201556060820151816003015550505050565b606033600160149054906101000a900460ff16610e5657600080905060008090505b600280549050811015610de0578273ffffffffffffffffffffffffffffffffffffffff1660028281548110610d8357fe5b9060005260206000200160009054906101000a900473ffffffffffffffffffffffffffffffffffffffff1673ffffffffffffffffffffffffffffffffffffffff161415610dd35760019150610de0565b8080600101915050610d52565b5080610e54576040517f08c379a000000000000000000000000000000000000000000000000000000000815260040180806020018281038252601b8152602001807fe4b88de698afe68e88e69d83e79a84e68a95e7a5a8e4babae59198000000000081525060200191505060405180910390fd5b505b60048381548110610e6357fe5b90600052602060002090600402016000018054600181600116156101000203166002900480601f016020809104026020016040519081016040528092919081815260200182805460018160011615610100020316600290048015610f085780601f10610edd57610100808354040283529160200191610f08565b820191906000526020600020905b815481529060010190602001808311610eeb57829003601f168201915b5050505050915050919050565b600033600160149054906101000a900460ff1661103b57600080905060008090505b600280549050811015610fc5578273ffffffffffffffffffffffffffffffffffffffff1660028281548110610f6857fe5b9060005260206000200160009054906101000a900473ffffffffffffffffffffffffffffffffffffffff1673ffffffffffffffffffffffffffffffffffffffff161415610fb85760019150610fc5565b8080600101915050610f37565b5080611039576040517f08c379a000000000000000000000000000000000000000000000000000000000815260040180806020018281038252601b8152602001807fe4b88de698afe68e88e69d83e79a84e68a95e7a5a8e4babae59198000000000081525060200191505060405180910390fd5b505b60048054905091505090565b33600160149054906101000a900460ff1661116b57600080905060008090505b6002805490508110156110f5578273ffffffffffffffffffffffffffffffffffffffff166002828154811061109857fe5b9060005260206000200160009054906101000a900473ffffffffffffffffffffffffffffffffffffffff1673ffffffffffffffffffffffffffffffffffffffff1614156110e857600191506110f5565b8080600101915050611067565b5080611169576040517f08c379a000000000000000000000000000000000000000000000000000000000815260040180806020018281038252601b8152602001807fe4b88de698afe68e88e69d83e79a84e68a95e7a5a8e4babae59198000000000081525060200191505060405180910390fd5b505b600080905060008090505b600380549050811015611204573373ffffffffffffffffffffffffffffffffffffffff16600382815481106111a757fe5b9060005260206000200160009054906101000a900473ffffffffffffffffffffffffffffffffffffffff1673ffffffffffffffffffffffffffffffffffffffff1614156111f75760019150611204565b8080600101915050611176565b508015611279576040517f08c379a00000000000000000000000000000000000000000000000000000000081526004018080602001828103825260128152602001807fe4b88de8a681e9878de5a48de68a95e7a5a8000000000000000000000000000081525060200191505060405180910390fd5b60008314156112b5576004848154811061128f57fe5b906000526020600020906004020160020160008154809291906001019190505550611321565b60018314156112f157600484815481106112cb57fe5b906000526020600020906004020160010160008154809291906001019190505550611320565b600484815481106112fe57fe5b9060005260206000209060040201600301600081548092919060010191905055505b5b60033390806001815401808255809150509060018203906000526020600020016000909192909190916101000a81548173ffffffffffffffffffffffffffffffffffffffff021916908373ffffffffffffffffffffffffffffffffffffffff1602179055505050505050565b600160009054906101000a900473ffffffffffffffffffffffffffffffffffffffff1681565b6060600080600033600080905060008090505b600380549050811015611454578273ffffffffffffffffffffffffffffffffffffffff16600382815481106113f757fe5b9060005260206000200160009054906101000a900473ffffffffffffffffffffffffffffffffffffffff1673ffffffffffffffffffffffffffffffffffffffff1614156114475760019150611454565b80806001019150506113c6565b50806114c8576040517f08c379a00000000000000000000000000000000000000000000000000000000081526004018080602001828103825260158152602001807fe68a95e7a5a8e5908ee6898de58fafe8aebfe997ae000000000000000000000081525060200191505060405180910390fd5b6002600560009054906101000a900460ff1660ff1614611533576040517f08c379a0000000000000000000000000000000000000000000000000000000008152600401808060200182810382526021815260200180611b476021913960400191505060405180910390fd5b6004878154811061154057fe5b90600052602060002090600402016000016004888154811061155e57fe5b9060005260206000209060040201600101546004898154811061157d57fe5b90600052602060002090600402016002015460048a8154811061159c57fe5b906000526020600020906004020160030154838054600181600116156101000203166002900480601f0160208091040260200160405190810160405280929190818152602001828054600181600116156101000203166002900480156116435780601f1061161857610100808354040283529160200191611643565b820191906000526020600020905b81548152906001019060200180831161162657829003601f168201915b50505050509350955095509550955050509193509193565b600160009054906101000a900473ffffffffffffffffffffffffffffffffffffffff1673ffffffffffffffffffffffffffffffffffffffff163373ffffffffffffffffffffffffffffffffffffffff161461171e576040517f08c379a00000000000000000000000000000000000000000000000000000000081526004018080602001828103825260098152602001807fe697a0e69d83e99990000000000000000000000000000000000000000000000081525060200191505060405180910390fd5b6002600560006101000a81548160ff021916908360ff160217905550565b606080606033600160149054906101000a900460ff1661186557600080905060008090505b6002805490508110156117ef578273ffffffffffffffffffffffffffffffffffffffff166002828154811061179257fe5b9060005260206000200160009054906101000a900473ffffffffffffffffffffffffffffffffffffffff1673ffffffffffffffffffffffffffffffffffffffff1614156117e257600191506117ef565b8080600101915050611761565b5080611863576040517f08c379a000000000000000000000000000000000000000000000000000000000815260040180806020018281038252601b8152602001807fe4b88de698afe68e88e69d83e79a84e68a95e7a5a8e4babae59198000000000081525060200191505060405180910390fd5b505b6006858154811061187257fe5b90600052602060002090600302016000016006868154811061189057fe5b9060005260206000209060030201600101600687815481106118ae57fe5b9060005260206000209060030201600201828054600181600116156101000203166002900480601f0160208091040260200160405190810160405280929190818152602001828054600181600116156101000203166002900480156119545780601f1061192957610100808354040283529160200191611954565b820191906000526020600020905b81548152906001019060200180831161193757829003601f168201915b50505050509250818054600181600116156101000203166002900480601f0160208091040260200160405190810160405280929190818152602001828054600181600116156101000203166002900480156119f05780601f106119c5576101008083540402835291602001916119f0565b820191906000526020600020905b8154815290600101906020018083116119d357829003601f168201915b50505050509150808054600181600116156101000203166002900480601f016020809104026020016040519081016040528092919081815260200182805460018160011615610100020316600290048015611a8c5780601f10611a6157610100808354040283529160200191611a8c565b820191906000526020600020905b815481529060010190602001808311611a6f57829003601f168201915b50505050509050935093509350509193909250565b828054600181600116156101000203166002900490600052602060002090601f016020900481019282601f10611ae257805160ff1916838001178555611b10565b82800160010185558215611b10579182015b82811115611b0f578251825591602001919060010190611af4565b5b509050611b1d9190611b21565b5090565b611b4391905b80821115611b3f576000816000905550600101611b27565b5090565b9056fee8afb7e68a95e7a5a8e7bb93e69d9fe5908ee5868de69fa5e79c8be7bb93e69e9ca265627a7a72315820df2c66047b84b8c10cc1e4ffe64a00e72b827bcbd49e64e34e918ed67d188ded64736f6c63430005100032",
  "source": "pragma solidity ^0.5.0;\n\n\ncontract Vote {\n    string public name; //\n    address public owner; //\n\n    bool open; //false: votertrue\n\n    address[] voter; //\n    address[] voted; //\n\n    struct item {\n        string description; //\n        uint256 yes; //\n        uint256 no; //\n        uint256 abstain; //\n    }\n    item[] items; //\n\n    uint8 state; //0  1  2 \n\n    //\n    constructor(string memory _name, bool _open,address[] memory _voter) public {\n        owner = msg.sender;\n        name = _name;\n        voter = _voter;\n        open = _open;\n        state = 0;\n    }\n\n    modifier onlyVoter(address addr) {\n        if (!open) {\n            bool flag = false;\n            for (uint256 i = 0; i < voter.length; i++) {\n                if (voter[i] == addr) {\n                    flag = true;\n                    break;\n                }\n            }\n            require(flag, \"\");\n        }\n\n        _;\n    }\n\n    modifier onlyVoted(address addr) {\n        bool flag = false;\n        for (uint256 i = 0; i < voted.length; i++) {\n            if (voted[i] == addr) {\n                flag = true;\n                break;\n            }\n        }\n        require(flag, \"\");\n        _;\n    }\n\n    //////////////////////////////////////////////////\n    //////////////////////////////////////////////\n    //////////////////////////////////////////////////\n\n    //\n    function addItem(string memory _description) public {\n        require(msg.sender == owner, \"\");\n\n        items.push(\n            item({description: _description, yes: 0, no: 0, abstain: 0})\n        );\n    }\n\n    //\n    function startVoting() public {\n        require(msg.sender == owner, \"\");\n\n        state = 1;\n    }\n\n    //\n    function endVoting() public {\n        require(msg.sender == owner, \"\");\n\n        state = 2;\n    }\n    //////////////////////////////////////////////////\n    //////////////////////////////////////////////\n    //////////////////////////////////////////////////\n\n    //\n    function getItemsCount()\n        public\n        view\n        onlyVoter(msg.sender)\n        returns (uint256 count)\n    {\n        return items.length;\n    }\n\n    function getItem(uint256 index)\n        public\n        view\n        onlyVoter(msg.sender)\n        returns (string memory desc)\n    {\n        return items[index].description;\n    }\n\n    //\n    function getItemResult(uint256 index)\n        public\n        view\n        onlyVoted(msg.sender)\n        returns (string memory desc, uint256 y, uint256 n, uint256 abs)\n    {\n        //\n        require(state == 2, \"\");\n        return (\n            items[index].description,\n            items[index].yes,\n            items[index].no,\n            items[index].abstain\n        );\n    }\n\n    function voteForItem(uint256 index, uint256 result)\n        public\n        onlyVoter(msg.sender)\n    {\n        //\n        bool flag = false;\n        for (uint256 i = 0; i < voted.length; i++) {\n            if (voted[i] == msg.sender) {\n                flag = true;\n                break;\n            }\n        }\n        require(!flag, \"\");\n\n        if (result == 0) {\n            //\n            items[index].no++;\n        } else if (result == 1) {\n            //\n            items[index].yes++;\n        } else {\n            items[index].abstain++;\n        }\n\n        voted.push(msg.sender);\n    }\n\n    //////////////////////////////////////////////////\n    ////////////////////////////////////////////////////\n    //////////////////////////////////////////////////\n\n    struct notification {\n        string title;\n        string date; //yyyy-MM-dd-hh-mm-ss\n        string info;\n    }\n    notification[] notifications; //\n\n    //\n    event newNotification();\n\n    function addNotifi(\n        string memory _title,\n        string memory _date,\n        string memory _info\n    ) public {\n        require(msg.sender == owner, \"\");\n\n        notifications.push(\n            notification({title: _title, date: _date, info: _info})\n        );\n\n        emit newNotification();\n    }\n\n    //\n    function getNotifiCount()\n        public\n        view\n        onlyVoter(msg.sender)\n        returns (uint256 count)\n    {\n        return notifications.length;\n    }\n\n    function getNotifi(uint256 index)\n        public\n        view\n        onlyVoter(msg.sender)\n        returns (string memory _title, string memory _date, string memory _info)\n    {\n        return (\n            notifications[index].title,\n            notifications[index].date,\n            notifications[index].info\n        );\n    }\n}\n",
  "sourcePath": "/home/xuhao/CMS/contracts/entities/Vote.sol",
  "compiler": {
    "name": "solc",
    "version": "0.5.16+commit.9c3226ce.Emscripten.clang"
  },
  "schemaVersion": "3.0.23",
  "updatedAt": "2020-04-08T04:11:49.206Z",
  "devdoc": {
    "methods": {}
  },
  "userdoc": {
    "methods": {
      "addItem(string)": {
        "notice": "/////////////////////////////////////////////// /////////////////////////////////////////// ///////////////////////////////////////////////"
      },
      "getItemsCount()": {
        "notice": "/////////////////////////////////////////////// /////////////////////////////////////////// ///////////////////////////////////////////////"
      }
    }
  }
}